:020000040000FA
:10100000807A0020757F00001DB60100617F00001E
:10101000617F0000617F0000617F00000000000030
:10102000000000000000000000000000E18000005F
:10103000617F0000000000008D800000617F0000E3
:1010400099820000E7BD01009982000099820000AA
:101050009982000099820000998200009982000024
:10106000FDBD01009982000099820000D1BD010000
:101070009982000099820000998200009982000004
:1010800099820000998200009982000099820000F4
:1010900099820000998200009982000099820000E4
:1010A00099820000998200009982000099820000D4
:1010B00099820000998200009982000099820000C4
:1010C00099820000998200009982000099820000B4
:1010D00099820000998200009982000099820000A4
:1010E0009982000099820000998200009982000094
:1010F0009982000099820000998200009982000084
:1011000001F0FF01102A2BDB10F0070F08D010F8B8
:10111000013B013A8B422DD010F0070F42B3F6D1BC
:10112000F0B441EA012141EA014122F007047FF0D5
:1011300000070023F0E80256083C85EA010586EA2C
:10114000010685FA47F5A3FA87F586FA47F6A5FA68
:1011500087F68EB9EED1F0BC01F0FF0102F0070274
:1011600032B110F8013B013A83EA010313B1F8D11F
:101170000020704701387047002D06BF3546033800
:10118000073815F0010F07D1013015F4807F02BF39
:10119000013015F4C03F0130F0BC0138704700BF8A
:1011A00080EA101404F0F01480EA0410604081EA30
:1011B000111404F0F01481EA0411614082EA12145F
:1011C00004F0F01482EA0412624083EA131404F07B
:1011D000F01483EA0413634080EA102404F47F448B
:1011E00080EA0420604081EA112404F47F4481EA0B
:1011F0000421614082EA122404F47F4482EA04223A
:10120000624083EA132404F47F4483EA04236340A6
:1012100081EA500404F0553480EA4400614083EAD6
:10122000520404F0553482EA4402634082EA900496
:1012300004F0333480EA8400624083EA910404F0CD
:10124000333481EA84016340704700BF82EA90042E
:1012500004F0333480EA8400624083EA910404F0AD
:10126000333481EA8401634081EA500404F0553448
:1012700080EA4400614083EA520404F0553482EA73
:101280004402634080EA102404F47F4480EA04208E
:10129000604081EA112404F47F4481EA0421614022
:1012A00082EA122404F47F4482EA0422624083EA40
:1012B000132404F47F4483EA0423634080EA101477
:1012C00004F0F01480EA0410604081EA111404F084
:1012D000F01481EA0411614082EA121404F0F0145F
:1012E00082EA0412624083EA131404F0F01483EAE1
:1012F00004136340704700BF2DE9F14F94464FEA55
:10130000930B8A68CB6808684968FFF749FF0BF1BF
:10131000060E33E083EA134480EA134582EA13475A
:1013200046BA96EA3444604000F00F1684EA063468
:1013300020F00F1684EA161054BA94EA010672409F
:1013400002F00F1486EA043622F00F1486EA141213
:101350004CBA6540694001F00F1485EA043521F06C
:101360000F1485EA14115CBA67407B4003F00F1438
:1013700087EA043723F00F1487EA1413BCE8F0005F
:101380006040694072407B4000F0E03400F010356E
:1013900000F00F3040EA540040EAC50080EA9004B3
:1013A00004F0332480EA8400604001F0E03401F06E
:1013B000103501F00F3141EA540141EAC50181EADB
:1013C000910404F0332481EA8401614002F0E034A6
:1013D00002F0103502F00F3242EA540242EAC5022E
:1013E00082EA920404F0332482EA8402624003F029
:1013F000E03403F0103503F00F3343EA540343EABB
:10140000C50383EA930404F0332483EA840363402E
:1014100081EA324787EA134581EA354690EA0604B5
:1014200084EA034B82EA1B4280EA044484EA0544CE
:1014300083EA144A85EA14448BEA044B84EA37446D
:1014400081EA0B4181EA164104EA0A00454082EA3A
:1014500004082BEA080041408AEA0B0602EA06006B
:1014600084EA34438AEA3A4603EA0607784045406C
:10147000414088EA38478BEA3B4007EA000985EAA1
:10148000090583EA0709464006EA0906714085EA2C
:10149000010005EA3546464006EA314181EA30411D
:1014A00081EA364606EA304686EA3546344008EA9E
:1014B000010886EA01052A4086EA364003405A4080
:1014C00081EA31431F407C4080EA030709EA0709AB
:1014D00088EA0908544088EA020806EA0A0601EA8E
:1014E0000B018AEA0B0215408AEA3A421040454055
:1014F0008BEA3B4003405E404240174079404D40FC
:101500004E40E443F64386EA18435D4085EA0540D1
:1015100083EA134386EA034183EA384284EA1143AB
:1015200083EA04435FEA3343BEF1010E3FF6F2AEB5
:101530001ED4BCE8F0006040694072407B4020BC93
:10154000FFF784FE28606960AA60EB60BDE8F08F59
:101550002DE9E0414FF2F00280EA1031114080EABB
:101560000130484041088208C3084FF0000E4FE7A1
:1015700000F0113001F0113102F0113203F011339B
:1015800040EA410040EA820040EAC3004FF2F00224
:1015900080EA1031114080EA01304840BDE8E08126
:1015A0002DE9F04F02F11C050646074600EB8508C1
:1015B00051F8040B043A46F8040BF9D14FF0010C32
:1015C000FFF7C6FF5FEA302080EA0C001ECF4140E3
:1015D0004A4053405C401EC62000464517D04FEAA3
:1015E0004C0C1CF4807F18BFACF1E50C2C2DE7D01F
:1015F0003C2D06D1FFF7ACFF06CF41404A4006C65E
:10160000100006CF41404A4006C61000D8E736E930
:101610000F00FFF7C5FD043D86E80F00F7D1BDE8D8
:10162000F08F00BF2DE9F14F03F11C0402EB840C95
:101630004FEA930B8A68CB6808684968FFF7B0FDEA
:101640003CE9F0006040694072407B400BF1060EBF
:101650004EE083EA134480EA134582EA134746BA10
:1016600096EA3444604000F00F1684EA063420F015
:101670000F1684EA161054BA94EA0106724002F07A
:101680000F1486EA043622F00F1486EA14124CBABC
:101690006540694001F00F1485EA043521F00F140C
:1016A00085EA14115CBA67407B4003F00F1487EAA7
:1016B000043723F00F1487EA141344BA44404DBA98
:1016C0004D4056BA56405FBA5F4087EA174886EAEF
:1016D000174B84EA17464FEA38488BEA1B4485EAE1
:1016E0001B4788EA1B4580EA3440694072407B40D2
:1016F00000F0703400F0803500F00F3040EA440014
:1017000040EAD50080EA900404F0332480EA8400A3
:10171000604001F0703401F0803501F00F3141EA92
:10172000440141EAD50181EA910404F0332481EABD
:101730008401614002F0703402F0803502F00F3213
:1017400042EA440242EAD50282EA920404F03324D7
:1017500082EA8402624003F0703403F0803503F0C3
:101760000F3343EA440343EAD50383EA930404F0C6
:10177000332483EA84036340C943DB4381EA0004E2
:1017800083EA044686EA020183EA014382EA33459A
:1017900083EA14435C4084EA00077FEA040A8AEA89
:1017A000024A8AEA010B87EA11488AEA374A80EA44
:1017B000060181EA1A418AEA030A04EA0A0045405E
:1017C00088EA040707EA0B0041408AEA0B0608EAA8
:1017D000060084EA34428AEA3A4602EA060358409E
:1017E0004540414087EA37438BEA3B4003EA000922
:1017F00085EA090582EA0309464006EA09067140BE
:1018000085EA010005EA3546464006EA314181EAAB
:10181000304181EA364606EA304686EA35463440AB
:101820000F4086EA010508EA050886EA36400240CC
:1018300088EA020881EA314213405C4080EA0203F0
:1018400009EA030987EA0907674088EA040806EA03
:101850000A0601EA0B018AEA0B0425408AEA3A44A7
:10186000204045408BEA3B4B02EA0B02564084EA9B
:101870000B04234059406E40694087EA364080EAB5
:10188000384080EA060380EA104481EA134585EA7D
:10189000344585EA17427D4082EA354180EA0540B9
:1018A0003CE9F0006040694072407B40BEF1010EAF
:1018B0003FF6CFAE20BCFFF7C9FC28606960AA6084
:1018C000EB60BDE8F08F00BFFFF76ABE30B44FF0A9
:1018D000000310F8014B11F8015B013A84EA05049A
:1018E00043EA0403F5D1A3F101034FEAD37030BCFE
:1018F000704700BF4FF0000310F8012B013943EA95
:101900000203F9D1A3F101034FEAD370704700BF7E
:1019100030B411F8014B12F8015B6C4000F8014B38
:10192000013BF6D130BC7047014B1B685B68184720
:1019300000000020014B1B689B6818470000002036
:10194000014B1B681B69184700000020014B1B68F6
:101950005B69184700000020014B1B689B69184712
:1019600000000020014B1B68DB69184700000020C5
:10197000014B1B681B6A184700000020014B1B68C5
:101980009B6A184700000020014B1B68DB6A184760
:1019900000000020014B1B681B6B18470000002053
:1019A000014B1B68DB6B18470000002030B4044C6F
:1019B0009DF8085024680295E468A44630BC60474E
:1019C00000000020014B1878704700BF580C002021
:1019D000042810B511D883B104280CBF1024282482
:1019E000A1420AD2064C54F8200018B141568A424E
:1019F000A8BF0A461A70002010BD6FF01500FBE763
:101A00003807002030B50346114890F91C209A424F
:101A100019DD90F924209A4217DA9A1A846AA05C98
:101A20000C4A15569D420DD00E32002918BF0130C8
:101A30009442C0B206D129B1013BDBB2012B01D8DF
:101A40000130C0B230BD0D20FCE70020FAE700BF36
:101A500038070020E014020008B5054B93F91C304C
:101A6000984203DAFFF7CEFF024B1B56184608BD1B
:101A700038070020E014020008B5184B93F82C201A
:101A8000FAB9012283F82C20154A1268A2F1080045
:101A9000082803D813490141C90709D5911F09290D
:101AA00010D9013212D040F2BF11742003F0E4F8D3
:101AB0000D4A9A62D8221A6283F8242008229A6179
:101AC0001A7708BD094A0A41D207ECD4084A9A623B
:101AD000D8221A6283F824200422F0E73807002075
:101AE000140C0020DEFEFFFF1B150200EEFCFFFFC2
:101AF000EE14020010F0FF0008B508D14FF080434B
:101B000001225A60C3F80001034B187008BD8421FC
:101B1000B52003F0B1F800BF65070020014B01229A
:101B20001A7070476507002008B548B94FF0804328
:101B3000D3F8003113B9044B187808BD0120FCE735
:101B4000D021B52003F098F865070020044B1868F1
:101B5000062818BFB0F1FF3F0CBF012000207047DE
:101B6000140C002008B5094B1A680A2A02D1084B48
:101B70001B6823B1FFF7EAFF08B9082A04D14FF028
:101B800080430222C3F8342C08BD00BF140C00208F
:101B9000180C0020F8B50F4E0127375404460D46A7
:101BA00003F0F2FD60B934B94FF08043B77075604F
:101BB000C3F80473F8BD4FF488716D2003F05CF82E
:101BC000002DF7D01CB92046A8477460F2E740F218
:101BD0002B11F2E768070020044B191800228A70C5
:101BE00003EB80011A544A60704700BF6807002069
:101BF00010B5034CA08100F0D3FDE08110BD00BF03
:101C000068070020014BD889704700BF6807002093
:101C100010B5EFF3108472B6064B03449A7C013280
:101C2000D2B29A749B7C012B01D103F0A1FD04B9BF
:101C300062B610BD6807002010B503F0CDFD03F0BB
:101C4000A3FD4FF08044084940B1FFF78BFF01230B
:101C5000236104230B7500234B7510BD03230B7503
:101C60000123C4F80433F6E76807002010B5EFF34A
:101C7000108472B6094B03449A7C22B940F2492180
:101C80006D2002F0F9FF9A7C013AD2B29A749B7CE3
:101C90000BB9FFF72FFF04B962B610BD680700202B
:101CA000024B187D003818BF0120704768070020DC
:101CB00073B51B4DEB7D63B9686A00F0030003F058
:101CC0007BFD30B1EFF3108372B62A7D1AB103B9F0
:101CD00062B602B070BD01222A7503B962B64FF038
:101CE00080430822C3F808234FF42073ADF8063070
:101CF000BDF80640A4B2631E9BB2ADF80630002CBE
:101D0000F6D14FF080460748C6F80C4103F0DEFEDE
:101D100085F82940FFF790FF0823C6F80433D8E779
:101D200068070020900700202DE9F347484CA37D69
:101D3000002B00F08A800323ADF804304FF080437D
:101D4000D3F80051F5B9D3F80481B8F1000F09D0E8
:101D50004FF080430022C3F804210222C3F8082375
:101D6000FFF7A6FF94F829603A484FF08047F6B293
:101D7000D7F80C8103F0AEFE48B340F235316D2048
:101D800002F07AFF00258DF804500122D3F8048177
:101D9000C3F808230DF10409271DA61C19F8010B2F
:101DA00003280AD0337843B13B684FF0000A86F825
:101DB00000A013B19847C7F800A06B1C022B07F1D5
:101DC000040706F101064FF00105E7D1BDE745B173
:101DD000237D032B05D104232375FFF7C3FE0123C5
:101DE0003B61B8F1000F1FD04FF080430022C3F8D1
:101DF0000C21237D042B02D040F25B31BFE7164B50
:101E00001A680A2A02D1154B1B6823B1FFF79EFE00
:101E100008B9082A04D14FF080430022C3F8342CBB
:101E20000223237503F0DBFC4EB1002384F8293034
:101E3000237D022B01D1FFF7FFFE03F0D0FC054804
:101E400002B0BDE8F04703F054BE02B0BDE8F08731
:101E50006807002090070020140C0020180C0020B8
:101E600010B5054C606A00F0030003F0A5FC0028E3
:101E7000F8D0002010BD00BF68070020F8B5054667
:101E800050B10278042A07D8437842B9013B1F2B8E
:101E900002D88378212B07D96FF0150077E0002B4B
:101EA000FAD18378002BF7D17C4B0127C3F88070DF
:101EB000BFF34F8FBFF36F8F4FF08046C3F8807131
:101EC000774C4FF0FF33C6F808330023C6F80031D3
:101ED000C6F80431C6F80C31A374E374AB882382CE
:101EE00003F055FC08B12770A774D6F80C24D6F877
:101EF0000C34D20303D5DF0701D5FFF70FFE4FF4F3
:101F0000AF60FFF775FE2B78A978E3750022626257
:101F100021766275042B4DD8DFE803F005033A48BB
:101F20004A000123636203F039FC00284DD003F01E
:101F30003CFC636A03F00303984246D1AB79002B63
:101F40003DD1FFF78DFF237E6BB12B785BB903F09A
:101F50001BFC054602F04AFF6FF00043002D00F025
:101F60009980C4E907034FF08043D3F80C24D3F8D9
:101F70000C34D20303D5DB0701D5FFF7CFFD474A69
:101F8000012300202075A375C2F880311360F8BDCD
:101F900003F022FC4FF08043D3F80C14D3F80C2448
:101FA000CE03F9D5D007F7D50223BBE73D4BB9E700
:101FB0003D4BB7E740F20A516D2002F05DFE4FF055
:101FC00080430222C3F80423BDE74FF0804301227F
:101FD000DA600022C3F80421626AC3F81825334A84
:101FE0001368A3F10E01012904D90A2B02D0FFF7CF
:101FF000ADFD48B14FF080534FF08041D3F84432EB
:10200000C3F34233C1F83C351368A3F10E02012A31
:1020100004D90A2B02D0FFF799FD20B14FF080437D
:102020000122C3F84C254FF0804301229A6002221E
:10203000C3F80423AA79002A85D1D3F80423910791
:1020400002D440F2BD41B7E7194A1669116941F05F
:1020500010011161D3F8043106F010060BB903F03A
:1020600055FD4FF08047D7F8043183B1FFF7F8FEF4
:1020700026B90F4A136923F0100313614FF0804310
:102080000222C3F808230022C3F804215BE703F00F
:102090003BFDE8E7C4E9073065E700BF00E100E089
:1020A000680700200100020001000300140C00205A
:1020B00000ED00E010B50D4C04F1280003F00AFD1E
:1020C00048B9237D022B01D1FFF7B6FDBDE81040D2
:1020D000074803F00EBD074A012384F82930BDE804
:1020E0001040C2F8003103F077BB00BF6807002042
:1020F0009007002000E100E038B50C4B0C46197940
:1021000019B18A216F2002F0B7FD60B95D790DB178
:10211000002038BD01225A71FFF77AFD214628467A
:10212000FFF738FDF4E76FF01500F2E794070020A1
:1021300038B50B4D2B7904461BB1A1216F2002F05D
:102140009BFD50B96B790BB9002038BDFFF744FDFA
:1021500020466C71FFF78AFDF6E76FF01500F4E793
:1021600094070020014B9B68184700BF940700208C
:10217000014BDB68184700BF94070020014B1B6927
:10218000184700BF94070020034B1A790AB9FFF7DC
:1021900039BD188E704700BF94070020024B1B7991
:1021A0000BB9FFF785BD704794070020014B9B6971
:1021B000184700BF9407002010B5144C2379A3B131
:1021C000636A9847002806DB94F82E3023B1012378
:1021D00084F83230002010BDFFF7E8FF0028F6DA5F
:1021E0004FF4D1716F2002F047FD094BA361094BF9
:1021F000E361094B2362094BA360094BE360094B80
:102200002361FFF73BFE0028E1D0E4E794070020BC
:10221000611E0000B5200000A11C0000D95700007D
:10222000DF570000E5570000064B10B51C7924B1BC
:102230004FF4FB716F2002F01FFDFFF7D9FC204621
:1022400010BD00BF94070020034610B3007888B982
:102250001A79012A1ED85A79012A1BD89A680E4980
:10226000643A8A4216D8D8680C4B98422CBF00209A
:102270000120704701280CD11A79012A09D85A790E
:10228000012A06D8DA680449643A8A4201D8986873
:10229000EAE70020704700BF3C8601000040420F83
:1022A00010B5054C236813B1984700232360BDE89F
:1022B000104001F08FBB00BFC807002038B50446AE
:1022C00020B94FF4D6716A2002F0D6FC90F828505D
:1022D000072900F2EF80DFE801F004494979838D96
:1022E000A69490F82630033B012B02D940F2B71197
:1022F000E9E7052390F8241080F82630002380F8C1
:10230000293079BB704B0122DA60C3F84015C3F85D
:102310004011C3F84415C3F84411C3F84815C3F875
:102320004811C3F84C15C3F84C11684B4FF4807238
:10233000C3F8802103F073FA2378012B0FD101F049
:1023400083FD236AC4E90601002128469847014617
:10235000204603F07BFA022840F0AF8038BDD4E974
:102360000401EEE7BDE83840FFF79ABF90F8263049
:10237000DA1E012A02D94FF4EC71A4E790F8242068
:102380002AB121462846BDE8384003F02EBA042B76
:1023900014BF01230223012980F82630036A0AD1E1
:1023A0000521284698470028D8D00378002BD5D09F
:1023B00040F2ED1187E70621284698470028CDD046
:1023C0000378002BCAD04FF4F9717CE790F82630DF
:1023D000052B02D040F2F91175E7036A0221B4E738
:1023E00090F82630052B02D040F2FF116BE7036A0C
:1023F0000121AAE790F82630052BB3D040F2052141
:1024000061E790F82630052B02D040F20A215AE706
:10241000036A0A21284698470146204603F016FA27
:1024200040F20D214FE790F82630052B07D090F8A9
:1024300025200AB1032B02D040F2112143E794F882
:102440002420002A9DD194F8293093B1022384F8E6
:10245000263084F82920236A082128469847002836
:102460003FF47CAF0378002B3FF478AF40F21D219E
:1024700029E794F8252062B194F8270084F82530E4
:10248000214601F0E7FC00287FF468AF40F22221EA
:1024900019E7022384F826300721236A2846984743
:1024A00000283FF45BAF0378002B3FF457AF40F2B6
:1024B000292108E740F22E2105E70128236A0CBFF5
:1024C0000421032141E700BF0080004000E100E05B
:1024D0002DE9F8438846074688B300F035F84FF0F9
:1024E000000905465FFA89F6B54203D86FF00B0084
:1024F000BDE8F883304600F02DF890F8264009F149
:102500000109002CEED1304600F024F80546848401
:1025100080F8264080F8286001460A4801F048FC0F
:10252000202885F8270002D16FF02200E0E7012380
:102530002F6285F82630204688F80060D8E76FF0D3
:102540001500D5E7BD220000014B1879704700BF88
:10255000CC070020044B1A79824283BF1B683022CB
:1025600002FB003000207047CC0700200A4610F024
:10257000030110B50AD1074C2271206008B9002070
:1025800010BD30235A4302F01DFDF8E76FF00D0037
:10259000F6E700BFCC07002043F60952C0F308035A
:1025A00002FB03F3400A03F5807302FB00F000EB2B
:1025B0005320704710B5C0F34E22C0F30804000E3C
:1025C00040EA012043F60953090E03FB04F403FB20
:1025D00002F24FEA401E4B01BEEB000E43EAD0630D
:1025E00004F5807402EB542263EB01044FEA841C6F
:1025F0004FEA8E13B3EB0E034CEA9E6C6CEB040CAB
:102600004FEACC0C4CEA537CDB001B1841EB0C016D
:10261000D803C903101841EA534141F1000110BD2C
:102620004FEA503C48F2376303FB0CFC4FEA1C4C6A
:1026300000B5114B43F6095E0EFB1C0000FB03F3D3
:102640005B0D0EFB03FE03EB4C230EF5745C0CF1EB
:10265000080CB0EB5C2F08D80EF5807EA0EB5E2056
:10266000C0B20B6010705DF804FB013300200B60FA
:1026700010705DF804FB00BF6F0C01002DE9F04104
:1026800080460C4617461E4600F058F9D0B13D4B27
:102690009C426FD83C493D484FEA185242EA043206
:1026A000A1FB0243C8F30F149B0B04EB024400FB95
:1026B0001344A1FB0414A40B44EA0344344B03FB6E
:1026C000148819E0334B9C4258D82F492F484FEAC1
:1026D000587242EAC402A1FB0243C8F34F349B0B79
:1026E00004EB024400FB1344A1FB0414A40B44EAD2
:1026F0000344294B03FB148848F237624FEA5833EE
:1027000002FB03F31B0C43F60952244D02FB138119
:1027100001FB05F56D0D05FB02F205EB432502F506
:1027200074530833B1EB532F21D802F58072A1EB1B
:102730005221C9B2069B197000F000F958B1E303A9
:102740005D194FEA544444F10004C6E90054C7F847
:102750000080BDE8F08123065D194FEA142444F19E
:102760000004C6E90054C7F80080BDE8F0810135D7
:102770000021DFE79A219B2002F07EFA9F219B2017
:1027800002F07AFA3F420F0083DE1B43000024F47C
:1027900040420F00FF7F841E0080841E6F0C0100EA
:1027A000420B48F2376303FB02F2120C43F6095C5A
:1027B000084B0CFB120101FB03F303F586336E3368
:1027C0005B0D0CFB03FC5002B1EB5C2F88BF0130AA
:1027D000184470476F0C010010B5094A92F8003395
:1027E000202B03D13E21022002F046FA18214B4350
:1027F000D018BDE81040D35840680321184700BFE7
:10280000D80700200E4B0F491B78012B0CBF4FF44B
:10281000C0224FF4E02222F48022C1F8482318BFDE
:102820000023C1F80823084A99000A440020013314
:10283000D9B2022942F8040B4FF00103F7D17047D7
:10284000180B002000B0004040B10040114B4FF485
:102850000062C3F88020BFF34F8FBFF36F8FC3F8C0
:1028600080210D4B01225A609A60D3F80425002A7A
:10287000FBD10A49C3F808134FF4E021C3F8481309
:10288000C3F84021C3F84421C3F84821C3F8042108
:10289000704700BF00E100E000B000400200070008
:1028A00008B5124BD3F8042522F00302C3F804251F
:1028B000D3F8082542F00302C3F80825102292FA43
:1028C000A2F2B2FA82F2092A04DD09484FF47371C8
:1028D00002F0C8F9C3F810250122DA60054B4FF465
:1028E0008072C3F880211A6008BD00BF00800040DC
:1028F0008B27020000E100E00D4B4FF48072C3F81B
:102900008020BFF34F8FBFF36F8FC3F88021094B37
:1029100001214FF0FF325960C3F808230022C3F8A9
:102920004025C3F840211961034B9A70704700BFDE
:1029300000E100E000800040180B0020014BD87837
:10294000704700BF180B0020014BD3E9040170470A
:10295000180B0020044B054AD878054B002818BFF7
:102960001A461046704700BF180B00200080841ED6
:1029700040420F00044BDB78002B0CBF4FF08070FF
:102980004FF40040704700BF180B0020044BDB7869
:10299000002B47F6FF7008BF6FF07F40704700BF05
:1029A000180B0020044B054AD878054B002818BFA7
:1029B0001A461046704700BF180B0020FF7F841E88
:1029C0003F420F00044BDB78002B0CBF4FF400009C
:1029D0004FF48040704700BF180B002070B50246CE
:1029E000EFF3108572B614491448CE7856B9D0F872
:1029F0000445D0F80431BBB18B6901338B61C0F859
:102A00000461F4E7D0F84831D0F8044563B1FFF72A
:102A1000D9FFB0F5804F0CBF4FF400534FF4800343
:102A2000A34294BF0023012389690B4405B962B610
:102A3000C2E90043104670BD180B002000B00040F2
:102A400008B5094BD3F80425821AFFF79FFF02400F
:102A5000012A07D9FFF7B6FF824294BF0020012068
:102A6000400008BD0120FCE700B00040044B054ACF
:102A7000D878054B002818BF1A461046704700BF8B
:102A8000180B00200040420F20A10700014BD3F893
:102A90000405704700B0004070B50F4B0F4D104A51
:102AA000104C0026C5F80061C3F8A8254FF4002299
:102AB000C3F8AC45C3F8042502F0F9FFD5F800319E
:102AC0002BB10123C5F800616360E360F4E70130D6
:102AD00041F1000170BD00BF00F0014000B00040B6
:102AE00000B1004000800040B1F1FF3F08BFB0F1ED
:102AF000FF3F2DE9F843364C05460E461ED1354BB7
:102B0000D3F80031ABB1344B344AC3F80825FFF792
:102B100079FE00232377FFF7EFFEFFF7C1FEFFF7F3
:102B2000BBFF0223C4E904012370FF23637001206B
:102B300018E002F0BCFFC51C41F10006D4E9049383
:102B4000B34208BFA945F2D0234B244AC3F8082555
:102B5000FFF758FEFFF71AFFE37800EA05071BB1FD
:102B600017B90020BDE8F8831A494FF480380023D4
:102B7000C1F808833846C1F84883C1F84031FFF7EF
:102B80005FFF0028EDD1C1F84075C1F84483237878
:102B9000012B07D1FFF7FAFE00EA0900FFF750FF0B
:102BA0000128F6E700232377FFF7A6FEFFF778FE5C
:102BB000094A01234FF000412370C2F80415042292
:102BC0006270044AC4E90456C2F84833AFE700BF54
:102BD000180B002000B0004000F001400000088009
:102BE00037B540B1041FE4B2022C13D940F23E4184
:102BF0006C2002F041F8214B4FF48032C3F80823D7
:102C0000C3F84005C3F84001D3F840310093009B5E
:102C100003B030BD1A4D2B7893B16A7882420FD140
:102C2000184A1949C2F80815012B01D1FFF764FEB3
:102C300000232B704FF0FF324FF0FF33C5E9042320
:102C4000124A4FF48033A340C2F80833C2F8483325
:102C500004F5A87352F82300FFF7F2FE012818BF0D
:102C60000B4B4FEA84021EBF9B1800221A60084BD0
:102C700053F824300193019BCAE700BF0080004055
:102C8000180B002000F001400000088000B0004058
:102C900040B1004070B52E4D30B1011FC9B20229BC
:102CA0002BD940F2F9310BE0D5E90413B3F1FF3F22
:102CB00008BFB1F1FF3F06D1AB7823B940F2D13163
:102CC0006C2001F0D9FF12B940F2D531F8E7214B61
:102CD0004FF48031C3F804130121C3F8402559642F
:102CE000D3F8441500208A42C3F8440501D90120D5
:102CF00070BDFFF775FF0020FAE72B782BB16B78DA
:102D0000834202D140F2F531DAE7FFF73FFEEB787C
:102D10004FF4803400EA02068C400BB1002EEAD05A
:102D20000D4B0E4D8A0013440022C5F8084330466F
:102D3000C5F848431A60FFF783FE0028DBD101F590
:102D4000A87145F82160C5F80443C5F84443CEE7AF
:102D5000180B00200080004040B1004000B000404F
:102D600038B5364CFF2300204FF0FF3223774FF069
:102D7000FF33C4E904232070A061FFF7BDFDFFF716
:102D800065FD2F4A2F4BC2F800024FF40061196015
:102D9000A0682D4988B901230B60E378002B47D048
:102DA000FFF710FE0023421E0620FFF773FF60BBF3
:102DB00040F267216C2001F05FFF244B244DC3F8E3
:102DC000A855C3F8AC05C3F85C194FF40021C3F84B
:102DD00004150521C2F8401501211160D2F84011F7
:102DE0000029FBD04FF40021C3F8081501215160E0
:102DF000D1600021C2F84011C2F84015C3F8A815EF
:102E0000C3F8AC15C3F8AC15C7E722791149D30054
:102E100003F1804303F5F833C3F81015A1F5A07151
:102E2000C3F8141501239340084AC2F8083538BD89
:102E3000054B0222C3F80423F9E700BF180B00205A
:102E40000080004000E100E000B0004000F00140E0
:102E50004081004048B1004008B5FFF7D3FC054B66
:102E60004FF0FF32C3F808230022C3F84025C3F80F
:102E7000402108BD0080004008B50122084B10B178
:102E8000C3F8442308BDC3F84823FFF735FD054BBD
:102E90004FF0FF3118704FF0FF30C3E90401F1E744
:102EA00000B00040180B00202DE9F843354D364E98
:102EB00000244FF48038D5F8043308FA04F71F4291
:102EC00025D056F824304FEA840903B32F4BDB7822
:102ED00063B1022C0AD1062001F014FBD5F8483169
:102EE000ABB940F273416C2001F0C6FE254904F5F0
:102EF000A87351F82300FFF7A3FD40B10023201D64
:102F000049F80630C0B2C1F8087301F0FBFA013489
:102F1000032CD0D11D4A1B49D37843B3D1F8483193
:102F2000FBB1FFF733FDD1F8484515790123A042E5
:102F300003FA05F317D1D1F804058442FBD0916957
:102F400001319161124AC2F80835FFF73BFD0219C1
:102F5000FFF71CFD0B4B0240C3F848250022C3F8C5
:102F60004821BDE8F8830A4AC2F80435EDE7D1F8F4
:102F700004010028F5D0C1F804319369013393614D
:102F8000EFE700BF00B0004040B10040180B002048
:102F900000F0014010B51C4C237FFF2B2DD023786F
:102FA00083B10122022BA27021D1184B4FF40022D1
:102FB000C3F80825002323704FF0FF324FF0FF3392
:102FC000C4E90423124BD3F80423D2031BD5D3F84E
:102FD0004021C2B14FF480320020C3F80823C3F867
:102FE0004001FF232377BDE8104001F08BBA022394
:102FF00060782370FFF7F4FDE4E7054BD3F8043362
:103000000BB10720EFE710BD180B002000F00140C6
:10301000008000402DE9F04F95B01C460592834694
:103020000391FFF791FC04EB4404E2000F46C5490D
:1030300008320646501801EBC40404F108038C580A
:103040008289D0F804A0ADF81E20C2F307215FFAF0
:1030500082F800910FCB0EAD85E80F00CDF81880F7
:103060000494FFF793FC2040FFF796FA43465A1C5E
:10307000851801928146FFF7F9FC0290FFF76AFC80
:103080008046FFF78FFC8145019A00F2E181029BA7
:103090009A4200F3E281454580F2AA80002D31DB9F
:1030A000FFF76CF8009B012B804609D0DFF898925F
:1030B000D9E90223B3F1FF3F08BFB2F1FF3F23D0AC
:1030C000FFF762F8B7F1FF3F08BFB6F1FF3F01908D
:1030D00004D0B4427AEB070380F08D805B46032274
:1030E000E31A9A427FDCDFF86092D9E90223944226
:1030F0007AEB0301C0F08280B8F1000F62D04FF08C
:10310000000826E04544CBE70028D9D1FFF73CF87A
:10311000B7F1FF3F08BFB6F1FF3F019044D0B44282
:103120007AEB070340D399F81080B8F1000F00F054
:103130000481A31B002B56DBD9E9022394427AEBCE
:1031400003013FD2B3F1FF3F08BFB2F1FF3F40F0B0
:103150008981039BB4EB0B0B6AEB03030293FFF72C
:1031600013F8029B0930C217834573EB020280F00B
:10317000CE80059B012B00F0D580B8F1000F40D127
:10318000B7F1FF3F08BFB6F1FF3F3AD0321B67EB04
:103190000A03042A73F1000180F24E81012A73F1BF
:1031A000000320DA04963DE003460333A4EB0B0250
:1031B000934218DCD9E9022394427AEB03014FF0E1
:1031C0000108BFD3B3F1FF3F08BFB2F1FF3FC0D04A
:1031D0000199A21A6AEB03038A4273F10003B8D281
:1031E000009B012BB5D00025284615B0BDE8F08F17
:1031F000A5EB080554E73346002271E74FF00008BD
:10320000A0E720465146FFF76FFC4FF0000800286A
:10321000E9D0BAF1FF3F08BFB4F1FF3F00F02781CA
:1032200026465746FFF7B2FB049B1840FFF7B4F958
:103230008346FFF71BFC0290FFF78CFB0390FFF720
:10324000B1FB0299A5EB0B0291420DD8ABEB050C3B
:10325000614500F2A7809042C0F0E380604580F0B5
:103260001081039B5B44EA1AD3170020FFF712FD7D
:1032700005460028B7D000990129D9E9022367D073
:10328000B8F1000F40F09180B3F1FF3F08BFB2F1F9
:10329000FF3F00F0D680D9F818304FF0804201206F
:1032A000C2F808051860FFF7E7FDB9F81030002BE9
:1032B00040F0A780BDF81E30ADF8443000238DF8F3
:1032C000483008934FF0FF324FF0FF33CDE90E4AFC
:1032D000CDE90A230DF1200CBCE80F001B4F3E4640
:1032E0000FC6BCE80F000FC69CE80F0086E80F0071
:1032F00020465146FFF75EF9069B01331B1841F14A
:1033000000012846C7E9043115B0BDE8F08F009BE5
:103310002046B3F10108514618BF4FF00108FFF7EE
:10332000E3FB74E7B7F1FF3F08BFB6F1FF3F00F0E2
:10333000A38004964FF0000874E7A31B98427FF720
:1033400039AF50E7D8070020380B0020E00A0020F2
:10335000B3F1FF3F08BFB2F1FF3F12D1B8F1000F48
:1033600029D1B9F81030002B60D1621E6AF1000338
:103370000520FFF78FFC00284AD0012389F811307F
:1033800098E7FEF7F5FED9F818204FF0804C00239F
:103390004FF0FF304FF0FF31C9E902011360CCF864
:1033A0000835DBE7CCF100025EE7B3F1FF3F08BF71
:1033B000B2F1FF3F14D1019BF21A67F1000305201F
:1033C000FFF768FC00283FF40EAF99F8103013B9EE
:1033D000012389F81030009B012B7FF46BAFC4E709
:1033E000FEF7C6FED9F818204FF0804C00234FF0AE
:1033F000FF304FF0FF31C9E902011360CCF8083506
:10340000D9E70520FFF7ECFB0023A9F8103051E7BE
:10341000D9F818204FF080410123C1F80835136016
:1034200048E7039A2A44A2EB0B021DE70520FFF7A9
:10343000D7FBA9F8108098E720465146FFF754FBC8
:10344000E5E6FEF78FFE02F032FBC9E9020122E752
:103450004FF48661702001F00FFC40F23141702082
:1034600001F00AFC40F2BF71702001F005FC4FF43E
:10347000FB61702001F000FC40F23B71702001F014
:10348000FBFB40F6B201702001F0F6FB2DE9F04F96
:1034900085B00F461D4614469DF83880FFF780F929
:1034A000D7F800907E6810EB040E45F1000CCE4575
:1034B0007CEB0603C0F0A480DFF84CB1DFF84CA130
:1034C00008EB4803CDE902EC5B440193019B1C78B7
:1034D000202C3ED04FEA48110B464D464146B4469B
:1034E00098460DE07B7B012B02D0437D012B4CD015
:1034F00044440BEB4404647F202C2AD0D7E9005CC1
:1035000004EB44000AEBC000D0E9032386689B1952
:1035100042F100029D427CEB02024FEA4409E1D2F3
:103520004D464FEA41192819D7E901230AEBC0009B
:103530003E68D0F808809B1942F100029845C368A4
:1035400073EB020212D3437D012B02D07B7B012B54
:1035500003D0012005B0BDE8F08F0091FEF714FE06
:10356000A8EB0608013080450099F2DA25440AEB01
:10357000C505BB7BAA7D4C449A420BEB44040DD994
:10358000647F202CE5D06500CDE70091FEF7FCFDBF
:10359000AE1B013086420099C2DBA9E7D5E903637F
:1035A000AC68E21C46F1000613EB02097A7B46F197
:1035B0000006012A884605F1080302D06A7D012A27
:1035C00007D0029B4B45039BB34119D3C7E9009633
:1035D0007CE70093FEF7D8FDA9EB04040130844298
:1035E000009BEEDA5E68AC68FEF7CEFD431C13EB81
:1035F000040946EBE376029B4B45039BB341E5D2BE
:10360000002005B0BDE8F08F380B0020D80700205F
:103610002DE9F04FDFF8C4A09AF8125005EB4503EE
:10362000534483B093F80190B9F1200F4ED0DFF8E6
:10363000B0802C4F2C4EECB26D0009EB44130AEB1A
:1036400043034FEA441B1B7F013BDBB2052B40D8F1
:1036500018F8031008293CD0EFF3108372B62FB18D
:10366000CDE90013AFF30080DDE900130BEB090295
:103670002C440AEB42025444527F6270A2784A45BD
:1036800004BF2022A27033B9184B1BB10091AFF3D5
:103690000080009962B609EB4903CB4406EBC300F6
:1036A0000AEB4B0B012256F8333040688BF81C2094
:1036B00098479AF8125005EB45035344ECB293F83F
:1036C0000190B9F1200F4FEA4505B6D103B0BDE82E
:1036D000F08F40F20571702001F0CEFA380B002017
:1036E0004C15020000000000D80700200000000078
:1036F0002DE9F04F01EB4103964C14F80390B9F11A
:10370000200F83B00E4607464FEA41083BD1924B4B
:103710000BB1AFF3008002F0CAF9E37C202B054621
:103720008A4608D08D4B811CD3E906034AF100027A
:103730008842934149D3B9F1200F00F08380FFF70D
:10374000FDF898B1864B09EB490203EBC2039A6876
:10375000D3F80CB00192FFF735F9019A40194AF1FC
:10376000000182427BEB010180F0CA803A46284684
:1037700051464B46FFF74EFC002800F08B8084F842
:103780001390022022E002F092F9DFF8D4B1CC4687
:103790004FF0200A750104E0537F202BE2461BD036
:1037A0009C460CEB4C0E0BEBCE0EDEE9023E834248
:1037B00005EB0C027EEB010E04EB4202AE46EBD3AE
:1037C000BAF1200F05D1E145A1D0002003B0BDE83A
:1037D000F08FD4464FEA461E0EEB0C0304EB430376
:1037E00004255A7F08EB060314F803A0E25451465F
:1037F0000EEB010304EB43030A46944508461D778C
:10380000597FF5D108EB06032344724493F802C0B4
:10381000BCF1200F5FFA8CF508BF83F801A008EB1C
:10382000060318BF7544234418BF04EB450504EB99
:10383000420298704FF0200318BF85F81DA08C46F7
:103840005377C0E7D4E90223B3F1FF3F08BFB2F1D9
:10385000FF3F0ED0FEF78CFCA1694FF080420023A1
:103860004FF0FF364FF0FF37C4E902670B60C2F834
:103870000835238A002B3DD10420FFF7B1F9FFF76B
:10388000EBFA0020FFF7F8FA20230120E37403B0DD
:10389000BDE8F08F08EB060209EB461304EB430387
:1038A000A05C5B7FA3544FEA461E034604211A46E0
:1038B000734404EB4303914519775B7FF7D108EB21
:1038C00006032344B0449D78202DE9B218BF71440B
:1038D000964418BF04EB410104EB4E0EA04408BF10
:1038E00058704FF0200318BF487788F802208EF8F0
:1038F0001D306AE70520FFF773F900232382BBE739
:10390000D4E90212B2F1FF3F08BFB1F1FF3F0ED080
:10391000FEF72EFC4FF0FF314FF0FF30C4E90201FB
:103920004FF08042A16900230B60C2F80835238A5A
:1039300053B90420FFF754F9FFF78EFA0020FFF780
:103940009BFA4FF020091AE70520FFF749F90023F9
:103950002382EEE7380B002000000000E00A002080
:10396000D807002038B5164A164D4FF0FF304FF0FB
:10397000FF310023C2E90201C5E90201202142F220
:103980002000A970136082F82830E9741C46288052
:10399000AB742B8205F11C0202F814300134202C88
:1039A000FAD1094801F05EFA084B094A1C70107000
:1039B00001F0C0FAA861FFF7D3F901232B7538BDD8
:1039C000E00A0020380B002011360000D80A002041
:1039D000100B00202DE9F04F87B002F068F8DFF8F7
:1039E000DCA207460D46FFF737FA4FF0FF334FF0E2
:1039F000FF32CAE902239AF82830D3B9DAF818302E
:103A0000DAF82020DAF81C10AD48023341F1000149
:103A10009B1802F5DF62A0FB02024FEA922241F1FD
:103A200000019B1841F100029F4275EB020280F0F9
:103A3000A0814FF0FF304FF0FF31FFF755F800281D
:103A400000F0AC819F4A13780593202B00F0A181F0
:103A50009D4C20231370E374A37C0022CAF800203D
:103A600003EB43025FFA83F8A65C5B00202E04930D
:103A70000BD0DFF8589206EB460309EBC3034FEA7D
:103A8000460BDA7D012A00F0F380049B8F4FCDF8BE
:103A9000048003EB0809202EA1444FEA48151FD0EB
:103AA00002F005F833464FF0200C07E0EA1804EB6B
:103AB00042029C46527F202A61D0134603EB430208
:103AC00007EBC202D2E902E286458A41EED3BCF19D
:103AD000200F53D1B34203D099F80060202EDFD1DC
:103AE0007B4B0BB1AFF3008001F0E1FFE37C202BB7
:103AF00080468B4608D0DAE90623023041F1000106
:103B0000824273EB0101E7D3202E00F08C80FEF798
:103B100015FFA0B106EB460307EBC3039968DA680B
:103B200003910292FEF74EFF0399029A10EB0800F0
:103B30004BF1000C814272EB0C0C80F0EF804046A0
:103B4000594633460122FFF765FA002843D0DDF8D5
:103B50000480059BE674EB1804EB43031A7F022AEA
:103B600000F0BA80FF23A371049B43441C44637894
:103B7000202B40F0958007B0BDE8F08F6346EA182F
:103B800004EB420299F800E0527F89F80020704669
:103B90004FF0040C2A1804EB420201469942507F70
:103BA00082F81CC0F6D199F8022089F80210D3B22D
:103BB000202A18BF5B19294418BF04EB430304EB08
:103BC00041014FF0200214BF83F81DE089F801E0A5
:103BD00003464A777EE7AB1904EB430399F80000EC
:103BE0005B7F89F80030042103461A46EB1804EB8A
:103BF0004303964219775B7FF7D199F8021089F851
:103C00000220CBB220291CBF5B1904EB43032A44DA
:103C100004EB420218BF58774FF0200308BF89F821
:103C20000100537758E7D4E90223B3F1FF3F08BFFF
:103C3000B2F1FF3FDDF804800ED0FEF799FA4FF0A5
:103C40008046A26900234FF0FF304FF0FF31C4E9F6
:103C500002011360C6F80835238A43BB0420FEF72F
:103C6000BFFFFFF7F9F80020FFF706F9202670E7FD
:103C70005B7D012B6CD1033745F100050BEB06038F
:103C800009EBC30303F1080698687168B842A941BB
:103C900028BF9F60049B28BF75604344E65CF4E640
:103CA0000C4B187807B0BDE8F04F01F0F5B80520CF
:103CB000FEF796FF00232382D0E700BFE00A002032
:103CC0009300DC92D80A0020380B0020D80700208F
:103CD00000000000100B00200599334A01EB410160
:103CE00002EBC102527D022A40D0049A424422448F
:103CF0000621197791782029CBB233D02B44059A2D
:103D000004EB430311465A77049A424422446B1849
:103D100004EB4303917020225A7723E7D4E902127F
:103D2000B2F1FF3F08BFB1F1FF3FDDF8048093D04F
:103D3000FEF71EFA4FF08046A26900234FF0FF30D5
:103D40004FF0FF31C4E902011360C6F8083583E77C
:103D5000FEF714FA00288ED1FEF716FAC71945F1BE
:103D600000058BE7059B53701946CDE701221A77B2
:103D7000F8E60E4B0C4A1B78182101FB03F3D1180F
:103D8000D35848680721984740F2B721702000F0C7
:103D900073FF40F2C221702000F06EFF40F2BF219D
:103DA000702000F069FF00BFD8070020D80A00206B
:103DB00070B506460D46FEF7F9F9002821DB134CD5
:103DC000A37C04F11C0CD9B20CEB831C002302E091
:103DD0000133202B13D01CF81320002AF8D103EB59
:103DE000411104EB4104012203EB43012277084A0D
:103DF00042F8316002EBC102D8B2556070BD18467E
:103E000070BD4FF44671702000F036FF380B002073
:103E1000D80700201F2808D80A498B7C00EB4313E1
:103E200001EB43031A7F012A01D0002070478B7CED
:103E300000EB431301EB43014FF0000C104681F8F7
:103E40001CC07047380B0020014BD3E904017047B8
:103E5000E00A00202DE9F04FB84A536893B0C3F34D
:103E6000080302908946002B00F06082103B5BB291
:103E7000002BC0F2D48003F1604303F5614393F853
:103E800000335B090393002B40F0D280AC4B1B78CE
:103E9000202B00F02D8399F800300393002B40F085
:103EA0002C834FF0000A4FF0010BA64ECDF8149072
:103EB0005446D94696F812805FFA88F84FF000030E
:103EC000B371039B002B40F04B8101F0F0FDDDF856
:103ED00014A0002311939AF809201093CDE90E3312
:103EE0009AF800308DF845209AF808208DF8473070
:103EF00005468DF846200F46002B40F0DC80FEF78B
:103F000059FB81468B46FEF719FDDAE90432002899
:103F100040F098808C4919EB01014BF100008B4275
:103F200072EB0000C0F08E8015F1FF3A47F1FF30D0
:103F3000CDF838A00F904FF47A731093DDF808C0D5
:103F40000CEB481306EB43034FEA48191A7F013A7A
:103F5000012A00F2F180023547F10007AA4570EB13
:103F6000070780F0388108EB4802324404211977B2
:103F7000917820294FEA4804CBB200F04C824B44A0
:103F800006EB4303624683F81DC004EB0803334489
:103F9000914406EB49099A70202389F81D300024CA
:103FA0000125EFF31087B94672B6684B0BB1AFF33A
:103FB0000080B279002A40F0B480029BA2463C46C1
:103FC000634F03EB430307EBC3070EAB0FCB08377D
:103FD00087E80F00002D00F0F280039B43B1BAF197
:103FE000000F40F0D581B37CDB4303F00103B374D1
:103FF000FF23B37124B9574B0BB1AFF3008062B606
:10400000B37C03EB43031E447378202B03D0524B45
:10401000187800F041FF284613B0BDE8F08F03F098
:104020000F031A44137D5B090393002B3FF42EAF5B
:1040300099F80030012B7FF634AF40F25A517020CE
:1040400000F01AFE19F127094BF1000B4B4572EBFA
:104050000B0BFFF469AF13F1FF3942F1FF3B11ABDA
:10406000009309AA0AAB48465946FEF707FB059B91
:104070005B6813EB09034BF10001981C0DF123035E
:1040800009AA41F1000100930CABFEF7F7FADDF845
:1040900028A00C9B0B980D9ACDF838A0B3EB0A031F
:1040A00062EB00020F90002A3FF447AF40F2EC4170
:1040B000702000F0E1FDFEF74DFC11AA01380CA9BB
:1040C000FEF7AEFA1E4B1B78202B00F037812349F8
:1040D0008B69D1E90721093342F1000B13EB010988
:1040E0004BF1000BCDE90E9BDDF814909DF84430A8
:1040F000D9F80400023318440AAA10A9FEF790FA6E
:10410000CDF80080D9F810002A463B460EA9FFF7EB
:10411000BDF9002800F00781DDE90EA0CDE90EA071
:104120000CE7002F7FF4C6AE0A4B0BB1AFF3008053
:1041300062B64FF00009BDE6002532E700ED00E071
:10414000D80A0020380B00200040420F0000000079
:10415000D807002000000000100B0020E00A00201B
:10416000DFF8BCC2CDF810900CEB881EBEE80F0043
:1041700008F1010707F001070CEB87150FC5BEE832
:104180000F000FC5BEE80F000FC59EE80F0008EB3B
:10419000480807EB470906EB080B06EB090A85E818
:1041A0000F0036F808209BF8023026F809208AF81C
:1041B0000230B379002B40F02381B84685E6002C0D
:1041C0007FF429AF974B0BB1AFF3008062B628465E
:1041D00013B0BDE8F08F08EB48034FEA4804F55CE4
:1041E000202D00F0668120231A4621464346DFF841
:1041F00038B25446904612E09DF84520012A03D07B
:104200009CF81520012A64D009EB050206EB420256
:10421000527F202A6ED0DDE90E40A846154605EBF8
:10422000450C0BEBCC0C4FEA450ADCF80870DCF8C7
:104230001020DCF80CE0D2194EF1000E944270EB25
:104240000E0ED9D242460C46984657461146049265
:10425000109BDDF838A00F9A07EB050C0BEBCC0C8C
:1042600013EB0A0EDCE9023042F10002734570EBF9
:1042700002020DD39CF81520012A03D09DF8452099
:10428000012A19D0049B994200F011810D46D2E019
:104290002F440BEBC7079DF84630BA7D9A4263D98D
:1042A00009EB050306EB430329465B7F202B00F057
:1042B000BF801D465F00CBE7CDE90631FDF764FF07
:1042C000069B0130A3EB0A038342E1DB0799049BC1
:1042D000D9E706910493FDF757FFE71B01308742AA
:1042E000049B0699AEDB09EB050206EB4202527F06
:1042F000202A90D1984609EB050306EB43035A7F29
:10430000029B4B4406EB43035A774D4406EB4505AD
:10431000029B6B770024994406EB4909032389F833
:104320001C3001253DE6AA463846F7E608230393EC
:1043300099F80030012B7FF6B4AD7EE69DF845304C
:1043400015F1090947F1000B012B3FF4CBAEFDF746
:1043500015FF00287FF4C6AEFDF716FF10EB09002D
:1043600081464BF1000BBDE604EB0803029A33448F
:104370004A44997806EB4202042020291077CAB2F9
:104380003BD04A44029B06EB420253771A46FCE5B7
:10439000264B1B78202B7FF426AE41460220FFF7E8
:1043A000A7F900287FF41FAEB37CDDF808E003EB2B
:1043B000430131440EEB43128F7806EB4202042096
:1043C000202F10775FFA83FC4FEA4312F8B24FEACE
:1043D000430300F08480111806EB410181F81DE0D1
:1043E0007146634433440A4406EB42029970202329
:1043F0005377002C3FF4FFAD02E6029A5A70C4E5F1
:10440000049B002B3FF490AE96F812805FFA88F878
:104410000023B371A8E682F801C06246B5E500BF8B
:10442000540B002000000000D8070020D80A00200C
:10443000049B9D424CD0202D55D009EB050206EB84
:104440004202202B507F45D009EB030106EB4101CE
:104450004A7F48771146052709EB010006EB40002B
:104460008C46AC45417F0777F6D104EB0800304419
:1044700090F802C0BCF1200F5FFA8CF71BBF4F44CD
:1044800006EB470742707A7704EB0802324409EBE7
:1044900005009570029A4A44202506EB400006EB81
:1044A0004202AB42457751770BD01D462DE7202BBA
:1044B0000ED1029B04EB08024B4406EB4303B25CB3
:1044C0005A7704EB0803029AF2540124134622E7B8
:1044D0001D4610E704EB0801725C7054BAE781F8DE
:1044E00001E071467DE74FF4EC71702000F0C4FBF1
:1044F00040F25351702000F0BFFB40F25651702043
:1045000000F0BAFBF0B587B0072813D8DFE800F059
:104510004512121212230414894CA37C03EB4303AB
:10452000E75C01F0C4FA06460D46FEF707FA0028DC
:1045300040F0838007B0F0BD824B834A1B7803EBC9
:10454000430302EBC30052F833304068042107B044
:10455000BDE8F04018477A4C237C002B61D0D4E9A9
:104560000223B3F1FF3F08BFB2F1FF3F00F0D1805B
:104570000120FEF781FC754BD3E90623013A4FF089
:10458000000163F1000305202174FEF783FB00287E
:1045900000F0998001236374CCE7694CD4E90223CD
:1045A000B3F1FF3F08BFB2F1FF3F00F09480A36971
:1045B000644E4FF080420120C2F808051860FEF7F3
:1045C0005BFC3378202B00F08D80604D95F8252022
:1045D000012A56D0FDF7D2FD0346002850D194F8A9
:1045E0009C200132D2B2312A84F89C2000F2A280B1
:1045F0004FF47A7230786946CDE90032CDE9023362
:10460000CDE90433FFF726FC002800F08E8095F8F2
:104610002840012385F82830FFF7DCF985F8284089
:1046200088E7627C002A3BD0A16963744FF0804028
:104630000122C0F808250A607CE7424B1B78202B3A
:104640007FF478AFE37C202B7FF474AF202F3FF40E
:1046500071AF3D4A07EB470302EBC303D3E9027492
:10466000FEF7B0F9801945F1000187428C41BFF493
:1046700061AF374B187807B0BDE8F04000F00CBCD4
:104680003378314A03EB430302EBC30052F8333073
:104690004068002184F89C1007B0BDE8F04018473E
:1046A000284B294A1B78294903EB43034FF0FF3479
:1046B0004FF0FF35C1E9024502EBC30152F8333038
:1046C0004868052143E7A2694FF080410123C1F802
:1046D000083513602EE7FDF745FD01F0E8F9C4E960
:1046E000020164E7A37C03EB4301DAB2635C202B95
:1046F00016D003EB421204EB4202507F6054FF21BC
:10470000A171124D337002211177002285F8282003
:104710005CE7FDF727FD01F0CAF9C4E9020127E7CC
:104720004FF41371702000F0A7FA40F24961702035
:1047300000F0A2FA40F24561702000F09DFA00BF3F
:10474000380B0020D80A0020D8070020E00A0020FB
:1047500044000020F0B5304B1B78202B87B051D09F
:104760002E4CD4E90223B3F1FF3F08BFB2F1FF3F63
:104770004DD1D4E90431C0180DF10B0341F1000112
:10478000009303AA04ABFDF779FF9DF80B20DDE948
:1047900004310F2A94BF002201229B1841F100012D
:1047A000C4E90231FEF7CAF830B9D4E90223052082
:1047B000FEF770FA07B0F0BD01F079F9A36805467D
:1047C0001F1A0E46FEF7FEF8874210D2A568FEF7C4
:1047D000DDF82842D4E90223E9D1013A63F100036C
:1047E0000520C4E90223FEF755FA07B0F0BDFEF735
:1047F000E9F8013D46F1FF312D1841F10001C4E90E
:104800000251E4E740F66C01702000F035FA40F602
:104810006D01702000F030FAD80A0020E00A002074
:1048200008B5FEF733F9002108BD00BFF8B52F4BDE
:1048300093F800E0BEF1200F53D02D4DAB7C95F8DE
:1048400012C003EB43035FFA8CFCEB5C202B26D0F9
:10485000284C4FEA4C1C05E0634405EB43035B7FA7
:10486000202B1CD003EB430204EBC202917D81425A
:10487000F2D80EEB4E0E04EBCE040025A16823699E
:104880005B18E168D2E9024041F10001DE1C41F110
:104890000002B44270EB020204D20020F8BD4FF0D7
:1048A000FF30F8BD6FF00202D31A4FF0FF3262EB17
:1048B00001011C19104B40EB01061F68FEF782F83E
:1048C000A04275EB060008D32046FDF765FE07F110
:1048D00032038342E1D8C01BF8BDBDE8F840FEF7C3
:1048E000C5B840F6C201702000F0C6F9D80A002011
:1048F000380B0020D8070020E00A00202DE9F04FF7
:10490000894B1C7887B0202C019100F00781DFF8DB
:104910001C82874D98F81220AB690393074602EB7F
:104920004202286818F802602B6A029338440DF19D
:10493000130205A9FDF774FE312F03D8012007B03B
:10494000BDE8F08F7B4A04EB440402EBC401D1E9DB
:1049500002B9059CD1F810A0FEF788F8B842EDD353
:1049600014EB0B0449F1000914EB0A0AAC69E9697C
:1049700049F10009BAEB040469EB0109FEF722F8DA
:104980004FF0000BA0427BEB0909D7D3AC6998F834
:104990001210DDF804E085F826E0AAEB0400202ED2
:1049A0005FFA81FC2862E96900F09A804FEA4C13B3
:1049B000604A9A464FF0200B3B4606EB460C02EB52
:1049C000CC0C0019DCF8087041F100018742DCF8DA
:1049D0000C0070EB01014FEA46096DD39CF81510ED
:1049E000012903D095F8251001295AD01F4605202A
:1049F000FEF7F6F898F812404FF0FF304FF0FF3115
:104A0000BBF1200FC5E90201E4B275D004EB44010B
:104A10000BEB441208EB420218F801E0507F08F853
:104A200001006200660171464FF0050C731808EB37
:104A3000430308465845597F83F81CC0F6D1101926
:104A4000404422448378202B5FFA83FC18BFB4448F
:104A500042445E4418BF08EB4C0C08EB460682F853
:104A600002B04FF0200214BF8CF81DE080F801E086
:104A700072772D4B98F812001A7802EB401208EB6F
:104A8000420251772A683A442A60FF2288F80620B9
:104A9000BBF1200F03D0284B187800F0FDF900205F
:104AA0004DE70193FDF770FB3F1B01308742019BEF
:104AB0009CDA95F826E01F4AB14402EBC90999F83F
:104AC000161071451FD90AEB060108EB4101497F19
:104AD000202920D0B346286A0E46D5E906416CE766
:104AE0000520FEF77DF84FF0FF304FF0FF3198F8CA
:104AF0001240C5E90201E4B204EB44044FF0200B7C
:104B000018F80410B5E7DDE90231AA695B189B1AB1
:104B10002B62022013E71F46B34668E740F6F20116
:104B2000702000F0A9F800BFD80A0020380B002040
:104B3000E00A0020D8070020100B0020BFF34F8FA1
:104B40000549064BCA6802F4E0621343CB60BFF329
:104B50004F8F00BFFDE700BF00ED00E00400FA0545
:104B6000094B01225A604FF0FF32C3F80823074B6C
:104B70004FF48042C3F88020BFF34F8FBFF36F8F95
:104B8000C3F88021704700BF00E0004000E100E072
:104B9000094B01225A604FF0FF32C3F80823074B3C
:104BA0004FF48052C3F88020BFF34F8FBFF36F8F55
:104BB000C3F88021704700BF00C0004000E100E062
:104BC000084B0022C3F8FC2F0122C3F8FC2F064B30
:104BD0000222C3F88020BFF34F8FBFF36F8FC3F85B
:104BE000802170470010004000E100E0F8B51B4E46
:104BF000337805460C4617466BBB00F08FF9FCF77F
:104C00003BFF77603472FFF7DBFFFFF7C1FFFFF771
:104C1000A7FF134B002D14BF28461846FDF7CCFA0A
:104C20000546B0B9FEF79EFEFDF7B8FA00F080FE2B
:104C3000002C0CDB04F01F026409A40004F16044A2
:104C400004F5614401239340C4F8803123600123BB
:104C500033702846F8BD4FF0FF35FAE7D80B002037
:104C60005215020008B572B6024B5B6803B1984753
:104C7000FFF764FFD80B00201FB572B6134B5D68B9
:104C800095B9FFF75BFF2346B2FBF6F25C1C002AE6
:104C9000F9D104AEDCB256FA83F303F80C2C0A22E5
:104CA00034B901A8A847ECE7024600230A26EDE73D
:104CB000631E04AEDCB256FA83F3B0FBF2F602FBDD
:104CC0001600303003F80C0C3046E9E7D80B002012
:104CD000074B93F90830002B09DB5A09012103F037
:104CE0001F03994002F14003024A42F82310704723
:104CF000D80B002000E100E0014B1878704700BF9E
:104D0000D80B00202DE9F047DFF8CC90334C344D20
:104D1000344F82B00246012699F800805FFA88F885
:104D2000FF2389F80030B8F1000F01D089F8013075
:104D3000EFF3108172B600236660C4F80031C4F846
:104D40000431C4F80425266039B962B605E0D4F808
:104D5000043133B92B69DB0621D4D4F80031002BA0
:104D6000F5D0D4F80431002BE2D1B8F1000F13D103
:104D700099F80130DBB289F8018003204FF48041BB
:104D8000C4F80803C4F80481C4F80081C7F880118E
:104D900089F80080002BBFD102B0BDE8F0874FF446
:104DA0008043C7F88031EFF3108A72B60323C4F84A
:104DB0000433D4F8003113B9D4F804311BB1BAF17B
:104DC000000FCAD1C1E7019200F09EFE019ABAF12C
:104DD000000FC2D1B9E700BFE40B002000E00040A3
:104DE00000ED00E000E100E0FFF78CBF1A4B4FF44C
:104DF000805270B5C3F88020BFF34F8FBFF36F8F21
:104E0000164C174D0021C4F80011C3F880212E69FB
:104E10002B6943F010032B610123C4F8043306F01F
:104E200010062360D4F800319BB11EB92B6923F022
:104E300010032B610123D4F808056360C4F808331C
:104E40000023C4F80031044B4FF48052C3F8802192
:104E500070BD00F059FEE5E700E100E000C0004051
:104E600000ED00E00B4938B5042301EBC3021579CE
:104E700005F0FF042DB1013BF7D240216920FFF777
:104E8000FBFE41F833000121547194711171D8B2C5
:104E900038BD00BFE80B0020042808B503D9502115
:104EA0006920FFF7E9FE094B03EBC0000379012BF2
:104EB00001D05121F4E7437982790133DBB29A4280
:104EC00018BF4371BDE80840FFF702BFE80B0020A0
:104ED00038B5114D052495F8281005EBC1031A7952
:104EE000012A09D158799A79904205D05A79D2B2DB
:104EF0009A7155F83130984795F828300133DBB274
:104F0000052B04F1FF3428BF002314F0FF0485F8BB
:104F10002830E0D138BD00BFE80B00204FF08052B0
:104F2000034BD2F830111960D2F834215A6070471F
:104F3000140C0020084B1B68083B082B0AD840F2D1
:104F4000211222FA03F313F0010F044B044818BF97
:104F50001846704702487047140C002000E70140D3
:104F60000C050040144B1B68062B03D0013301D005
:104F700020BF7047EFF3108072B6104A13691169B1
:104F800041F0100111610E49D1F80021D1F804114E
:104F90000A4303F0100300D040BF20BF00BF00BF92
:104FA00000BF00BF23B9054A136923F01003136142
:104FB00000B962B6704700BF140C002000ED00E09D
:104FC00000E100E010F0030FC9B2034607D0BAB306
:104FD00003F8011B13F0030F02F1FF32F7D170B594
:104FE000032A01EB012404EB04441ED9161FB50863
:104FF000032E05F1010521D94FEA550E03EBCE0E24
:105000009C46CCE900440CF1080CF445F9D115F0AC
:10501000010F04D025F0010503EB85052C6026F077
:1050200003060433334402F0030232B1012A19703B
:1050300003D0022A597018BF997070BD1D46EDE764
:10504000704700BF014B1B681B68184748000020D1
:10505000014B1B685B68184748000020014B1B6828
:105060009B68184748000020014B1B681B691847C4
:105070004800002038B50420204CFFF7D7FB2368F8
:10508000984228BF184604210546FFF737FC30B187
:105090000138C0B2012820D94FF4AC7108E0236870
:1050A000E068AB420DD1FFF755FB20B94FF49C717E
:1050B0006B20FFF7E1FDE268236822611344E3609F
:1050C00038BD05446089E5600123281A2375FFF780
:1050D00041FB68B94FF4A171EAE70123E068237549
:1050E0006389C01AFFF736FB10B94FF4A871DFE7E8
:1050F0006289E3689B1A2361E2E700BF200C00206D
:1051000008B50C4B1A7802F0FF0312B15A1E1A426E
:1051100003D0F2216B20FFF7AFFD19B1034207D195
:10512000F721F7E723EA00039B0601D1FB21F1E712
:1051300008BD00BF4C00002008B5104B01221A76B4
:10514000042283F8202093F8302093F8310082F075
:10515000010283F821201A68DA615A689A62084AC3
:105160000221117003F11801FEF774FE20B940F21C
:1051700019116B20FFF780FD08BD00BF200C002037
:105180004C00002070B5EFF3108572B6264C94F8F1
:1051900032600023012E84F8323006D0022E1DD05A
:1051A000002E3BD185F3108870BD85F3108894F8EC
:1051B000333003F0FF0123B140F265116B20FFF79C
:1051C0005BFD1420FFF79CFF184B84F833601B78BD
:1051D000012BE9D1BDE87040FFF7AEBF94F8332052
:1051E00012B94FF4BB71E9E7104984F833300B78FA
:1051F000023BDBB21E2B0ED8012202FA03F30C4A4B
:105200001342CFD144F20402134204D020230B7086
:10521000FEF7E0FBC6E74FF4C971CFE785F31088CE
:105220004FF4DC71CAE700BF200C00204C000020C6
:10523000410000402DE9F041274D2B7D04460E46EC
:1052400023B1012B0AD00020BDE8F0816A892B68C8
:105250009B1A98428CBF00200120F5E7FEF7F4FD71
:105260000746884600F011FC2B691E3041F1000210
:10527000DB1948F10001984272EB010C07D21B1AAE
:1052800061EB020121B1AA216B20FFF7F5FC00239D
:105290009C421FD96B891B191C18EB68DB19E41A97
:1052A000322C38BF3224C6F10401C9B22046FFF7C0
:1052B00025FB0028C7D1EB6868891C44201AEC60E4
:1052C000FFF748FA10B94FF45A71DDE76A89EB68C5
:1052D0009B1A2B610120B7E7200C002070B5144CFD
:1052E00094F8345025B140F29B216B20FFF7C4FCA9
:1052F000104B84F8335001261E700F4B0F484FF4AB
:10530000C852C4E900230E4BA360FFF7ABFD29464A
:1053100084F835000B48FEF74BFD202884F8310057
:1053200002D140F2AA21E0E784F8346070BD00BFEA
:10533000200C00204C000020FF3F420F8551000050
:105340000500B700C954000008B5104B93F834208D
:1053500022B940F20A316B20FFF78EFCEFF3108187
:1053600072B693F8322022B1012A0DD040F21A31E0
:10537000F1E7022283F8322001B962B693F83500D2
:10538000BDE80840FFF788BD0022F3E7200C0020AD
:105390000B4B93F8343010B523B940F229316B2010
:1053A000FFF76AFCEFF3108472B6064B1A78102AE6
:1053B00003D108221A70FEF70DFB04B962B610BDC6
:1053C000200C00204C000020034B1B78042B01D143
:1053D000FFF730BF002070474C00002070B5134B22
:1053E0001B78042B1FD1124E337D1BB97389306893
:1053F000C01A70BD00F049FB10F11E0441F1000518
:10540000FEF722FD33691B1841F100019C4275EB48
:10541000010208D2181B61EB05010029E9D0AA217D
:105420006B20FFF729FC0020E3E700BF4C000020C1
:10543000200C0020014B83F830007047200C002026
:1054400038B5144C94F8343023B940F2DF216B2086
:10545000FFF712FCEFF3108572B694F8323023B1E7
:10546000022B0DD040F2F221F1E7012384F8323013
:1054700005B962B694F83500BDE83840FFF70CBDB9
:10548000054B1B780022042B84F83220F0D111F058
:10549000D3FCEDE7200C00204C00002008B5094BA0
:1054A00019781029CAB207D0202A05D0042A04D1BD
:1054B00010221A7011F0D0FC08BD40F2D7116B20F9
:1054C000FFF7DAFB4C00002070B50C46FFF7A8F997
:1054D000062C48D8DFE804F00451512823645D000D
:1054E00001210220FFF70CFE304B314A93F83310B4
:1054F00079B1042111701A68DA6000221A7593F8E4
:105500003230022B01D011F097FCBDE87040FFF75C
:10551000B1BD20231370BDE87040FEF75BBA40F2C6
:1055200023216B20FFF7A8FB204E96F83330D3B130
:105530001F4B1B78042B17D100F0A7FA05460C4629
:10554000FEF782FC337D012B0BD13269121841F139
:105550000003954274EB030303D3BDE87040FFF7EB
:105560009DBF0AF097FB70BD124B0222C3F880204A
:10557000BFF34F8FBFF36F8FF5E701210220FFF7D5
:10558000BFFD0A4B93F8333033B1BDE87040FFF7ED
:10559000D3BD01212820F2E7054B01221A70E2E772
:1055A000024B1B7D012BB0D1D7E700BF200C0020A0
:1055B0004C00002000E100E07BB972B90029BEBFB9
:1055C00000204FF0004106E008BF00281CBF6FF02C
:1055D00000414FF0FF3000F057B8ADF1080C6DE915
:1055E00004CE002909DB002B1ADB00F0A1FADDF85C
:1055F00004E0DDE9022304B07047404261EB410161
:10560000002B1BDB00F094FADDF804E0DDE9022357
:1056100004B0404261EB4101524263EB43037047E7
:10562000524263EB430300F083FADDF804E0DDE966
:10563000022304B0404261EB41017047524263EBE8
:10564000430300F075FADDF804E0DDE9022304B05D
:10565000524263EB4303704753B94AB9002908BF6C
:1056600000281CBF4FF0FF314FF0FF3000F00CB8A6
:10567000ADF1080C6DE904CE00F05AFADDF804E053
:10568000DDE9022304B07047704700BF034613F8FA
:10569000012B002AFBD1181A0138704708B5FFF713
:1056A0003DFCBDE80840FCF7E7B9801A00F30700AD
:1056B00038B540B20D4659B21446FCF7CDF9002377
:1056C00028706B70204440B238BD7FB5A0F10B0448
:1056D0000E46E1B20F29154603D950216420FFF789
:1056E000CBFA0DF10B0332460420FCF771F908B137
:1056F0005921F3E704EB840404F6651300909BB290
:105700009DF90B00042203A9FCF750F99DF80C3019
:105710002B709DF80D306B7004B070BD00230360DA
:1057200070477047002070474FF0FF3070474FF0D0
:10573000FF30704770474FF0FF30704700207047D0
:10574000002070470023037070479DF8003000224E
:10575000FFF7ABBF4FF0FF307047002070474FF0AE
:10576000FF3070474FF0FF3070477047C0B270474E
:10577000C0B208B520B94FF0804301221A6008BDBD
:105780005121B520FFF778FA0020FCF7CDB94FF092
:105790008043D3F8080400F0010070474FF08043C5
:1057A000D3F8140400F0010070474FF08043D3F8A1
:1057B0001C0400F0030070474FF08042D2F8183408
:1057C000D2F81824C3F3004302F00302824214BF4C
:1057D000002003F0010070470020FCF719BA0020F8
:1057E000FCF744BA0020FCF79FB938B5054691F89C
:1057F00027000C46FEF70EFB18B9EA216A20FFF7D6
:105800003BFA0023A38484F826300921236A284622
:10581000984718B103780BB1EE21EFE738BD08B512
:105820004268034611441A785960012AA1F15000D8
:1058300006D1FEF78FFF40B9CE216A20FFF71CFA90
:10584000FEF788FF08B9D321F7E708BD70B5044615
:105850000D4619B9012384F8293037E00E78032E5C
:10586000F8D8DFE806F0350233114868C72801D8B8
:1058700000262EE00421FFF741F80028F8D16968DE
:105880002046FFF7CCFF24E090F82460F6B94D687D
:105890002846FCF7D9FC0028DCD02B78DBB90122A4
:1058A00022702B79003B18BF012363726B79002BA8
:1058B00014BF042302232372AB686F336360EB6869
:1058C0002361032384F8263084F82520FCF7E8FCC4
:1058D0000226304670BD94F82630052B04D04FF4D4
:1058E000C9716A20FFF7C8F926702B7994F8270050
:1058F000003B18BF012363726B79002B14BF042394
:1059000002232372EB68A9686F336360D4E906321F
:105910005B1842EBE172C4E90432042384F82630B8
:105920002146FEF797FA0028D0D14FF4CA71D8E784
:1059300070B5FCF709FE002405462646E0B2854214
:1059400000D870BDFCF706FE0134868480F826601E
:10595000F4E7F8B504460D46FCF7F6FD00270646C9
:10596000F8B2864204D8082D0CD96FF0150008E073
:10597000FCF7F0FD90F826300137002BF0D04FF007
:10598000FF30F8BD2CB129462046BDE8F840FCF7B1
:10599000EDBD21462046F8E710B50446FCF7DAFDD8
:1059A000014688B190F824308BB990F8263073B155
:1059B000013B012B04D82046FFF717FF002010BD44
:1059C000012380F82430F9E76FF00100F7E76FF06A
:1059D0002200F4E770B50D46FCF7BCFD0446002834
:1059E00048D090F82660731E012B49D8002D44D072
:1059F0002846FCF729FC00283FD02B78FBB901236F
:105A000023702B79003B18BF012363726B79002B45
:105A100014BF042302232372AB686F336360EB6807
:105A20002361032394F8270084F826302146FEF7EB
:105A300011FA40BB40F2BF216A20FFF71DF9022E88
:105A40001ED1002323702B79003B18BF0123637202
:105A50006B79002B18BF04262672EB68A9686F3398
:105A60006360D4E906325B1842EBE172C4E90432A8
:105A70000423D7E76FF0010070BD6FF01500FBE75E
:105A80006FF02200F8E70020F6E700F000B837B525
:105A90006846FCF7A3FFFCF75DFF0446DDE900055F
:105AA000FCF77AFD0021E5FB040103B030BD07B52A
:105AB0006846FCF793FFFCF75DFFDDE9003200214B
:105AC000E2FB0031184603B05DF804FB03460020FA
:105AD00018707047EFF3108272B603780121DBB2C1
:105AE000017002B962B6012B0CBF6FF022000020DA
:105AF0007047EFF3108372B60022027003B962B6EA
:105B000000207047FFF7E4B9FFF72CBAFFF72ABA75
:105B100000280CBF6FF01500002070470020704770
:105B20000723037000207047002070470020704753
:105B30002DE9F04786468C460846089E1546744671
:105B40001946002B40F0C2808542B2FA82F245D954
:105B50004AB1C2F1200300FA02FC2EFA03F3954089
:105B600043EA0C0C94404FEA154EA8B2BCFBFEF879
:105B7000230C0EFB18CC08FB00F943EA0C439945B3
:105B800028D9EB1808F1FF3704D2994502D9A8F1BA
:105B900002072B44A3EB0903A4B2B3FBFEFC0EFBEC
:105BA0001C330CFB00F044EA0344A04214D92C1926
:105BB0000CF1FF3304D2A04202D9ACF102032C4411
:105BC000241A43EA07401EB1D440002334607360B6
:105BD000BDE8F0874746DDE76346F1E792BB431B2C
:105BE00001214FEA154EAFB2B3FBFEFC200C0EFBB9
:105BF0001C330CFB07F840EA0343984562D9EB18C5
:105C00000CF1FF3004D2984502D9ACF102002B44CC
:105C1000A3EB0803A4B2B3FBFEFC0EFB1C330CFB8E
:105C200007F744EA0344A7424ED92C190CF1FF337D
:105C300004D2A74202D9ACF102032C44E41B43EA8C
:105C40000040C0E7C2F1200320FA03F195409040E4
:105C50002EFA03F303434FEA154EAFB2B1FBFEFC3D
:105C60000EFB1C10190C0CFB07F841EA004188459B
:105C700004FA02F422D969180CF1FF3004D28845E5
:105C800002D9ACF102002944A1EB08019BB2B1FB9F
:105C9000FEFC0EFB1C110CFB07F743EA01439F427D
:105CA0000ED9EB180CF1FF3104D29F4202D9ACF1AE
:105CB00002012B44DB1B41EA004192E76046E3E727
:105CC0006146F7E76046A3E76346B7E7834206D934
:105CD00016B9002108467BE7C6E900E0F9E7B3FA08
:105CE00083F78FB9834201D3724508D8BEEB020413
:105CF00060EB030301209C461EB9002168E738468B
:105D0000FAE7C6E9004CF8E7C7F1200CBB4022FADD
:105D10000CF41C432EFA0CF120FA0CF3B8400143AA
:105D20004FEA14490EFA07F5B3FBF9F81FFA84FE9F
:105D300009FB18300B0C08FB0EFA43EA00439A45A6
:105D400002FA07F240D9E31808F1FF3004D29A456D
:105D500002D9A8F102002344A3EB0A0389B2B3FBE2
:105D6000F9F809FB183308FB0EFE41EA03418E45A2
:105D70002CD9611808F1FF3304D28E4502D9A8F15D
:105D80000203214443EA0040A0FB0298A1EB0E016C
:105D90004145CE46434602D306D14D4504D2B9EB28
:105DA000020E68EB04030138002EA6D0B5EB0E02FC
:105DB00061EB030101FA0CFC22FA07F34CEA03033E
:105DC000F940C6E9003198E74046C5E74346D9E7C0
:105DD000014B1B68184700BF00010020014B1860F1
:105DE000704700BF0001002007B50B4600210246A6
:105DF0000091034800F06AF803B05DF804FB00BFAF
:105E0000D15D0000F0B5094E016802460A27002066
:105E10000B4601311C78355D6D0701D41360F0BD70
:105E200007FB0043A3F13000F2E700BF6926020040
:105E30002DE9F84F15469A46D378234A12F803B055
:105E40006F2B81460F460BF0030B2BD026D8582B17
:105E50000CBF10260A26DDF828803246002348466B
:105E60003946FFF7F9FB092A08F1FF38D4B21ED8EA
:105E70003034B145E4B277F1000788F8004001D32F
:105E8000D04511D82B789B0605D5082E15D1AB78B7
:105E900043F00803AB704046BDE8F88F03F0F7030A
:105EA000702BD5E70826D6E781460F46D5E7BBF12C
:105EB000010F0CBF37345734DBE7102EEBD1AB7832
:105EC00043F01003E6E700BF692602002DE9F04F1A
:105ED00097B08A46039016461C460025307808B9CC
:105EE000284656E325280AD0039B514698470028A8
:105EF000C0F24F83731C01350493049EEEE7182211
:105F0000002110A81AF017FF7378252B00F0A3804A
:105F10000023711C98469E469C4618460F4611F871
:105F2000012B2B2A00F0C68000F2BD80202A00F051
:105F3000C480232A00F0C4802BB19DF8483043F080
:105F400040038DF84830B8F1000F05D09DF8483077
:105F500043F020038DF84830BEF1000F05D09DF8C6
:105F6000483043F010038DF84830BCF1000F05D0E5
:105F70009DF8483043F008038DF8483028B19DF86B
:105F8000483043F004038DF848309DF8483003F062
:105F90004401442903D16FF386138DF848309DF8EE
:105FA0004830099743F080032A2A8DF8483040F0A2
:105FB0008C809DF8493043F001038DF849307B1CFB
:105FC0001A782E2A9DF849200CBF0121002161F387
:105FD00041028DF849200CD15A1C09925A782A2A7C
:105FE00040F083809DF8492042F004028DF849205A
:105FF00002331A786C2A00F0A48000F28680682AA6
:1060000000F08C806A2A00F0A5804C2A00F0AA805B
:106010001A4612F8013B0492782B9DF849208DF81E
:106020004B3000F217816D2B00F2A980692B00F232
:106030001181572B00F2BE80412B03D0453B022B30
:1060400000F208819DF84A30042262F302038DF8C1
:106050004A300123CAE08DF84B30B31C04939DF8FD
:106060004930D90740F1FD8054F8048BB8F1000F96
:1060700007DA9DF8482042F004028DF84820C8F164
:1060800000085A0740F1F68054F804BBBBF1000F3A
:1060900080F2F5809DF849306FF341038DF8493067
:1060A0004FF0FF3BEBE02D2A0DD0302A7FF444AFB8
:1060B000012333E74FF0010C30E74FF0010E2DE7DD
:1060C0004FF001082AE7012028E709A8FFF79AFE08
:1060D000099BBB423FF474AF9DF848201390C00F5A
:1060E00060F341028DF848206AE709A8FFF78AFEAD
:1060F0009DF848301490C3F3400242EAD07262F334
:1061000041038DF84830099B73E7742A26D07A2A18
:106110007FF47EAF9DF8492006210CE05A78682A6A
:106120009DF8492006D1012161F3C6028DF849206E
:1061300002336DE7022161F3C6028DF84920013375
:1061400066E75A786C2A9DF8492001D10421EBE7D3
:106150000321F0E79DF849200521ECE79DF849204F
:106160000721E8E7BDF8482022F4F04222F00202BD
:1061700042F4804242F00202ADF84820DFE76E3B75
:10618000D9B201238B4040F282410B4238D113F047
:10619000240F52D1DF075DD59DF84A30032161F30A
:1061A00002038DF84A3002F07803A3F14000434225
:1061B00043411BE0A3F15801C9B2012000FA01F1EB
:1061C00011F4624F7FF43EAF40F6010739421DD112
:1061D00011F4043F3ED09DF84A3060F3020302F010
:1061E0007802402A8DF84A3034D000239DF84820A8
:1061F000C2F340010B4363F341028DF848202EE7C0
:106200009DF84A30022161F30203E8E79DF84A1045
:10621000022002F0780260F30201402A8DF84A1051
:1062200002BF9DF8481041F001018DF84810632B22
:10623000DBD1131E18BF0123D8E79DF84A30032194
:1062400061F3020312F0780F8DF84A3014BF012376
:106250000023CBE79DF8483043F001038DF8483028
:10626000C3E79DF94820002AB4BFDDF84C804FF009
:10627000FF3806E79F077FF513AFDDF850B09DF8B4
:1062800049100023CDE913339DF84A3003F007038A
:10629000012BC1F3C30132D1CB1E042B04D8DFE89C
:1062A00003F0204545202000236801294FEAE372CE
:1062B000CDE910321BD19DF94030DA17CDE910320B
:1062C00004349DF8483013F003074FD0049B039823
:1062D0003246514614F056FE0028C0F25A81054459
:1062E0000BE654F8043BDA17CDE91032E9E702294E
:1062F000E6D11AB243F3C033CDE91023E0E7022B15
:1063000024D1CB1E042B04D8DFE803F0181010189A
:106310001800012954F8043B4FF0000214D0022960
:10632000CDE91032CDD19BB21093CAE7073424F0E7
:106330000704F4E80223CDE91023C2E754F8043B34
:10634000109300231193BCE7DBB2CDE7042B08D1F7
:10635000073424F00704D4E900230834CDE91023DE
:10636000AFE7032BADD154F8043BDDE79DF84B00BC
:1063700078283FF6C2AD62281ED8252850D058286C
:106380007FF4BBAD0DF13E030093DDE910010AABD4
:1063900012AAFFF74DFDBBF1000F814680F2C280CB
:1063A000B9F1000F3FF4A9AD0DF13E06A6EB0903CC
:1063B000002F7BD0013379E0633815283FF69DAD7F
:1063C00001A252F820F000BF9B640000F9640000B5
:1063D000FB5E0000FB5E0000FB5E0000FB5E000059
:1063E000F9640000FB5E0000FB5E0000FB5E000045
:1063F000FB5E0000476500001F6500005964000057
:10640000FB5E0000FB5E000031640000FB5E0000EC
:106410001F650000FB5E0000FB5E00001F650000C2
:10642000039B514698470028C0F2B380013564E5CC
:10643000BBF1000FDDF840900ADB594648461AF0E0
:1064400016FDB9F1000F3FF458AD09EB000620E04E
:106450004846FFF71BF9F8E71098002800F08780FE
:106460000DF13E060AAB009612AA0021FFF7E0FCF0
:10647000BDF84A3003F0EF0343F4F04343F0100358
:10648000BBF1000F8146ADF84A304ADA00283FF4EC
:1064900034ADA6EB0903002708E0109B8DF82830E7
:1064A00000270DF129060DF1280901239DF84A1056
:1064B00011F01002069260D00233139A0592134431
:1064C0004A0644BF14995B18B8F1000F6EDDA8EBC3
:1064D00003089DF848305807C3F3800B66D459066B
:1064E0005AD53FB1039B514638469847002850DBA8
:1064F00001355F46302350E01E075CBFC3F3001335
:106500005F01DDE9102348BF2B27002BBFF63AAF10
:10651000524263EB4303CDE910232D2732E70027D6
:1065200030E700279DF848100DF13E03A3EB090367
:106530006FF386119B458DF848107FF631AFABEBBA
:10654000030313932CE7109B07293FF6D6ACDFE833
:1065500001F00C04060C08080C0C1D70CDE41D8025
:10656000CBE4EA17C3E90052C7E41D60C5E4314E2D
:106570000746A6F10509052398E7080748BF013338
:106580009BE7184607935146039B98470028079BB3
:1065900004DA17B0BDE8F08F2023C346594600291E
:1065A0000BF1FF3BEDDC45446D1AD84637B1039B38
:1065B0005146384698470028EBDB01359DF84A30B4
:1065C000DA0601D41B0706D5039B514630209847B5
:1065D0000028DEDB0135069B3BB19DF84B00039B99
:1065E000514698470028D4DB0135059F2F4406E02B
:1065F000039B5146302098470028CADB01357B1B9E
:10660000002BF5DC039833464A46514614F0BAFC99
:106610000028BEDB0544A844A8EB0503002B7FF748
:106620006CAC039B5146202098470028B1DB013514
:10663000F2E700BF6920020008B50446EFF31183BA
:10664000402383F31288BFF36F8F04F0B5FE20461A
:1066500002F00AF8024814F07EFC14F0FFFFFCE799
:106660006A2002002DE9F047858B044628079046F2
:1066700011D4022905F0070540F0CC80204614F023
:10668000B3FC78B10138A18B042811D8DFE800F001
:10669000C2106D85950001290CBF45F0100545F02D
:1066A0002005A58388F31188BFF36F8FBDE8F087BD
:1066B00001F0070AAA4500F0A5800027B9463E462A
:1066C000A368002B00F0BC8041F00801A18388F38F
:1066D0001188BFF36F8FA168002900F0BA800D68A0
:1066E000002900F0B680D1F8048033465246204697
:1066F000C047002D76D02B6829461D46F0E701F0F3
:1067000007035A1F012A1BD8002221F00701062B7C
:10671000276889B2C4E9002209D13B4603E0E28B35
:106720000132E2831B68002BF9D141F00201A18301
:10673000204614F059FC00287AD041F0200176E080
:10674000042B0AD121F0070189B2A183204614F05D
:106750004BFC10B141F02001A183A18B01F0070A8D
:10676000AA454FD00027B946AAE7236921F00701BF
:1067700041F00601062DD3F80090A1832DD1B9F187
:10678000000F3FD041F00801A18388F31188BFF3C7
:106790006F8F3A492046C84729E021F00701236955
:1067A00041F0040189B2042DD3F80490A183E6D00E
:1067B00000273E464FF0040A82E721F007012369D3
:1067C00041F0050189B2052DD3F80890A183D6D0F8
:1067D00000273E464FF0050A72E700273E464FF07D
:1067E000060A6DE72B4687E7B9F1000FD1D1EFF329
:1067F0001188402383F31288BFF36F8FA38B23F09C
:106800000803A383A58BEA062ED525F01003A383E6
:1068100005F00705A669A18B002EBFF670AF002317
:106820002768C4E9003321F0070141F00101A18389
:10683000A18B01F0070AAA454FF000097FF440AF91
:10684000002F9CD041F00801A18388F31188BFF389
:106850006F8F002FC8D03D683946334652462046D8
:1068600014F0EEFB2F46F4E7AB067FF51BAF25F0E7
:106870002003A38305F0070500E700BF6DB001000A
:10688000014B03600020704798150200F0B40D4BD7
:106890000D4E5F6A0D4BB34203D36FF08500F0BC21
:1068A00070475C68BC420AD31D6945B194F802C0C8
:1068B0008488E4B2A44502D12B46F0BC18472433A7
:1068C000E9E700BF50310020340700201007002006
:1068D0002DE9F047144CDFF85480DFF8549005465A
:1068E0000E461746444503D36FF08500BDE8F08798
:1068F0006268D9F824309A4213D3A3698BB1A9886E
:106900009078C9B2884205D13A4631462846BDE85A
:10691000F04718475279012A03D13A4631462846B2
:1069200098472434DEE700BF10070020340700201A
:10693000503100202DE9F0410B4CDFF83080054646
:106940000E461746444502D36FF0850009E063699F
:106950000BB92434F6E73A463146284698470028D2
:10696000F7D1BDE8F08100BF1007002034070020F8
:1069700010B5044614F0FAFE10F1780F00D050B9AB
:10698000054A204614F0D8FCD2F8C43023EA0003AC
:10699000C2F8C430002010BD50310020024B00224C
:1069A0001A605A60704700BF0B32002070B50B4B65
:1069B0000B4CA34201D3002070BD196A1E7F002238
:1069C0000439D5B2AE4201D82433F2E7013211F8CE
:1069D00032508542F5D10120EEE700BF10070020BC
:1069E0003407002073B58488E4B263060D468DF841
:1069F000074007D02046FFF7D9FF78B10D4B93F839
:106A0000BA0058B10B4E204655B102F063FAF36953
:106A10001BB10DF1070108209847012002B070BD9D
:106A200002F080FAF369002BF7D00DF1070109207D
:106A3000F2E700BF5031002008B509480378C3F3DE
:106A400041130A3350F823303BB100F1080200F142
:106A500010019847C043C00F08BD1846FCE700BFAF
:106A60005031002004282DE9F14FDFF898900446BA
:106A70000F4616D001282DD1DFF88C8098F8B93058
:106A800043B300F0B1FD214D4D4520D2D5F820B0E3
:106A90004FF0000A2B7F5FFA8AF6B34204D8243500
:106AA000F2E7FFF77BFFE7E70BEBC6060AF1010A07
:106AB000307914F05BFE0246307914F03DFCD8F8D2
:106AC000C430002A23EA0003C8F8C430E2DA002305
:106AD00088F8B9300D4D4D4508D30B4B1B6A6BB18F
