:101000000000042011130500391305003B130500EF
:101010003D1305003F1305004113050000000000CB
:101020000000000000000000000000004313050065
:101030004513050000000000471305004913050093
:101040009DE3040071CC04004B1305004B13050015
:101050004B1305004B1305004B1305004B13050004
:101060004B1305004B1305004B1305004B130500F4
:101070004B130500657800004B1305004B1305006A
:101080004B1305004B1305004B1305004B130500D4
:101090004B1305004B1305004B1305004B130500C4
:1010A0004B1305004B1305004B1305004B130500B4
:1010B0004B1305004B13050000000000000000006A
:1010C0004B1305004B1305004B1305004B13050094
:1010D000056C00004B1305004B13050069F3040079
:1010E0004B1305004B1305004B13050000000000D7
:1010F000000000004B130500000000004B1305002A
:1011000000000000000000000000000000000000DF
:1011100000000000000000000000000000000000CF
:1011200000000000000000000000000000000000BF
:1011300000000000000000000000000000000000AF
:10114000000000000000000000000000000000009F
:10115000000000000000000000000000000000008F
:10116000000000000000000000000000000000007F
:10117000000000000000000000000000000000006F
:10118000000000000000000000000000000000005F
:10119000000000000000000000000000000000004F
:1011A000000000000000000000000000000000003F
:1011B000000000000000000000000000000000002F
:1011C000000000000000000000000000000000001F
:1011D000000000000000000000000000000000000F
:1011E00000000000000000000000000000000000FF
:1011F00000000000000000000000000000000000EF
:1012000010B5054C237833B9044B13B10448AFF340
:1012100000800123237010BDF801002000000000B1
:101220005CB4050008B5034B1BB103490348AFF399
:10123000008008BD00000000FC0100205CB4050037
:10124000A3F5803A704700BF174B002B08BF134B24
:101250009D46FFF7F5FF00218B460F461348144AC1
:10126000121A50F067FE0E4B002B00D098470D4B22
:10127000002B00D098470020002104000D000D48ED
:10128000002802D00C48AFF3008050F0E1FD2000B0
:10129000290000F07FF950F0C7FD00BF00000800F2
:1012A000000000000000000000000420F801002001
:1012B000043001200000000000000000094B1A88E3
:1012C00072B9094A1188094A1288C2F50060814240
:1012D000C8BF81B2198019B10548104406F036BD67
:1012E000704700BF180400201C0C00201A0C0020BE
:1012F0001A0400200749084A0B8810880344C3F3E6
:101300000A030B8005490B881B1A0B8000231380EE
:10131000FFF7D4BF1A0C0020180400201C0C00207A
:101320002DE9F047194FDFF86C9006460D464FF057
:10133000000AB8463C88B9F800001549C4F50064B5
:10134000A4B2AC4228BF2C4606EB040C66450CD078
:10135000B8F8003016F801EBC218C2F30A020133E4
:1013600001F802E0A8F80030F0E72D1BADB25444BC
:10137000FFF7A4FF1FFA84FA2DB106F0D1FC10B9D3
:10138000FFF7B8FFD6E75046BDE8F0871C0C0020F9
:101390001A0400201A0C00202DE9F743354D2E8841
:1013A0000F461346A846CEB90A4633484FF40061AB
:1013B00050F062FFB0F5006F044607D32F4839465E
:1013C00006F0C4FE204603B0BDE8F0832C4B288015
:1013D0001E802C4B1E80FFF771FFF3E7284A26483A
:1013E000158801932E44C6F30A06B5428CBFAD1B87
:1013F000C6F50065ADB2914630440A46294650F024
:101400003BFF041E04DA1D48394606F09FFEE2E762
:10141000A54205DDB8F800302344A8F80030DAE72B
:10142000B4F5006F22DAB8F800306BB1FFF746FF71
:1014300006F076FC10B9FFF75DFFF4E706F04FFD0C
:101440000146114806F082FE019B0B483A464FF4D4
:10145000006150F011FF041E00DCFEE7094AA8F805
:1014600000400023A9F800301380B4E7074839464C
:10147000CBE700BF1C0C00201A0400200835050033
:101480001A0C0020180400202935050042350500FB
:10149000F8B52A4F2A4C05464618AE424CD92B784F
:1014A0000D2B26D011D8082B11D00A2B1DD0238844
:1014B000B3F5FF7F30D801212846FFF731FF23889D
:1014C0005A1C228029781F4A0DE07F2BEFD12388F8
:1014D00013B303211C48FFF723FF2388194A013B5C
:1014E0009BB223800021D15416E0184B1B780D2BA2
:1014F00012D002213846FFF713FF2388114900223A
:10150000581ECA54944601445BB902B123800D4869
:1015100001F076FC002323800C4B15F8012B1A7088
:10152000BBE708780A2801D00D28EED1013B01F86D
:1015300001C99BB20122E7E7F8BD00BF5F35050096
:1015400016040020150200205C350500140200205E
:10155000FFF7D0BE07B50A49019000230B80094967
:101560000B8009490B8009490B8006F0D1FB019AD9
:101570000749104603B05DF804EB01F03FBC00BF23
:10158000160400201A0C00201C0C00201804002057
:101590009913000070B505460E463146284606F000
:1015A00065F806F09EFC0446FFF7D4FF06F088F8C5
:1015B00018B1204606F09FFCEFE7204606F052FEE9
:1015C000204606F083F8F1E708B5034A03490830DE
:1015D00004F05DFE002008BD61350500C738050038
:1015E00010B50C6824B9806806F087FC204610BD51
:1015F0002320FCE7843002F059BB00002DE9FF41B5
:101600000D6804460E4685B908306549039004F01C
:101610003EFE6449039804F03AFE6349039804F0DF
:1016200036FE284604B0BDE8F0815E49304623F01E
:1016300097FF002843D07368002B32D154F8080F6D
:101640005A4EDFF88C8106F05DFD59490268054667
:10165000204604F01CFE10273368EB580093736893
:1016600042460421204604F02FFE013F06F1080601
:10167000F2D16A6C4F49504EDFF85481204604F095
:1016800006FE10273368EB58009373684246042126
:10169000204604F019FE013F06F10806F2D10025AC
:1016A000BFE74649301D23F05BFF08B90725B8E7BF
:1016B000B568002DFAD1A06806F028FDB1E73A49D7
:1016C000304623F04DFF00283FD0736883BB54F8A9
:1016D000080F3B4DDFF8FC8006F086FF0A27064620
:1016E0002B686A68F35A4146204604F0D0FD013F5A
:1016F00005F10805F4D1334FDFF8DC8005257A6861
:101700004146204604F004FD57F8083B3344D3E932
:101710000023204604F048FD013DF0D120462A492F
:1017200004F0F6FCD6E91023204604F03DFD78E7EE
:101730002249301D23F014FF0028B7D0B568002DD2
:10174000B4D1A06806F055FF6BE71549304623F089
:1017500007FF0028AAD07368A3B954F8080F1B4DDF
:10176000DFF86C8006F035FF042607462B686A68B0
:10177000FB584146204604F08AFD013E05F108056C
:10178000F4D18CE70D49301D23F0EAFE00288DD0FE
:10179000B568002D8AD1A06806F01FFF41E700BFA1
:1017A000753B05006A3505006E35050000490500EA
:1017B000723505008735050080480500435D05004A
:1017C0001048050080490500AB350500604805005C
:1017D0007F350500943505009B35050008B5806808
:1017E00006F093FB002008BDF0B50E4689B04149D4
:1017F0000546304623F0B4FE074600B10436336890
:1018000013BB55F8080F3C4E06F095FB0446002C20
:1018100051D02146284604F0D1FC87B1607C04F009
:1018200077FEA17C237CC1F340010191A17C01F0F2
:101830000101024600912846314604F069FC284621
:1018400004F074FC6469E2E72C49304623F088FE1A
:1018500090B1706802A923F058FE58B9069BA86899
:101860009B0C9B0443F4403343F4507302A906934A
:1018700006F069FB09B0F0BD2149304623F070FE47
:10188000044650B1706802A923F03FFE0028F1D150
:10189000A86802A906F05BFBECE71A49304623F082
:1018A0005FFE074648B155F8080F06F0D9FD01461E
:1018B000284604F095FC2046DCE71349304623F027
:1018C0004FFE044648B155F8080F06F0C2FD014628
:1018D000284604F085FC3846CCE70C49304623F016
:1018E0003FFE20B155F8080F06F0B6FDDFE72320D4
:1018F000C0E700BFC0350500C3350500EC35050065
:10190000343B0500F0350500FA350500FF350500CC
:1019100030B585B0044602A9806806F006FE05468B
:10192000F0B904F10800029A0F49019004F0AFFCED
:101930009DF80C200D49019804F0A9FC9DF80D209C
:101940000B49019804F0A3FC9DF80E200949019869
:1019500004F09DFC9DF80F200749019804F097FCC6
:10196000284605B030BD00BF053605001736050016
:101970002C360500253605003D3605000B68F7B509
:1019800005460E46002B3AD10446444F54F8080F42
:10199000434E06F068FE03784249032B96BF424A45
:1019A000424A52F823200546204604F070FC6B782A
:1019B0003F4913F0010F14BF3A463246204604F067
:1019C00066FC6B783B4913F0020F14BF3A4632466F
:1019D000204604F05CFC6B78374913F0040F14BF09
:1019E0003A463246204604F052FC204695F9022041
:1019F000324904F04CFC0024204603B0F0BD2A4FCD
:101A0000002457F8041B304623F0AAFD002840D0DC
:101A100070688DF804400DF1030123F0CEFD0446FB
:101A20000028E9D19DF805309DF80320B06862F3E5
:101A300000030DF103018DF8053023F0BEFD0446CF
:101A40000028D9D19DF805309DF80320F06862F395
:101A500041030DF103018DF8053023F0AEFD04467E
:101A60000028C9D19DF805309DF80320306962F344
:101A700082030DF106018DF8053023F027FD0446A1
:101A80000028B9D173693BB9A86801A906F0EFFD38
:101A9000B2E70134042CB4D10724ADE75236050077
:101AA000563605005936050094460500605F05006E
:101AB0006F360500853605009B360500B1360500FA
:101AC00070B50C6886B005460E4664B955F8080F27
:101AD00002A906F059FE2846102202A904F048FB8C
:101AE000204606B070BD4B685BB9102202A92046A3
:101AF00023F015FD0028F4D1A86802A906F049FEDC
:101B0000EFE70B49304623F02BFD70B1A8687468ED
:101B100006F0B2FC0190A86806F040FC019902466C
:101B200002AB204606F07CF9E4E70720D9E700BFC6
:101B3000C7360500383003F04FB800F5EA501830CA
:101B400003F0C2B870B5044680680E4610F042FE3D
:101B5000054606F0DDF985420CD00849304623F0F1
:101B6000FFFC48B104F1080005492A4604F08FFB48
:101B7000002070BD0C20FCE70720FAE73A3B050087
:101B8000C738050010B5044654F8080F06F0E8FC05
:101B900003490246204604F07AFB002010BD00BF36
:101BA0007A390500024B034A083004F032BC00BF0A
:101BB00053860000498600007FB50C460023234968
:101BC000ADF80E300546204623F0CAFC064610B19B
:101BD000606800BB0434206838B30DF10D0123F0B8
:101BE0002DFC00BB9DF80D001F281BD8012484404C
:101BF00005F10800DEB1164B164A022104F09EFBE7
:101C0000154BBDF80E20A8680095214606F08AFA0B
:101C100048B9242007E00DF10E0123F020FC10B993
:101C20000834D8E7072004B070BD0446E0E70B4B4A
:101C30000B4A052104F082FB0A4BBDF80E20A86870
:101C40000095214606F069FAE2E700BFCA360500B2
:101C5000C5460500B8460500DD2B0000C04605005E
:101C6000A4460500F92E000010B500F108048068B4
:101C700006F096FC044A0549002818BF1146204684
:101C800004F005FB002010BDD1360500D636050056
:101C9000303002F0ADBC37B50D4604460DF10501FC
:101CA000286823F0CBFB20B99DF805301F2B02D903
:101CB000072003B030BDA06806F09EF99DF805200E
:101CC000012393400342F3D068680DF1060123F02D
:101CD0000CFC0028EDD1BDF906209DF80510A06888
:101CE00010F07FFDE5E7903003F008BC403004F0D1
:101CF0003DB90968006850F04EBA000038B50C686C
:101D0000054608464CB906F003F90949024605F1B3
:101D1000080004F0BCFA002038BD064923F020FC7E
:101D200018B1054940F2FD12F1E72320F4E700BFA6
:101D3000C7380500DC360500B249050038B50C4649
:101D400005460949204623F00BFC58B164684CB99C
:101D500006F0FAF90549024605F1080004F097FA81
:101D6000204638BD0720FCE7E03605002A6A05005A
:101D700013B50C687CB908300849019004F0C8F923
:101D80000749019804F0C4F90198064904F07FFA64
:101D9000204602B010BD2320FBE700BFE636050059
:101DA000E8360500BD62050037B50C460546154905
:101DB000204623F0D5FB98B1606800B3A368F3B95F
:101DC0000DF1070106F071FD044630B99DF80720BA
:101DD0000D4905F1080004F05AFA204603B030BD61
:101DE0000A49204623F0BCFB38B1606838B1A368CB
:101DF0002BB906F05CFD0446EFE72324EDE707244A
:101E0000EBE700BFED36050077370500F736050034
:101E100030B50D6887B085B9044654F8080F06F050
:101E2000EDFB1522694606F0F3FB204604496A469D
:101E300004F02DFA284607B030BD0720FBE700BFAD
:101E4000C73805002DE9F0410B68044694B00846F8
:101E50007BBB54F8080F1C4EDFF8808002AF394678
:101E600006F08BF9BDF808201849204604F00FFA57
:101E7000BDF80A201649204604F009FABDF80C20E6
:101E80001449204604F003FA08253368FA1820465E
:101E90005168019152880092FB5A7268414604F0E1
:101EA000F6F9013D06F10806EFD1002014B0BDE8B7
:101EB000F081094923F054FB18B1A06806F05FF9DE
:101EC000F3E70720F2E700BF54460500003705009E
:101ED0000A37050013370500435D0500203705006C
:101EE00037B5054608680DF1070170B9A86805F017
:101EF0009DF8044630B99DF907200A4905F108000C
:101F000004F0C5F9204603B030BD23F0DFFA0446E3
:101F10000028F7D19DF90710A86805F09BF8044642
:101F2000F0E700BF5237050070B50E4604460E4973
:101F3000304623F015FB50B154F8080F05F010FBA4
:101F400002460A49204604F0A2F9002070BD084963
:101F5000304623F005FB20B154F8080F05F006FBCE
:101F6000EEE70720F2E700BF2E370500B249050073
:101F70003737050037B50C68054674B955F8080FB2
:101F800005F0A4FF0E494FF47A72B0FBF2F2284636
:101F900004F07DF9204603B030BD4B686BB901A950
:101FA000204623F006FB0028F5D1019BA8684FF4DA
:101FB0007A71594305F08EFFEDE70720EBE700BF8C
:101FC0001336050010B5044608460A4923F0C8FA3E
:101FD00030B10022A0681146BDE8104006F013BBE6
:101FE0000549A068224606F00EFB002808BF242001
:101FF00010BD00BF43370500B52B00000B6837B597
:1020000005460C4683B980680DF1070105F040F8DC
:10201000044630B99DF90720144905F1080004F081
:1020200036F9204603B030BD1149204623F098FA16
:10203000C8B160680DF1070148B9A86805F028F833
:1020400004460028EDD19DF907200A49E5E723F071
:102050003DFA04460028E4D19DF90710A86805F070
:1020600021F80446DDE70724DBE700BF4937050018
:10207000593705002A6A050070B50E6804460D46FA
:102080008EB954F8080F05F052FF054628B12046D6
:102090000F4904F0FCF8304670BD20460D4904F0AD
:1020A000F6F82846F8E70A49284623F059FA064682
:1020B00028B10121A068BDE8704005F02DBF054999
:1020C000284623F04DFA08B13146F3E70720E3E74D
:1020D0006137050064370500F0B50B6885B005462B
:1020E0000E4663B955F8080F05F035FF0446002C7D
:1020F00043D02146284604F073F82469F7E72149C4
:10210000304623F02DFA50B17068694623F0FDF98E
:1021100018B9A868694605F022FF05B0F0BD1A4954
:10212000304623F01DFA074650B17068694623F027
:10213000ECF90028F1D1A868694605F014FFECE736
:102140001249304623F00CFA044648B155F8080FFE
:1021500006F08AF90146284604F042F83846DCE7E2
:102160000B49304623F0FCF948B155F8080F06F04A
:102170007FF90146284604F033F82046CDE72320B6
:10218000CBE700BFEC350500343B0500693705009F
:102190006F37050038B50D685DB9044654F8080F6F
:1021A00006F0D6F904490246204604F070F82846A5
:1021B00038BD2320FCE700BF133605000B6837B598
:1021C0000546084683B9A86805F1080405F078FFBC
:1021D00010B1A86804F0C4FE0146204604F068F877
:1021E0000024204603B030BD0DF1070104F0E6F8ED
:1021F00004460028F5D19DF807201AB9A8681146B1
:1022000005F057FF9DF80710A86805F05FFF04462A
:102210000028E6D19DF80730002BE2D00249A868DB
:102220002A4605F046FFDCE7012B00000B6837B5B6
:1022300005460C469BB980680DF1060105F07CFF50
:10224000044648B9BDF806209DF806300D49120A2B
:1022500005F1080004F01BF8204603B030BD084625
:1022600023F077F902280AD12368A8681A785978E8
:1022700001EB022189B205F05AFF0446ECE707247E
:10228000EAE700BF7537050070B50E6804460D46D5
:1022900066B954F8080F06F042F906F044F91849F7
:1022A0000246204603F0F3FF304670BD154928462C
:1022B00023F056F920B1A068BDE8704006F020B9BF
:1022C0001149284623F04CF920B1A068BDE87040C0
:1022D00006F01BB90D49284623F042F920B1A06849
:1022E000BDE8704006F007BA0949284623F038F9DE
:1022F00020B1A068BDE8704006F003BA0720D4E71B
:10230000C73805007A37050083370500893705008F
:1023100090370500F8B50E4605461249304623F0C1
:102320001FF9074628B10121A868BDE8F84006F06A
:1023300025B90D49304623F013F9044608B1394652
:10234000F2E70A49304623F00BF948B106F026F9C6
:102350000749024605F1080003F099FF2046F8BD41
:102360002320FCE7D5670500973705003A3B0500B9
:10237000B249050037B5054608680DF1070170B987
:10238000A86804F049FE044630B99DF907200A49BF
:1023900005F1080003F07BFF204603B030BD23F0B9
:1023A00095F804460028F7D19DF90710A86805F0B4
:1023B00019F90446F0E700BF5237050030B50D6843
:1023C000044687B008466DB954F8080F18226946CC
:1023D00005F098FD0B496A46204603F058FF00209F
:1023E00007B030BD084923F0BBF848B154F8080FD6
:1023F00005F085FD02460B46204603F0D5FEEEE7CC
:102400000720EDE7C7380500694E050010B5044602
:102410000068884703490246204603F038FF002041
:1024200010BD00BF1336050010B50446006888478C
:1024300003490246204603F02AFF002010BD00BFDA
:10244000B24905002DE9F0430D6895B004460E46EB
:102450008DBB8068DFF8908006F0E9F8A946064653
:10246000AFB2BE4236D9A068ADF80E9008AA394680
:1024700006F061F9E8B99DF84930C3F3C0021B07C3
:1024800017D4ADF80E20A06804AB0DF10E0239464A
:1024900006F055F968B904F1080341461846BDF83D
:1024A0003820019303F034FE019804A903F098FE4C
:1024B000E9E70135D4E70A49304623F051F858B12D
:1024C00073685BB9074904F10800FFF7ADFF15B069
:1024D000BDE8F0830020FAE72320F8E70720F6E7BD
:1024E0007D3B05003F8600009C3705002DE9F74342
:1024F0000D680446002D38D100F10806284B294A02
:10250000294FDFF8AC80DFF8B0900321304603F0AC
:1025100015FFA068E9B206F065F9F0B1A90201ABB8
:10252000A0680DF1060201F47C4106F061F939461C
:102530002A46304603F0ECFDBDF806204FF6FE7348
:102540009A421BBF9DF804301849194A920A04BFE9
:1025500043464946304603F09AFE01353F2DD8D117
:102560000025284603B0BDE8F083284601A922F0E3
:1025700076FF05460028F4D154F8080FBDF8041082
:102580000DF103030DF1060206F032F99DF8033058
:10259000BDF806200749204603F079FEE1E700BFB9
:1025A000D4460500C8460500A3370500AC37050032
:1025B0009EA80500C4370500B837050073B50C6840
:1025C00005460E463CB10DF10701204622F07EFF84
:1025D00060B102B070BD55F8080F06F0F3F8084975
:1025E0000246284603F053FE2046F2E773682BB9F3
:1025F0009DF90710A86806F0E9F8EAE70720E8E780
:102600002A6A050037B50D686DB90446694654F865
:10261000080F05F00DFD20460822694603F0A8FDCD
:10262000284603B030BD0720FBE737B50C680546E8
:102630005CB955F8080F05F0B1FE0822014628469E
:1026400003F096FD204603B030BD082269462046BF
:1026500022F065FF0028F6D1A868694605F0A2FEC1
:10266000F1E700000B681BB902490830FFF7CEBE46
:1026700007207047E77E00000B6837B505460C461B
:1026800033B1206801A922F094FF40B103B030BDFE
:1026900007490830FFF7BAFE0028F7D0F1E7636872
:1026A00023B90199A86805F0EBFCEFE70720EDE7F7
:1026B00077800000F0B5044600F10805134B144A7A
:1026C000144F154E8DB00221284603F037FEA06846
:1026D00006F0E7F80446B4B120463022694605F01A
:1026E00068FC6A463946284603F012FD04F11200E0
:1026F0003022694605F05DFC6A463146284603F003
:10270000C6FD246BE7E720460DB0F0BDE0460500AE
:10271000D8460500D3370500DC3705007FB50C68C7
:10272000002305460E468DF804308CB955F8080F85
:1027300005F051FE03A98DF8080002A803F0CBFEB6
:102740001E490246284603F0A2FD204604B070BD93
:102750001B49304622F004FF38BB33680146013B79
:10276000044613F8012F5AB16E2A05D0722A05D0FB
:10277000642A20D10124F4E70121F2E70120F0E7E7
:1027800028B19DF8043043F001038DF804302CB1DA
:102790009DF8043043F002038DF8043029B19DF810
:1027A000043043F004038DF804309DF80410A86849
:1027B00005F020FECAE70720C8E700BFC7380500BC
:1027C0009EA8050037B50C6805465CB955F8080F9A
:1027D00005F016FC08220146284603F0C9FC2046F5
:1027E00003B030BD08226946204622F098FE00283A
:1027F000F6D1A868694605F007FCF1E730B50C682A
:1028000085B0054664B955F8080F694605F003FE22
:1028100028461022694603F0ABFC204605B030BDC7
:1028200010226946204622F07AFE0028F6D1A868D8
:10283000694605F0F5FDF1E730B50B68044687B051
:10284000084683BBA06801A905F08EFE054638BB8B
:1028500008341A49204603F05BFC082201A92046EF
:1028600003F086FCBDF80C201549204603F00FFD4F
:102870009DF811201349204603F009FD9DF8122010
:102880001149204603F003FD9DF813200F4920460F
:1028900003F0FDFC9DF815200D49204603F0F7FCE0
:1028A000284607B030BD0B4922F05AFE20B1A0687F
:1028B00005F05FFE0546F3E70725F1E7E63705007B
:1028C000F1370500FA3705000E38050023380500FA
:1028D000313605002C38050030B50C4687B005466A
:1028E0002149204622F03CFEA0B1201D0DF1170128
:1028F00003F064FD044638B99DF817303BB11B491D
:102900002A46A86805F067FF204607B030BD02469A
:102910000146F6E7206820B30DF1170122F08EFD85
:1029200004460028F0D19DF817001F2817D8012170
:1029300081400F4B01930023A868029500934FF646
:10294000FF7205F032FE04460028DDD1094B0A4A29
:10295000072105F1080003F0F1FC2424D4E7072443
:10296000D2E70146E5E700BF33380500552E0000E9
:10297000F92E00009C47050080470500024B1868AF
:1029800000B9FEE7704700BF200C0020F0B50446F8
:10299000A1B00D460026227DF3B29A421BD92269CE
:1029A000284652F83310DF0022F0DAFD0136002805
:1029B000F1D06946284622F0D8FD2369A4693B443A
:1029C00028465E6822F0DCFD0138C1B201AA20462B
:1029D000B04721B0F0BD2320FBE7000038B50C461E
:1029E00000F10805284603F0E9FB228A1D49284624
:1029F00003F08EFBA37C1C49032B96BF1B4A1C4A89
:102A000052F82320284603F083FBE27C194902F0A8
:102A10000102284603F07CFBA37CE3B9E37C5B075F
:102A200014D515496269284603F072FB04F11801B8
:102A3000284603F0C3FBA37C032B07D1E37C628D04
:102A40000E49C3F34003284603F062FB2846BDE865
:102A5000384003F06BBB228D0949284603F058FB30
:102A6000E9E700BF79390500C638050014460500BE
:102A7000605F05003F3805004C3805006C380500E4
:102A80006038050010B500238EB0CDE9013304464F
:102A9000A06801AA03A905F073FE20B903A9204686
:102AA000FFF79CFFF4E700200EB010BD30B597B0E3
:102AB0000B6800938B88ADF804300E490E4B0F4D18
:102AC00000F10804002A14BF1A460A4620460023D3
:102AD0000292ADF8563003F029FB684605F039FB49
:102AE00028B903AA2946204603F0D1FBF5E717B021
:102AF00030BD00BF8A38050087380500C73805009B
:102B000013460A4601461846FFF7D0BF024A03495A
:102B1000083003F0FDBA00BF5A420500C73805006F
:102B2000437F37B5044673B181B30846019105F080
:102B3000D6F9019A1649034604F1080003B0BDE82E
:102B4000304003F0A4BB037F03B9FEE724291DD066
:102B500000F1080579B90F49284603F098FB0023D6
:102B600004F12000237707F011F8204603B0BDE8F8
:102B70003040FFF7CBBF0846019105F0B0F9019A4C
:102B800003490346284603F082FBE8E703B030BD63
:102B90008D3805009A38050010B5054904460830FF
:102BA00003F075FB20460021BDE81040FFF7B8BFD9
:102BB0009F380500FFF7F0BF10B419B95DF8044B5A
:102BC000FFF7AEBF91F901300A785DF8044B024976
:102BD000083003F05CBB00BFB23805000B4601466D
:102BE0001846FFF7E9BF000070B504460D461146D0
:102BF0001A4603F039FA23460026164AA683C4E98A
:102C0000025443F8202F2946C4E90A342246C4E975
:102C10000C5404F1380001F09DFD2246294604F1D0
:102C2000400003F0BDF822462946C4E9215404F1CE
:102C3000900002F045FC04F5EA502246294618307F
:102C400002F010F8204626616661A661FFF75EFF7C
:102C5000204670BD7F2C000010B5054C13460A4677
:102C600001462046FFF7C0FF024B1C6010BD00BFAD
:102C7000280C0020200C00200021FFF751BFC06865
:102C8000FFF7FABF2DE9FF410B680393234B009335
:102C90000C2305460E464F2221490DEB030005F09B
:102CA000CAFE044678B182686368511005EB620081
:102CB000D20748BF6A5806F1040148BFD358984765
:102CC00004B0BDE8F0811749304622F049FCE8B174
:102CD000DFF84C80144F05F1080654F808203946F7
:102CE00030460C3403F0D3FAB4F56D7FF5D10E4FB6
:102CF00000242A7DE3B29A420DD92A69394652F856
:102D00003320304603F0C3FA0134F2E73146284657
:102D1000FFF73CFED4E70020D2E700BFF31C000021
:102D200060420500C0380500C738050030B50C46C4
:102D3000A3B0002305464FF4C0712046019306F06E
:102D400061FDB0F5C07F10D22046202201A922F0FB
:102D5000C7FA04466B7F5BB14CB9019B3BB101A93B
:102D60002846FFF78FFF044607E00624F2E7FEE758
:102D70002B7F3BB901232B7764B121462846FFF70F
:102D8000CFFE05E0074901A822F0EAFB0028F1D1B7
:102D900023B030BD019B002BE1D12C772846FFF7F3
:102DA000B5FEF5E74D42050001B9FEE7FFF7BEBFEE
:102DB000F0B501230F4E104F437789B00446152517
:102DC00056F8041B1D2268464FF0FFF900236A469F
:102DD000394604F108008DF81D3003F058FA6946B1
:102DE0002046FFF7A3FF013DEAD12846657709B0E9
:102DF000F0BD00BF2C470500C5380500FFF72CBF0C
:102E000007B50190FFF7BAFD019903B05DF804EB37
:102E1000FFF7CABF082203F099B9000013B50C46AA
:102E200008300A49019003F073F901982146FFF731
:102E3000F1FF227A06490198C2F3001302F00F0253
:102E400002B0BDE8104003F022BA00BFCA38050046
:102E5000E43805000B4601461846FFF7DFBF0000C7
:102E600038B504460D4619B9BDE83840FFF758BEDD
:102E700091F839309B0604F1080412D501F10802DB
:102E80002046164903F044F91549204603F040F95D
:102E900005F119012046FFF7BDFF1249204603F056
:102EA00037F96A8E1049204603F032F92946204648
:102EB000FFF7B0FF95F836200C49204603F028F9BB
:102EC00095F937200A49204603F022F995F8382071
:102ED00008492046BDE8384003F0D9B9FB38050061
:102EE000A9370500F0A50500043905000E390500D5
:102EF000163905001D3905000B4601461846FFF737
:102F0000AFBF00002DE9F04F0C468FB08549054654
:102F1000204622F025FB064600287ED18249204625
:102F200022F01EFB00287FD120680DF1020122F063
:102F300096FA064600286CD1BDF80210A86802AACD
:102F400005F0F5FB0646002863D10835BDF82220C0
:102F50007649284603F09BF9BDF82020744928469D
:102F600003F095F92846734903F0D2F808220DEBD7
:102F70000201284603F0FCF89DF831209DF800304E
:102F8000C2F3000161F30003C2F3400262F34103A4
:102F900062F3820301A968468DF8003003F09BFAC2
:102FA00065490246284603F072F99DF831206349CD
:102FB0002846C2F3001203F06AF99DF82420604904
:102FC000284603F064F9049A5E49284603F05FF945
:102FD000059A5D49284603F05AF99DF825205B497A
:102FE000284603F054F99DF926205949284603F054
:102FF0004EF9BDF82E205749284603F048F908E05D
:103000004946204603F084F88AE0204603F08EF813
:10301000002630460FB0BDE8F08F4F4B4F4A0E21CF
:1030200005F1080003F08AF9A868DFF85491DFF889
:1030300054A1DFF854B105F0FAFA00278046B9B27E
:10304000414505F10804E0D2A86802AA05F073FB27
:10305000002865D19DF831301B0761D4BDF82220CE
:10306000002ECDD05146204603F052F8BDF8202066
:103070005946204603F04CF8049A3949204603F09B
:1030800047F8059A3649204603F042F89DF8252076
:103090003449204603F03CF89DF82420324920466C
:1030A00003F036F89DF83120304902F00102204645
:1030B00003F02EF89DF831202C49C2F3400220463F
:1030C00003F026F89DF831202849C2F380022046FB
:1030D00003F01EF89DF830202549204603F018F82B
:1030E0009DF831202349C2F30012204603F010F866
:1030F000BDF82C201B49204603F00AF8BDF82E200D
:103100001849204603F004F81B49204603F000F854
:1031100002A92046FFF77EFE1849204603F0B7F8C3
:1031200001378CE7383E0500253905006739050071
:1031300074390500E63705007F3905008839050038
:103140009E390500AB39050023380500FA37050024
:10315000B8390500C13905001C470500E4460500E3
:103160003B390500443905004B390500523905004B
:10317000573905005C390500A9370500BD38050041
:10318000633905002A390500313905002DE9F0437E
:103190000C4693B000239249ADF806300546204610
:1031A00022F0DEF90646002840F00D818D492046C8
:1031B00022F0D6F9002840F00D818B49204622F0FC
:1031C000CFF90646002840F0A9808849204622F021
:1031D000C7F90746002800F0F4808249201D22F03C
:1031E000BFF938B9824B834A042105F1080003F086
:1031F000A5F83E46DFF848827F4FDFF84892A8687E
:1032000008AA0DF1060105F085F9002840F082803A
:10321000BDF8302005F10804002E00F0C3804946B7
:10322000204602F075FF08A92046FFF7F3FD0A9833
:1032300002A9152205F0ECF902AA20466F4902F016
:1032400067FF0B9802A9152205F0E2F96C4902AA62
:10325000204603F01CF8D2E7BDF83020494620464E
:1032600002F056FF2C4608AA54F8080F0DF106018B
:1032700005F050F900284AD1002EEDD09DF84630D7
:1032800013F0080F14BF432252224146204602F099
:103290003FFFBDF830203946204602F039FF0A9A38
:1032A0005849204602F034FF9DF93D2056492046FA
:1032B00002F02EFF9DF93E205449204602F028FFDF
:1032C0009DF846205249204602F0010202F020FFFC
:1032D0009DF846204E492046C2F3400202F018FFF6
:1032E0009DF846204A49C2F38002204602F010FFB2
:1032F0002046484902F00CFF08A92046FFF78AFD46
:10330000BDF844204449204602F0C1FFAAE7204608
:1033100002F00CFF002013B0BDE8F08305F10804B3
:103320003E4B3F4ADFF81C813E4F3F4E072120466F
:1033300003F004F8A86808AA0DF1060105F0EAF800
:103340000028E7D1BDF830204146204602F0E0FEDB
:1033500008A92046FFF75EFD02A9BDF8400002F073
:10336000B3FE39460246204602F0D2FE02A9BDF85D
:10337000420002F0A9FE31460246204602F0C8FE95
:103380009DF93D202949204602F0C2FE9DF93E20CC
:103390001D49204602F0BCFE0A9A2549204602F04B
:1033A00076FFC7E74146204602F0B2FE08A9204654
:1033B000FFF730FDDDE90A233946204602F067FFBA
:1033C0001DE70720A7E71B4B1B4A0A2105F1080050
:1033D00002F0B4FFDFF86890DFF86C80174F41E728
:1033E000383E050025390500DA3905003E3A05006A
:1033F000F8470500A4470500593A0500473A05007B
:103400004F3A0500EE390500F6390500FD39050093
:1034100052390500A9370500043A050006480500A1
:10342000DC470500193A0500243A05002E3A05004C
:10343000353A0500FC470500B44705003139050061
:10344000333905000D3A0500E63905002DE9F04F46
:103450000C4689B06E490546204622F081F80746A1
:1034600000286ED16B49204622F07AF800286FD1EF
:1034700020680DF10A0121F0F2FF0646002840F015
:10348000C280BDF80A10A86803AA05F074F90646C0
:10349000002840F0B8809DF81C205F49083502F0F4
:1034A0000102284602F0F3FE9DF81C30DA0740F1D5
:1034B000AA809DF816205949284602F0E8FEBDF87A
:1034C00014205749284602F0E2FE9DF8172055497E
:1034D0009202284602F0DBFE9DF81C205249C2F3FE
:1034E0004002284602F0D3FE9DF81C309B0740F1B5
:1034F0008A8028464D4902F00BFE03A9284608227F
:1035000002F036FE9DF818204949284602F0BFFE19
:103510009DF819204749284602F0B9FE9DF81A2067
:103520004549284602F0B3FE9DF81B204349284632
:1035300002F0ADFE67E01A464946204602F0E8FD7B
:1035400059E03F4B3F4A092105F1080002F0F6FE21
:10355000A868DFF81091DFF810A1DFF810B105F0CE
:1035600008F9002680462C46F3B254F8080F019360
:1035700003AA194605F0FFF800283CD1019B002F53
:10358000D9D09DF816205146204602F0C1FDBDF865
:1035900014205946204602F0BBFD9DF817202A4909
:1035A000204602F0B5FD9DF818202849204602F07B
:1035B000AFFD9DF819202649204602F0A9FD9DF88F
:1035C0001A202449204602F0A3FD9DF81B20224921
:1035D000204602F09DFD2149204602F099FD03A9F5
:1035E0002046FFF717FC9DF81C201D49C2F340023E
:1035F000204602F04CFE0136F3B24345B3D92046D3
:1036000002F094FD0026304609B0BDE8F08F00BFFF
:10361000383E050025390500853A05004436050089
:10362000743905008F3A05009E3A0500E63705001B
:10363000A73A0500FA3705000E380500B03A050034
:103640004846050024460500703A0500773A050013
:10365000443905007E3A05002A390500A9370500DE
:10366000B7380500633905000F3905003139050009
:10367000F7B50C6805460E461F464CB120460DF1C5
:10368000060121F0ECFE044650B1204603B0F0BD27
:103690000068904707490246284602F0F8FDF4E723
:1036A000736823B9BDF806102868B847EDE707240A
:1036B000EBE700BFB2490500F8B50E4605461A49CA
:1036C000304621F04DFF38B1184B194A311D05F134
:1036D0000800FFF7CDFFF8BD1649304621F040FF46
:1036E000044610B1144B154AF0E71549304621F055
:1036F00037FF08B90720EEE7776857B955F8080F84
:1037000004F05DFB0F490246284602F0C0FD384632
:10371000E1E70D49301D21F023FF0028EAD0A86819
:1037200004F051FB2046D6E7B83A0500B57D00000D
:10373000AD7D0000C53A0500A37D00009B7D000023
:10374000CE3A0500B2490500435D0500F7B50D46C8
:103750001E462B680746114643B1286801A921F08F
:1037600028FF044640B1204603B0F0BDFEF74EFEF0
:1037700004460028F7D0F0E76B681BB90199386858
:10378000B047F0E70724EEE708B5034A034B0830DB
:10379000FFF7DCFF08BD00BF8983000091830000B4
:1037A00008B5034A034B0830FFF7D0FF08BD00BF40
:1037B000A3860000AB86000038B50C4605460E49CE
:1037C000204621F0CDFE38B10C4B0D4A211D05F1EC
:1037D0000800FFF7BBFF38BD0A49204621F0C0FEB4
:1037E00038B1094B094A211D05F10800FFF740FFD8
:1037F000F1E70720EFE700BFD23A0500E5840000BB
:10380000DD840000DA3A0500F9840000F18400004C
:10381000F7B50D461E462B68074611464BB1286882
:103820000DF1070121F00AFE044640B1204603B025
:10383000F0BDFEF7F9FD04460028F7D0EFE76B680E
:1038400023B99DF807103868B047EFE70724EDE784
:1038500008B5034A034B0830FFF7DAFF08BD00BF85
:10386000798600008186000008B5034A034B0830C2
:10387000FFF7CEFF08BD00BFB3860000BB86000087
:1038800008B5034A034B0830FFF7C2FF08BD00BF6D
:103890000F8700001787000008B5034A034B083064
:1038A000FFF7B6FF08BD00BF1F8700002787000095
:1038B00008B5034A034B0830FFF7AAFF08BD00BF55
:1038C000C3860000CB86000070B50D46044618493B
:1038D000284621F045FE50B154F8080F04F0D5FBFE
:1038E00014490246204602F0D2FC002070BD124965
:1038F000284621F035FEB0B12E1D1049304621F08A
:103900002FFE40B10E4B0F4A05F1080104F10800EB
:10391000FFF77EFFEAE70C49304621F021FE20B197
:103920000A4B0B4AF0E72320E0E70720DEE700BF61
:10393000E43A0500F13A0500F83A0500023B0500BB
:103940009B80000093800000003B0500AB800000DE
:10395000A380000073B50C4606460DF106012068F1
:10396000154621F07CFD28B963682BB9BDF8061017
:103970003068A84702B070BD0720FBE738B50C6877
:1039800000F108054CB9806804F058FB054902466F
:10399000284602F07CFC204638BD034A2846FFF743
:1039A000D9FFF9E7F13A050045800000F7B50E466A
:1039B00005462149304621F0D3FD38B11F4A311D5B
:1039C00005F10800FFF7C6FF03B0F0BD1C49304603
:1039D00021F0C6FD074668B104361A49304621F089
:1039E000BFFD20B1A86804F0D0FA0020ECE7164A29
:1039F0003146E5E71549304621F0B2FDD0B155F822
:103A0000080F0DF1070104F0C5FA064670B13C46F7
:103A10000F4F9DF80720E3B29A4207D936F81320DA
:103A20003946284602F074FB0134F2E7284602F0DA
:103A30007DFBDAE72320C7E7EC3505006F7F000048
:103A4000093B0500103B05007D7F0000143B05008D
:103A50006339050070B50C68164605461A4614B160
:103A6000FFF778FF70BD0068B0470349024628465B
:103A700002F00DFC2046F5E7B249050008B5034AFF
:103A8000034B0830FFF7E6FF08BD00BF2F8600009C
:103A90003786000008B5034A034B0830FFF7DAFF0A
:103AA00008BD00BF898600009386000073B50C46F0
:103AB00006460DF107012068154621F0BFFC28B924
:103AC00063682BB99DF807103068A84702B070BD35
:103AD0000720FBE737B50C4611461A462368054612
:103AE0002BB121462846FFF7E1FF03B030BD01921C
:103AF000FEF79AFC019A0028F7D0F2E7F8B50D46D8
:103B000006461049284621F02BFD06F1080748B16A
:103B1000B0680EF057FE02460B49384602F0B7FB7C
:103B20000020F8BD0949284621F01AFD18B1B068F7
:103B30000EF04CFEEFE7064B064A29463846FFF7E3
:103B4000C9FFEEE7183B0500223B0500283B0500B6
:103B5000C37F0000BB7F000008B5034A034B083059
:103B6000FFF7B8FF08BD00BFD3860000DB8600006A
:103B700008B5024A0830FFF799FF08BD5D860000CE
:103B800008B5024A0830FFF791FF08BDE58600003E
:103B900038B50C68054644B90068904704490246A8
:103BA000284602F074FB204638BD0720FCE700BF22
:103BB000C738050038B50C4605461149204621F0A6
:103BC000CFFC30B10F4A211D05F10800FFF7E0FFDF
:103BD00038BD0D49204621F0C3FC08B10B4AF2E77D
:103BE0000B49204621F0BCFC08B10A4AEBE70A4920
:103BF000204621F0B5FC08B1084AE4E70720E7E7D2
:103C0000ACA705002D820000323B05003582000084
:103C1000383B05003D820000423B05004582000024
:103C200038B5094A044608300D46FFF7B1FF48B1E0
:103C3000296831B16B6823B9A068BDE8384004F049
:103C400042BC072038BD00BFBF84000038B5094A18
:103C5000044608300D46FFF79BFF48B1296831B193
:103C60006B6823B9A068BDE8384004F009BC0720A0
:103C700038BD00BF7984000038B50C4605460A7A85
:103C8000074902F004FB62880649284602F0FFFA61
:103C9000626805492846BDE8384002F0F8BA00BF1E
:103CA000A8490500B5490500C74905001FB50B68BF
:103CB0000446E3B90F4902F02BFA206801A904F089
:103CC00067F878B9204602F031FA0B49BDF80420B4
:103CD000204602F0DCFA01A92046FFF7CDFF0020C4
:103CE00004B010BD0549204602F0D1FAF7E72320C1
:103CF000F6E700BFDA490500E7490500F849050085
:103D0000096800684EF047BA096800684EF043BA87
:103D1000D1E9002302F048BAD1E9042302F044BA01
:103D2000B1F85A20014902F0B2BA00BFB249050009
:103D3000B1F85C20014902F0AABA00BFB2490500FF
:103D400001F13002014902F0A2BA00BFC7380500F4
:103D5000B1F85820014902F09ABA00BFF13A0500C3
:103D60004A6F014902F093BAFE4905004A6D0149C4
:103D700002F08DBA133605000822413102F0F8B97D
:103D80001022203102F0F4B9493102F05BBA0B681D
:103D900010B514461A1D0A601868214621F0F2FA7F
:103DA00008B92081A07210BD0B6810B514461A1D09
:103DB0000A60186804F1100121F0E4FA08B92083C0
:103DC000A07610BD0B68181D0860186802F15A0132
:103DD00021F045BB0B68181D0860186802F15C01F2
:103DE00021F03DBB0B68181D0860186802F15801EE
:103DF00021F035BB0B68181D0860186802F17401CA
:103E000021F0D7BB0B68181D0860186802F1540137
:103E100021F0CFBB0B6810461A1D0A6000F141016A
:103E20000822186821F07BBB30B50B6885B01546B9
:103E30001A1D0A601868694621F067FB044628B914
:103E40006B4603CBC5F84900C5F84D10204605B0B8
:103E500030BD0B68186830B104330B60014602F1C5
:103E6000300003F0DFBF0720704700002DE9F0416C
:103E70000D4607461B492868144621F071FB2B6844
:103E80001A1D2A6020B3D3F80480B8F1000F27D0A0
:103E900094F87B3093B104F1300694F87C3093B100
:103EA00004F1410204F15E033146404603F0B8FFDD
:103EB00010B92B6804332B60BDE8F081386804F03A
:103EC000DBFA0646E9E7386804F068FA0246E9E7F3
:103ED00004F15E011868BDE8F041102221F01FBB1B
:103EE0000720E9E7C736050010B50C6834B9044966
:103EF00091F8FE2002F03CF9204610BD0720FCE7B7
:103F00009029002038B50D4604460C49284621F07A
:103F100027FB28B120680A49BDE8384003F05DBF9F
:103F20000849284621F01CFB28B120680449BDE857
:103F3000384003F05CBF072038BD00BF064A0500CB
:103F400090290020C269050010225E3102F010B9EC
:103F500008B5FF22002102484DF0ECFF002008BD0B
:103F6000902900200B6810461A1D0A6000F12001FC
:103F70001022186821F0D3BA13B50B46FE21ADF814
:103F8000061018680DF10601144621F0D6FA18B98A
:103F9000BDF8063084F8FE3002B010BD30B50C46D6
:103FA000A3B005461A49204621F0DAFA38B119497A
:103FB000286803F00DFF0446204623B030BD1649A3
:103FC000204621F0CDFA20B11249286803F00AFFFB
:103FD000F1E71249204621F0C3FA58B12868694632
:103FE00003F06EFF04460028E6D10A49684603F054
:103FF0003BFFE1E70A49204621F0B2FA28B1054A21
:10400000211D2846FFF7B8FFD5E70724D4E700BFF6
:10401000064A050090290020C26905000D4A0500E6
:10402000114A050030B5C1B00C466A460431054658
:10403000FFF7A2FF40B90B49204621F091FA28B1C1
:104040002868694603F0C9FE41B030BD06492046E4
:1040500021F086FA20B12868694603F0C8FEF3E72C
:104060000720F1E7064A0500C269050070B513682C
:10407000A4B006460D460192D3B91E4802A903F02A
:10408000D8FE044688B96B6824AA134413F8103C80
:104090005BB1EA68AB685110D50706EB620048BF18
:1040A000725802A948BFD3589847204624B070BD23
:1040B0008822002102A84DF03DFF6A692B6951104A
:1040C00006EB6200D20748BF725801A948BFD35817
:1040D00002AA984704460028E7D16B68054924AA3C
:1040E0001344012203F8102C02A803F0CEFE04466C
:1040F000DBE700BF9029002038B50C460A8822492A
:10410000054602F005F8A378D80703D51F492846CD
:1041100001F0FEFFA378990703D51D49284601F059
:10412000F7FFA3785A0703D51A49284601F0F0FF94
:10413000A3781B0703D51849284601F0E9FFA378A7
:10414000D80603D51549284601F0E2FFA378990661
:1041500003D51349284601F0DBFFA3785A0603D59F
:104160001049284601F0D4FFE378DB0703D50E4958
:10417000284601F0CDFFE2780C492846C2F34202FE
:10418000BDE8384002F083B863390500613B0500A3
:104190008B3E0500DA64050078370500A33E050074
:1041A000C84D0500C8360500FAAF0500B149050045
:1041B0006E31FFF7A1BF000073B5002301931368B0
:1041C0000E46186801A9154621F049F90446002851
:1041D0007FD129684A680B1D2B60002A77D0013AED
:1041E00012F8013F002B5BD0722B05D8622B05D84B
:1041F000432B3FD0522B4CD007246AE0633B0F2B5C
:10420000FAD801A050F823F06B420000F9410000F9
:104210007F420000F9410000F9410000F94100002F
:10422000F9410000F9410000F9410000F9410000A6
:10423000F941000057420000494200008942000055
:10424000F9410000614200009DF8063043F001038F
:104250008DF80630C4E79DF8063043F00203F7E717
:104260009DF8063043F00403F2E79DF8063043F072
:104270000803EDE79DF8063043F01003E8E79DF8EA
:10428000063043F02003E3E79DF8063043F0400397
:10429000DEE79DF8073043F001038DF807309FE714
:1042A000886801F108032B6088B10DF1030121F04A
:1042B000C5F888B92B689DF803200433072A2B60C2
:1042C0009AD89DF8073062F343038DF807300198C0
:1042D0003060204602B070BD0446FAE713460A4635
:1042E00003F16E01FFF768BF07B5044B00930F227F
:1042F000182304F0A0FB03B05DF804FB013D0000AF
:104300002DE9F047A4B00446084602A903F091FD48
:10431000064658BBDFF85CA0DFF85C80DFF85C90F5
:104320000D27DAF804300193414601A8FFF7DCFFBE
:10433000436824AA1344054613F8103C93B1DAF8F5
:1043400000204946204601F0E3FEEB685A1013F0C6
:10435000010F18BFA25804EB6300AB6802A918BF95
:10436000D3589847013F0AF1080ADAD1304624B001
:10437000BDE8F0872C4B0500004C0500AC62050041
:1043800070B5C0B005460E460068694603F020FDD2
:10439000044630B933683BB969462846FFF7B0FF99
:1043A0000446204640B070BD0649304621F0D8F89A
:1043B00030B19DF8FE206946284601F0D9FEF0E7AD
:1043C0000724EEE72F3E050070B5C0B005460E4647
:1043D0000068694603F006FD044630B933683BB90E
:1043E00069462846FFF78CFF0446204640B070BD62
:1043F0000649304621F0B4F830B19DF8FE206946F8
:10440000284601F0B5FEF0E70724EEE72F3E050051
:104410002DE9F043E7B00E4688220021044604A8A7
:104420004DF088FDFF22002126A84DF083FD2F4F7F
:10443000DFF8C480331D0293029BD3F80090B9F1DA
:10444000000F2FD0394603A8CDF80C90FFF74CFF92
:104450000546B0B14269029B511004EB620004337F
:10446000D20748BF625802932B6902A948BFD358AC
:1044700004AA9847002833D16B6822AA0121D1549D
:10448000DAE70298414621F06BF860B3029926AA58
:10449000043120460291FFF76FFD08BB029B0433F5
:1044A0000293C9E71249304621F05AF8054670B91F
:1044B0001049304621F054F8A8B1CDE900559DF8D7
:1044C0009631206826AA04A903F0A5FC08E0CDE9EE
:1044D00000999DF89631206826AA04A903F091FC62
:1044E00067B0BDE8F0830720FAE700BF004C050085
:1044F000064A0500C26905002F3E05002DE9F04F70
:10450000CDB004AF0E460D220021054638464DF0D1
:1045100011FDFF2200210CA84DF00CFDDFF8C89022
:10452000DFF8C8A006F104080024D8F800B0BBF1F9
:10453000000F2ED02949CDF80CB003A8FFF7D4FE08
:1045400030B142680121B954C3460BF10408ECE7CD
:104550004946404621F004F848B108F1040B0CAA82
:1045600059462846FFF708FD0028EED006E05146E0
:10457000404620F0F5FF044618B907204DB0BDE8CD
:10458000F08FD8F8040008A908F1040B20F0BDFF53
:10459000EAE71349304620F0E3FF60B128689DF850
:1045A0002E310CB10DF1200BCDF800B00CAA39461C
:1045B00003F022FCE2E70B49304620F0D1FF00284F
:1045C000DBD028689DF82E310CB10DF1200BCDF811
:1045D00000B00CAA394603F019FCCFE7004C0500E7
:1045E000064A0500C26905002F3E05004CA70500DC
:1045F000F0B50B6885B005460C4623B92049FFF796
:104600007FFE05B0F0BD1F49204620F0A9FF60B134
:104610001D4F1E4E0024E259314628460C3401F04D
:1046200036FE6C2CF7D10020EBE723681849039382
:1046300003A8FFF759FE014620B1221D2846FFF7C7
:1046400015FDDEE723680393124B00930C230DEB5B
:1046500003000D49092204F0EEF9034668B18268AF
:104660005B68511005EB6200D20748BF6A5804F13D
:10467000040148BFD3589847C3E72320C1E700BFD0
:1046800090290020C0380500944B0500C73805006C
:10469000004C0500093D0000096800684DF07BBD35
:1046A00038B50C6805464CB9006803F08BFD044929
:1046B0000246284601F0EBFD204638BD0720FCE706
:1046C000B249050038B50C68054608464CB928685B
:1046D00003F07CFD08490246284601F0D8FD002081
:1046E00038BD064920F03CFF18B1286803F072FD80
:1046F000F5E70720F4E700BFB2490500435D050078
:1047000030B50C4687B005461149204620F028FFF9
:10471000D8B102A9201D01F08EFE172807D1002371
:1047200060688DF810300822694620F0F8FE30B934
:104730009DF81030286823B102A903F071FD07B07D
:1047400030BD694603F067FDF9E70720F7E700BFD2
:10475000684D0500C0E900127047437C5A0744BF0A
:10476000702301F8013B437C1B0744BF612301F820
:10477000013B437CDA0644BF642301F8013B437CE0
:104780009B0644BF632301F8013B437C5A0644BFA8
:10479000722301F8013B437CDB091CBF6F2301F846
:1047A000013B837CDB0744BF732301F8013B837C1F
:1047B0009A0744BF6E2301F8013B837C5B0744BF2B
:1047C000442301F8013B00230B70704730B50C46C1
:1047D00087B0054601F00EFD01A92046FFF7BDFF99
:1047E0009DF8043023B1094901AA284601F090FC44
:1047F000607C40F3010040B201F03EFEA38A044910
:104800000246284601F043FD07B030BDC63805001A
:104810006E4D0500037D1B0744BF732301F8013B68
:10482000037D5A0744BF6E2301F8013B037D9B06BD
:1048300044BF612301F8013B00230B707047000067
:1048400030B50C4687B0054601F0D4FC01A92046DE
:10485000FFF7E0FF9DF8043023B1094901AA28467B
:1048600001F056FC207D40F3010040B201F004FE4F
:10487000638A04490246284601F009FD07B030BDAD
:10488000C63805006E4D050070B50C4605464A68F1
:10489000124901F03DFC227A04F10901284601F099
:1048A00055FC0F49284601F033FC94F8072104F524
:1048B0008471284601F04AFC94F80631DB0703D5E1
:1048C0000849284601F024FC2378B4F80022064960
:1048D0002846BDE8704001F0DABC00BF774D050006
:1048E000F0A505007C4D05007F4D050030B54B78E7
:1048F00089B013F0020F18BF732203AD16BF8DF8F5
:104900000C202A460DF10D02DB0744BF632302F899
:10491000013BAA4202BF2D230DF10D028DF80C3090
:104920000C46002313700231019001F063FC2278E1
:10493000034901982B4601F0AAFC09B030BD00BF25
:10494000884D050013B9006803F04CBC1720704770
:1049500013B9006803F04BBC1720704713B9006807
:1049600003F04ABC17207047F0B5ADF51B7D00235E
:104970000E465B4900930446154601F088FC4FF64D
:10498000FF77334606AA69462046FFF7DBFF50B99A
:10499000BD4203D0BDF82C30AB42F2D106A920466F
:1049A000FFF714FFEDE74F49204601F070FC0023AC
:1049B00000934FF6FF7733460CAA69462046FFF76F
:1049C000C7FF50B9BD4203D0BDF84230AB42F2D16F
:1049D0000CA92046FFF734FFEDE74349204601F0DC
:1049E00056FC002300934FF6FF77334619AA694619
:1049F0002046FFF7B3FF50B9BD4203D0BDF8643283
:104A0000AB42F2D119A92046FFF73EFFEDE7002E99
:104A10004FD14FF6FF739D424BD13449204601F0F0
:104A200036FC0096206801AA694603F0EAFB20B92B
:104A300001A92046FFF75AFFF4E7206812A903F006
:104A4000E5FB2B49204601F022FC9DF860309D07D4
:104A500032D5BDF84A202749204601F059FB9DF880
:104A60006030D8072DD5BDF848202349204601F0F5
:104A70004FFB9DF86030190728D5BDF85E201D4911
:104A8000204601F045FB9DF860305A0723D59DF87C
:104A90004C200DF14D01204601F058FB9DF860308F
:104AA000DB0603D51549204601F032FB204601F014
:104AB0003DFB0DF51B7DF0BD1149204601F028FBA3
:104AC000CDE70F49204601F023FBD2E70C492046F1
:104AD00001F01EFBD7E70B49204601F019FBDDE78B
:104AE0008F4D0500994D0500A14D0500AB4D05000A
:104AF000B54D05006339050035390500C74D050082
:104B0000C44D05009EA8050030B5C3B0FF2305467F
:104B10008DF8073081B900680DF1070302AA03F090
:104B20004CFB044628B99DF8072002A9284601F04D
:104B30001FFB204643B030BD0C24FAE72DE9F04FAF
:104B400085B000244FF6FF73DFF88480DFF884908F
:104B5000ADF80E3006460D462746A2465FFA84FBA6
:104B600005EB8B0355F82B20D2B118464146019333
:104B700020F0F6FC019B70B94946184620F0F0FC85
:104B800060B955F82B000DF10E0120F068FC18B14A
:104B900005B0BDE8F08F82460134DFE70746FBE74A
:104BA000BDF80E20BAF1000F00D14FB14FF6FF73E0
:104BB0009A420BD127B151463046FFF7A5FFE7E7F0
:104BC00030465146FFF7D0FE0020E1E70720DFE73F
:104BD000F43505002F3E05002DE9FF410B68054621
:104BE0000C4693B9DFF878801A4F002656F8082053
:104BF000394628460C3601F04AFB302EF6D12368A0
:104C00002BBB232004B0BDE8F0811349204620F0DF
:104C1000A7FC0028E6D123680393104B00930C23D4
:104C20000DEB03000E49042203F005FF03460028A4
:104C3000E7D082685B68511005EB6200D20748BF7D
:104C40006A5804F1040148BFD3589847DAE70020B6
:104C5000D8E700BFC7380500C038050099460000F6
:104C6000E44D0500C0E90012027A6FF300020272FF
:104C700070470968002330B5136001394FF47A7327
:104C80000A2411F8010FE8B1A0F13005092D11D85F
:104C9000B3F57A7F02BF106860431060087815682A
:104CA000303803FB0050B3F57A7F1060E9D0B3FBD6
:104CB000F4F3E6E72E2804D1B3F57A7F01D164231B
:104CC000DFE7072030BD000070B50E4692B0044605
:104CD0004E49304620F044FC28B1206803F0BBFA6E
:104CE000002012B070BD4A49304620F039FC05461C
:104CF00000B1043600213C2203A84DF01BF94549C0
:104D0000304620F02DFC68B1706803A920F0FDFB4F
:104D10000028E6D1206803A903F011F908B907209B
:104D2000DFE708363C49304620F01AFC18B1012371
:104D30008DF84430043620680DF1070307AA314688
:104D400001F0A6FB0028CCD19DF807303BB13349D8
:104D5000204601F0DDF907A9204601F041FA70680C
:104D600000282ED1B068002831D1F368002B35D14E
:104D7000306900283BD173696BB102AA06F11401B6
:104D80002046FFF776FF0028ABD1029BB3F5803FAA
:104D9000C5D2ADF84030B369002BC0D1204B0B9386
:104DA000204B206803A9CDE90C3403F04FFA00280A
:104DB00097D1237A002D65F30003237208BF2420C6
:104DC0008FE70EA920F04BFB0028CBD089E70DF12F
:104DD0003A0120F044FB0028C7D082E70FAA06F171
:104DE0000C012046FFF745FF0028C1D079E70DF1FF
:104DF000420120F023FB00287FF473AF9DF842307E
:104E0000B3FA83F35B098DF84330B4E797370500B5
:104E100043370500144E0500174E05001A4E0500D5
:104E2000614E0000114F000037B54A8A08320C4627
:104E3000054692B2084901F06BF92146284601F077
:104E4000BDF9238A0093A28AA37D0449284601F074
:104E50001EFA03B030BD00BF3D4E05004C4E0500AC
:104E60000B4601461846FFF7DFBF0000024B1868EB
:104E700000B9FEE7FDF754BE200C002073B50C46C8
:104E80000A884B881F49054601F042F922889AB1E9
:104E9000237B8BB963889A420ED3D11A4FF47A736D
:104EA0004B430A2193FBF2F32846B3FBF1F201FBDB
:104EB0001233154901F02CF96288A2B160684FF4F1
:104EC0007A760023A0FB06014CF032FE6289B0FB2B
:104ED000F6F306FB13000192009022890B499BB266
:104EE000284601F015F9284601F020F9297A11F039
:104EF000010105D1284602B0BDE87040FFF7B6BFFA
:104F000002B070BD6C4E0500994E0500B24E050012
:104F10000B4601461846FFF7B1BF00002DE9F04FE0
:104F200090F8A4528BB004460F4600F52B76002D66
:104F300040F0FD800B68002B5BD10123A0F8A83264
:104F400040F6262540F6262204F53971304603F056
:104F5000BAF92022002102A84CF0ECFF754B039314
:104F600094F8A832002B00F0D880734B0593734B54
:104F7000069304F10807724B07932068029404F625
:104F80000A5302AA3946CDE9083503F077F90546F8
:104F900088B96C4B039320686B4B049302AA04F509
:104FA0001E71029403F082F90546002800F0B880D3
:104FB000384603F079F994F8A9329BB104F5C25050
:104FC000083029F073FB04F5BA50183029F0ACFA18
:104FD00004F5D1500C303DF041F804F5C6501830BE
:104FE0002EF087F8304603F07CF9304603F07BF969
:104FF00099E05649384620F0B3FAA8B1A4F8A8526F
:10500000786800289CD002A920F0D3FA0546002831
:10501000D1D1029DEB1D05EBD3056A1E40F6252379
:105020009A428FD90725C6E74949384620F098FAB1
:10503000804618B10123A4F8A832E1E74549384673
:1050400020F08EFA0028EDD004F5C65940F2011385
:1050500009F1180904F5D15BA4F8A83248460BF110
:105060000C0B04F5BA5A2EF03FF80AF1180A58460C
:1050700004F5C25508353CF0EDFF504628F06AFFB4
:10508000284629F0A9FA42463349284628F06DFF00
:105090004146284628F062FF3049284628F06EFF36
:1050A00003221146284628F0E6FF0322114628462F
:1050B00028F0DCFFE9222A49CDF800804346584613
:1050C0003DF0D0FC024618B12649204601F0DFF839
:1050D00040F22D32244948462EF090FC024618B189
:1050E0002249204601F0D3F840F29922204948464F
:1050F0002EF084FC024618B11E49204601F0C7F884
:105100002946504629F074F9024600283FF478AF4A
:105110001949204601F0BBF872E7184B049326E7C3
:10512000012384F8A43228460BB0BDE8F08F18257F
:1051300041E700BF855B0000E55B0000575C0000B5
:10514000DD55000089560000C9560000DC4E050000
:10515000E34E0500EC4E050075A30000B85D0500A8
:10516000F04E0500D94F0500FA4F05002753050002
:105170004E530500E75505000E560500A9590000DD
:1051800090F8A43223B10B6823B9083003F088B833
:105190000D20704707207047096800684CF0FBBF7E
:1051A000F7B50D680446CDBB90F8A432C3B390F8B0
:1051B000A932ABB100F5C250083029F077FA04F5F6
:1051C000BA50183029F0B0F904F5D1500C303CF049
:1051D00045FF04F5C65018302DF08BFF84F8A95216
:1051E00004F1080003F060F80027064684F8A7726F
:1051F00004F52B70019003F074F8019803F073F834
:10520000054604F51E7003F05CF884F8A4724EB9EC
:10521000BD4208BF0546284603B0F0BD0725FAE7A2
:105220000D25F8E73546F6E70B6810B504465BB97F
:1052300090F8A43253B1083003F034F818B984F868
:10524000A50284F8A60210BD0720FCE70D20FAE7AE
:105250000B6833B990F8A4322BB100F51E7003F03F
:105260002EB8072070470D20704730B590F8A43253
:1052700087B005460C46A3B1206801A920F045F986
:1052800058B9606805A920F0EAF830B9A36833B9C5
:1052900001A905F1080002F0F9FF07B030BD0720B1
:1052A000FBE70D20F9E730B590F8A43287B004464B
:1052B0000D46CBB1286801A920F027F980B96868AC
:1052C00005A920F0CCF858B9AB685BB904F51E7499
:1052D000204602F0F4FF18B901A9204602F0EDFFC4
:1052E00007B030BD0720FBE70D20F9E730B590F897
:1052F000A432A5B004460D46002B67D041F23C73A2
:10530000C358002B64D10B68002B63D03249284668
:1053100020F026F96B6818B31BB38022ADF80A2081
:105320000DF10A0104AA184620F007F9B0B904A942
:1053300094F8A8323BB394F8A922BDF80A30BAB168
:1053400004F5BA501A4618302AF000FD00283BDA5E
:1053500020F0800010F5D24018BF012025B030BDEC
:10536000C3BB284620F0F5F82968ADF80A00DFE74E
:10537000019203AA009204F108000A4604F52B7179
:1053800002F0A3FFEAE794F8A7520DBBBDF80A208C
:10539000C4F8D85240F626239A4228BF1A4604F58C
:1053A0003970C4F8E022C4F8DC024CF09BFD2A46B8
:1053B00004F5367104F1080002F06CFF0028CDD12D
:1053C000012384F8A732C9E70020C7E70D20C5E70D
:1053D0000520C3E70720C1E72F3E05002DE9F04770
:1053E0001F4690F8AA32ADF5007D04460E461546DC
:1053F00063B990F8A932002B3CD01FB12B4920464D
:1054000000F045FF0DF5007DBDE8F087002AF4D0DF
:1054100090F8A93283B300F5BA56DFF89880DFF828
:10542000989018360DF10C0A4FF4FA725146304636
:105430002BF078F8021E07DA12F5D24F0CD049464D
:10544000204600F024FFEDE7CDF800A013464146CA
:10545000204600F01CFFE5E715492A46204600F0EB
:1054600016FFCAE7454500D0FEE72946304602F060
:1054700015FFC2E7002AC0D003A9304602F00CFF96
:10548000DFF838904FF00008039A002AEAD0D2E9FA
:1054900001234946009220461A4600F0F8FE039B7D
:1054A0009A681B6803939044EEE700BF9756050087
:1054B00061560500445605002C5605007A56050035
:1054C000C0E900120121A0F8A81241F23C710022AB
:1054D000C0F8A42280F8AA22425000F5BA510A600E
:1054E00041F24871425041F2507200F1080181507E
:1054F00041F2547200F52B71815070472DE9FF4144
:105500000B6805460C4693B9DFF878801A4F0026E1
:1055100056F80820394628460C3600F0B8FE782E9A
:10552000F6D123682BBB232004B0BDE8F0811349DA
:10553000204620F015F80028E6D123680393104B8D
:1055400000930C230DEB03000E490A2203F073FABB
:1055500003460028E7D082685B68511005EB6200C3
:10556000D20748BF6A5804F1040148BFD35898478E
:10557000DAE70020D8E700BFC7380500C0380500CB
:1055800099510000D85D0500042A96BF104B114ABE
:1055900053F82220104910B5044600F078FE94F824
:1055A000A93223B104F5BA50183028F0BAFF41F2FD
:1055B0003C72002384F8A532A4F8A632A35004F567
:1055C000BA5204F52B701360BDE8104002F089BE9A
:1055D000C45D0500605F0500B256050013B50446C2
:1055E000019102F050FE019A214602B0BDE8104040
:1055F000FFF7CABF38B5154690F8A522044662B138
:105600001D4900F085FD2946204600F025FE204674
:105610001A4900F03CFE012038BD00F10801196074
:1056200090F8A9320BB90020F6E700F5C25508350D
:1056300013460121284628F0D3FF024618B110492D
:10564000204600F024FE41F628230022E158284697
:1056500028F0B8FC04F5D15204F5C6510C321831CB
:10566000284628F091FC02460028DCD00549204657
:1056700000F00DFED7E700BFBA560500EA56050058
:10568000035705002B57050037B50D460446019218
:1056900002F011FE019B2A46214603B0BDE83040CE
:1056A000FFF7A8BF38B51D460123044680F8A53290
:1056B000044900F02DFD29462046BDE8384000F0A1
:1056C000DDBD00BF5157050037B50D4604460192B8
:1056D00002F0F1FD019B2A46214603B0BDE83040AF
:1056E000FFF7E0BFF0B52B4F87B0044600F5BA5680
:1056F00033681BB90025284607B0F0BD04F52B71AF
:105700000846039102F0EBFD0028F3D035680399B9
:10571000B5F5826F2B4628BF4FF4826398424FF055
:10572000000215D99D4294BF00250125059294F8E9
:10573000A922FAB104F5BA501A46394618302AF0AF
:1057400005FB002806DD3368059098421DD9FEE769
:105750001546EBE720F0800010F5D24F15D001255B
:105760000D49204600F093FD41F23C720023A35006
:105770003360C0E705AA0195009204F108003A469B
:1057800002F0A3FD05460028EAD13368059A9B1A6A
:105790003360ADE76B5705007C5B050041F24C734D
:1057A00070B5C25841F248734FF4FA54C3585908BF
:1057B00004FB02140849B4FBF3F4054600F067FD4E
:1057C0004FF47A732846B4FBF3F2044903FB124307
:1057D000BDE8704000F05BBD915B0500D35B050048
:1057E000F8B50D4604463F4928461FF0B9FED8B12A
:1057F0003D49204600F08CFC41F23C73E6582EB146
:105800003A49204600F043FD0020F8BD41F24873BC
:10581000E5583DB12046364900F039FD2046FFF7F6
:10582000BDFFF1E73349ECE7334928461FF098FE06
:1058300050B394F8A732002B52D141F23C76A11913
:10584000A359002B4CD16868B8B94FF49033A351D9
:10585000AB68CBB901F0F7F841F2447341F23C7602
:10586000E05004F5BA5394F8A852A7591F606DB1DF
:105870002046BDE8F840FFF735BF1FF09AFE00282C
:10588000C3D1A359002BE3D10720BEE704F5397338
:1058900040F62622612118464CF04CFB07F62521E4
:1058A00040F625229142AFD941F2307141F2347273
:1058B0006550A05040F62622B7FBF2F302FB1373AB
:1058C000002B08BF134641F238722144A35004F163
:1058D00008002A4602F0DEFC002895D0A55194E786
:1058E000052092E7EE5B0500F55B05000C5C05000A
:1058F000145C05001E5C0500275C050038B50446F5
:1059000001F0A1F841F2447341F23C75E358C01A2A
:1059100041F24873E05041F24C736259E250204624
:10592000FFF73CFF0023635138BD0000F8B590F845
:10593000A8520446114605B1FEE741F23C7600F557
:105940003673825942B9994205D190F8A73203B90A
:10595000FEE780F8A722F8BD994200D1FEE700F5E6
:10596000BA528F681368BB4200D2FEE7DB1B13609C
:1059700040F6252293420ED940F626238B602A4614
:10598000083002F087FC0028E5D00649204600F0E8
:105990007EFCA551DFE7002BDDD1BDE8F840FFF725
:1059A000ADBF00BF7C5B050013B50446019102F05A
:1059B0006AFC019A214602B0BDE81040FFF7B6BF6D
:1059C00073B500F5BA55183511490446284628F034
:1059D00015FB024618B10F49204600F058FC0E2274
:1059E0000D49284628F0F2FA024618B10B49204624
:1059F00000F04DFC002604F5BA51094B094A009607
:105A00001031284628F0B4FA84F8AA6202B070BDBA
:105A10002B5C0500355C05005A5C0500695C0500DF
:105A200021830000ED82000038B590F8AA320546C7
:105A3000CBB900F5BA50183028F0A8FB0124024673
:105A400038B90A49284600F022FC85F8AA422046C7
:105A500038BD20F0800313F5D24FF8D00449284612
:105A600000F015FCF3E70024F1E700BF995C0500A6
:105A7000B05C0500F0B590F8A43287B004460F463C
:105A8000002B5FD000680DF1030301AA00F000FDB8
:105A9000054608BB9DF803303BB12B49204600F07A
:105AA00037FB01A9204600F09BFB786805A91FF091
:105AB000D6FC054680B9BB68002B41D007F108052C
:105AC000224928461FF04CFD064640B92049284689
:105AD0001FF046FD20B90725284607B0F0BD012676
:105AE000FB68002BF7D194F8A9326BB1002304F5C1
:105AF000C2501A461946083028F072FD024618B105
:105B00001449204600F0C3FB324601A904F1080005
:105B100002F0BEFB05460028DED1012384F8A53241
:105B2000734084F8A63294F8A932002BD4D0002E0A
:105B3000D2D12046FFF744FF2046FFF775FFCBE7A1
:105B40000126D0E70D25C7E7C95C0500F25C05001A
:105B5000F75C05000357050010B50446084900F03E
:105B600096FB94F8A93253B194F8A6323BB920467B
:105B7000FFF726FF2046BDE81040FFF755BF10BDD8
:105B8000FC5C050007B5019002F07DFB019903B0B4
:105B90005DF804EBFFF7E0BF38B590F8A832044693
:105BA000154603B9FEE7114600F52B7002F095FB90
:105BB00094F8A93213B12046FFF736FF41F23C7347
:105BC000E35873B104F5BA531B6823B12046BDE80E
:105BD0003840FFF787BD25B92046BDE83840FFF7BC
:105BE0008DBE38BD37B50D460446019202F04BFB21
:105BF000019B2A46214603B0BDE83040FFF7CCBFE9
:105C00002DE9F0411F4600F10803994204460D4674
:105C1000164600D0FEE790F8A5328BB990F8A9227D
:105C2000012380F8A53280F8A6323AB93B463246C5
:105C300029462046BDE8F041FFF7D0BBFFF7C0FE84
:105C400094F8A932002BF1D02046FFF7EDFE002892
:105C5000ECD0BDE8F081F7B50D4616461F46044668
:105C600002F011FB009733462A462146FFF7C8FF92
:105C700003B0F0BD70B50C4686B005461749204606
:105C80001FF06EFCB0B104340026206801A91FF09B
:105C90003CFC68B9606805A91FF0E1FB40B9A36846
:105CA000D3B92868334601AA05F10C0102F0DDFDE5
:105CB00006B070BD0A4920461FF052FC10B10434F2
:105CC0000326E2E7074920461FF04AFC10B10434DE
:105CD0000126DAE70226D8E70720E9E7505E05004B
:105CE000535E0500565E050030B587B004460DF1E1
:105CF0000303006801AA0D4600F0CAFBB8B99DF87D
:105D000003303BB10C49204600F002FA01A92046BD
:105D100000F066FA686805A91FF0A1FB38B9AB6806
:105D20003BB9206801AA04F10C0102F0A5FD07B0FF
:105D300030BD0720FBE700BFC95C050000F10C0186
:105D4000006802F08DBD000013B500F10C0104469F
:105D50000068019102F075FD40B9064A019920687A
:105D6000234602B0BDE8104002F05FBD182002B02B
:105D700010BD00BF65600000096800684CF00BBAF8
:105D800010B50C680B4634B100F10801BDE81040B5
:105D9000184600F013BB017A00F08AFA204610BDC5
:105DA00010B50123C0E90012044603723822002115
:105DB0000C304CF0BFF8204610BD73B530230546BB
:105DC0000C468DF807306126DCB101220DF1070188
:105DD000284602F0C8F9A8B99DF807305A2B07D019
:105DE0007A2B0AD0392B0AD141238DF8073001E0F4
:105DF0008DF80760013CA4B2E6E73023F5E70133F4
:105E0000F3E7204602B070BD70B590B00546019131
:105E1000322603AA0DF10A0101A8ADF80A601FF0AD
:105E200095FB044608B124280AD1BDF80A2003A92D
:105E3000284602F098F908B1044601E0002CE8D1A8
:105E4000204610B070BD00002DE9F0418CB0012358
:105E500000F10C07054688468DF805303946037A6F
:105E600000688DF8043002F0ECFC00286DD026228A
:105E7000002102A84CF05EF8D8F80830FBB1286881
:105E80000DF1060306AA414600F002FB0446002875
:105E90005CD19DF806303BB13049284600F038F916
:105EA00006A9284600F09CF9D8F804000DF12A0153
:105EB0001FF0D5FA0446002848D108F108082868E0
:105EC00001A902F0A4FC0646002843D0244940461C
:105ED0001FF046FBD0B1D8F804000DF106011FF009
:105EE000BEFA044670B9BDF806103046FFF765FFEC
:105EF000044638B9286802AB3246394602F0C1FC84
:105F0000044618B3304602F026F91FE01549404612
:105F10001FF026FB30B1D8F80410E9B13046FFF786
:105F200073FFE5E7104940461FF01AFB08B108F17E
:105F30000408D8F800407CB140461FF00AFB214617
:105F40000246304602F00FF9D2E70D2420460CB08D
:105F5000BDE8F0810324F9E70724D3E7595E050083
:105F60007F5E05002F3E0500825E05002DE9FF41A2
:105F70000B6805460C4693B9DFF878801A4F002667
:105F800056F80820394628460C3600F080F9482E8D
:105F9000F6D123682BBB232004B0BDE8F081134960
:105FA00020461FF0DDFA0028E6D123680393104B4A
:105FB00000930C230DEB03000E49062202F03BFD7B
:105FC00003460028E7D082685B68511005EB620049
:105FD000D20748BF6A5804F1040148BFD358984714
:105FE000DAE70020D8E700BFC7380500C038050051
:105FF000795D0000AC5E0500F0B50446ADF2E45DED
:1060000008460D46164602F0A8F80746284602F054
:10601000A8F811493A1A204600F07AF806F1100162
:10602000204600F0CBF8728C0C49204600F070F846
:10603000284602F096F801AA014640F2DB532846B2
:1060400002F093F801AA002313540549204600F0FA
:106050001EF90DF2E45DF0BD855E0500993905007D
:10606000C7380500FFF7C8BFC0E9001270472DE927
:106070007043002304460D46137554EA050306D108
:10608000302302F11306D3743046BDE8708302F169
:106090001406204629460A2200234BF049FD3032DF
:1060A00006F8012D204629460A2200234BF040FD28
:1060B000A946A046B9F1000F08BFB8F10A0F04467F
:1060C0000D46E6D2E0E7000037B5054607226846F0
:1060D0000C4603F01FFC42F2107303FB05F04FF671
:1060E000FF73B0FBF3F064230549B0FBF3F203FB4D
:1060F0001203684603F036FC204603B030BD00BFF3
:10610000F45E0500D0E9003018474068FFF7FABF99
:106110000EB403B503AA52F8041B0192FFF7F5FF72
:1061200002B05DF804EB03B0704700000149FFF7CF
:10613000EFBF00BF245305000A46024B0249FFF798
:10614000E7BF00BF75A205001C5F0500F8B5074E4C
:1061500007460C468D18AC4206D014F8012B314688
:106160003846FFF7D5FFF6E7F8BD00BFFC5E050037
:1061700010B50446FFF7EAFF2046BDE81040FFF7E0
:10618000D5BF000010B586B01946044610466A46D1
:10619000FFF76DFF034902462046FFF7B9FF06B03F
:1061A00010BD00BFC738050010B50446FFF7EAFF71
:1061B0002046BDE81040FFF7B9BF000010B58AB017
:1061C000044628220846694601F0F1FE03496A4662
:1061D0002046FFF79DFF0AB010BD00BFC73805007D
:1061E00010B50446FFF7EAFF2046BDE81040FFF770
:1061F0009DBF000010B58CB004462D2208466946AC
:1062000001F0D9FE03496A462046FFF781FF0CB032
:1062100010BD00BFC738050013B5CC884B880A886D
:1062200064BAA4B20194898849BA89B25BBA52BAF5
:1062300000919BB2024992B2FFF76AFF02B010BD13
:10624000015F050010B50446FFF7E6FF2046BDE8F4
:106250001040FFF76BBF000010B58CB00446302231
:106260000846694601F0A5FE03496A462046FFF745
:106270004FFF0CB010BD00BFC738050010B5044675
:10628000FFF7EAFF2046BDE81040FFF74FBF0EB40E
:1062900017B505AA044652F8041B0192FFF735FF13
:1062A0002046FFF743FF03B0BDE8104003B070473E
:1062B000034A044B002914BF11461946FFF7E7BFF4
:1062C000125F0500BE3F05000CB473B506AD044671
:1062D00055F8046BFFF730FF2A46314620460195FA
:1062E000FFF713FF2046FFF721FF02B0BDE8704023
:1062F00002B070472DE9F341DFF83C800D4F1446A2
:106300008E18B4420FD041460190FFF701FF14F8F8
:10631000015B0198002DF4D03946013D0190EDB2AA
:10632000FFF7F6FEF5E7044902B0BDE8F041FFF7DC
:10633000AEBF00BF9EA80500B6A705002DE9F04F2F
:10634000DFF87090DFF870B085B004460E461F4647
:10635000154603F1FF3802EB810A55451CD055F86C
:10636000043B18F8012F0392184602934BF025FFC7
:10637000039A029B0230904206D8C2F101025946AC
:106380002046FFF7C5FEE8E700934946134620463E
:106390005242FFF7BDFEE0E720460549FFF777FFD1
:1063A0003A463146204605B0BDE8F04FFFF7A2BFA0
:1063B000BE380500205F05001A5F050070B50D4668
:1063C000094906461FF0CCF8044618B101232B708A
:1063D000002070BD054930461FF0C2F808B12C708E
:1063E000F6E72320F5E700BF275F05002E5F0500D5
:1063F00037B5054608460DF107011446FFF7DEFFE5
:1064000028B99DF807102868A04703B030BD2320A5
:10641000FBE770B50E68154604461A461EB1BDE886
:106420007040FFF7E5BF0068A84701462046FFF728
:106430003FFF304670BD70B5064600680C4608B98F
:10644000072070BD2F214BF099FE054688B104F15D
:10645000080101301EF0F2FF0028F2D1227A013A41
:106460003F2AEDD8287030682146BDE870401EF004
:1064700089BF1720E5E70000013002289ABF024BD0
:1064800053F8200001487047545F050075A20500CD
:106490002DE9F341804608680F4616461D46C0B1F7
:1064A00011461FF032F800232B70044668B138689B
:1064B00001A91FF02FF840B9324601A9404601F06A
:1064C00066FE044608B901232B70204602B0BDE8E1
:1064D000F0810724F9E7037813F0010F0B461CBF86
:1064E000722203F8012B0278920744BF642203F85A
:1064F000012B0278520744BF6E2203F8012B8B4216
:1065000004BF2D2203F8012B00221A7008467047A1
:1065100003289ABF024B53F820000248704700BF7F
:10652000685F0500605F050000F1402000F5003065
:10653000002382B0036003680193019B02B070479F
:1065400008B5094B020103EB0010084B4168C3F882
:106550004813C168C3F808130089FFF7E5FF044B2F
:106560000021995408BD00BF785F0500004002403B
:10657000A02A0020224B37B519460120D3E84F2F1F
:10658000D2B28DF807209DF8072062B1BFF32F8F9C
:106590001C4B1A681C4B12B91A68D2072DD5186803
:1065A0000230400827E0C3E8420F002AE6D1174B2B
:1065B0000222C3F80823BFF35F8F03F58273124AE8
:1065C0001B684BB1136801331360BFF35F8F4FF447
:1065D0008270FFF7A9FF012310680C4C02250130DF
:1065E0004008C4F80453BFF35F8F00240C7013B14C
:1065F00013680133136003B030BD1868D1E700BFE2
:10660000902A002004410240942A002000400240C9
:106610002DE9F04106460C46FFF7ACFF0546BFF3F7
:106620005F8FDFF82080D8F80475BFF35F8FFFF726
:10663000A1FF3060854218BFD8F804752760BDE817
:10664000F08100BF004002402DE9F8434C4CDFF8D8
:1066500040E1DDE9083C04EB021889469842D8F88D
:106660000C10D8F80480CEF808134FEA0215CEF8C3
:1066700044839E4672D9A0EB0308B8F1000F6DDA8F
:1066800000334CF1FF3CC84618EB00084FF0000304
:106690004FF0000949F1000913EB08064CEB09071C
:1066A00032B94FF47A7303FB07F1A6FB03670F447B
:1066B000344B4FEA563848EAC748A8FB0389790BA0
:1066C00003FB01994FEA18704FEA197840EA091064
:1066D00043F609534FEA482C4CEAD05C4FEA402E6F
:1066E000A0FB030103FB0811B6EB000867EB0106F2
:1066F000254840F2314101FB08F100FB0616A8FBDA
:106700000078B0444FF0FF36BE1947F6FF7048EBF3
:1067100000004FEAD03818EB0E084FF0000141EBB3
:106720000C0C28F07F4640F2FF10A8FB038903FB06
:106730000C9918EB000049EB0101D2B1400A40EA84
:10674000C150490A114B124A2B44C3E90201635953
:1067500003F5A87342F82360BDE8F883704592D230
:10676000AEEB000EBEF1000F8DDA00334CF1010CE0
:1067700089E74FF4FA2200234BF0DAF9E2E700BF91
:10678000785F0500D07B63087B2DE8BDA02A002040
:106790000040024073B5064601A96846FFF738FF7E
:1067A000019843F6095140F2FF120023E1FB002358
:1067B000540A44EAC3545D0A009A084BE3FB0245BD
:1067C00046B9204629464FF47A7200234BF0B0F9BF
:1067D00004460D462046294602B070BD0080841E46
:1067E000F8B51A4D05EB00130446060118890F464B
:1067F000FFF79AFE2046FFF7CDFF02460B463FB952
:1068000013493144D1E902018B4208BF82421CD3B3
:106810003544104B6A68C3F84823022CEA68C3F871
:1068200008230AD0032C0CD0094A012393550A4AA5
:106830001370BDE8F84000F056BFBDE8F84044F0E2
:1068400093BBBDE8F84043F09BBEF8BD785F050000
:10685000A02A0020004002408F2A00202DE9FF419D
:106860000746884602A803A91646FFF7D1FE0398FB
:1068700043F6095140F2FF120023E1FB0023540AC2
:1068800044EAC3545D0A029A294BE3FB024546B928
:10689000204629464FF47A7200234BF049F904460A
:1068A0000D463246CDE9004541463846FFF7CCFE5D
:1068B000204B039AD3F804359A4203D003A902A8C7
:1068C000FFF7A6FE039B43F60950991C40F2FF1206
:1068D0000023E0FB0123540A44EAC3545D0A029AF0
:1068E000134BE3FB024546B9204629464FF47A7222
:1068F00000234BF01DF904460D460F4A02EB061229
:10690000D2E902239D4208BF94424FEA061107D301
:1069100001213046FFF764FF40BF04B0BDE8F081BD
:10692000064B0B44DA68034BC3F80423F5E700BFBA
:106930000080841E00400240A02A0020785F0500ED
:1069400038B52A48402200214BF0F4FA284B0020A9
:106950001860284B1870284B00240025C3E9004517
:1069600047F0D4FA47F010FB0028FBD0234BC0229D
:1069700083F824231022C3F884215A60204A00237C
:10698000C2F808354FF48270FFF7CEFD0223C2F83B
:1069900044334FF4A070C2F80433FFF7C5FD4FF441
:1069A0008033C2F848334FF4A270C2F80833FFF7BF
:1069B000BBFD4FF40033C2F848334FF4A470C2F863
:1069C0000833FFF7B1FD4FF48023C2F848334FF48A
:1069D000A670C2F80833FFF7A7FD4FF40023C2F8F2
:1069E0004833C2F808330123136038BDA02A0020C1
:1069F000942A0020902A0020982A002000E100E03C
:106A0000004002402DE9F04100260B4F0446B046FD
:106A10000A4D87F800802B7C1BB120462E7403F0B2
:106A200081F92B781BB120462E7003F043F93B7897
:106A3000002BEDD1BDE8F0818F2A0020A02A002094
:106A40000120FFF7A7BE08B5FFF7FAFF4FF47A72EF
:106A500000234BF06DF808BD084611460022FFF7F1
:106A6000FDBE0020FFF76CBD08B5FFF7E9FF08BDCC
:106A7000084611460122FFF7F1BE0120FFF760BD75
:106A800070477047044B4FF48022C3F80823BFF3CC
:106A90004F8FBFF36F8F704700400240024B4FF49F
:106AA0008022C3F80423704700400240FFF7DCBF98
:106AB0001F2070470222FFF7D1BE0220FFF740BD22
:106AC0002DE9FF48154F164E40F2FF14002502A98C
:106AD00003A8FFF79DFD029A43F609532046294675
