:1010000000000420B1E60000D9E60000DBE60000A5
:10101000DDE60000DFE60000E1E600000000000081
:10102000000000000000000000000000E3E60000F7
:10103000E5E6000000000000E7E60000E9E6000049
:1010400075B80000E9A30000EBE60000EBE6000045
:10105000EBE60000EBE60000EBE60000EBE600004C
:10106000EBE60000EBE60000EBE60000EBE600003C
:10107000EBE6000051430000EBE60000EBE6000069
:10108000EBE60000EBE60000EBE60000EBE600001C
:10109000EBE60000EBE60000EBE60000EBE600000C
:1010A000EBE60000EBE60000EBE60000EBE60000FC
:1010B000EBE60000EBE6000000000000000000008E
:1010C000EBE60000EBE60000EBE60000EBE60000DC
:1010D00041360000EBE60000EBE6000075C70000BB
:1010E000EBE60000EBE60000EBE60000000000008D
:1010F00000000000EBE6000000000000EBE600004E
:1011000000000000000000000000000000000000DF
:1011100000000000000000000000000000000000CF
:1011200000000000000000000000000000000000BF
:1011300000000000000000000000000000000000AF
:10114000000000000000000000000000000000009F
:10115000000000000000000000000000000000008F
:10116000000000000000000000000000000000007F
:10117000000000000000000000000000000000006F
:10118000000000000000000000000000000000005F
:10119000000000000000000000000000000000004F
:1011A000000000000000000000000000000000003F
:1011B000000000000000000000000000000000002F
:1011C000000000000000000000000000000000001F
:1011D000000000000000000000000000000000000F
:1011E00000000000000000000000000000000000FF
:1011F00000000000000000000000000000000000EF
:101200000348044B834202D0034B03B11847704795
:10121000C4000020C4000020000000000548064B68
:101220001B1AD90F01EBA301491002D0034B03B1E4
:1012300018477047C4000020C400002000000000D0
:1012400010B5064C237843B9FFF7DAFF044B13B10E
:101250000448AFF300800123237010BDC8000020B4
:10126000000000007C22010008B5044B1BB10449BA
:101270000448AFF30080BDE80840CFE7000000005D
:10128000CC0000207C220100A3F5803A704700BF0B
:10129000154B002B08BF114B9D46FFF7F5FF0021B2
:1012A0008B460F461148124A121A0EF0F5FA0C4BF3
:1012B000002B00D098470B4B002B00D09847002004
:1012C000002104000D000B480EF0F2FF0EF042FA70
:1012D0002000290000F011F80EF0D8FF00000800EF
:1012E000000000000000000000000420C8000020F2
:1012F000C456002041070100704770B505460E46F0
:101300003146284602F02CFF03F058FA044600F05C
:1013100019F802F04FFF18B1204603F053FAEFE737
:10132000204603F00FFB204602F04AFFF1E710B51C
:101330000C4603F021FA204610BD00F0F9B800F089
:10134000EEB8000010B5044603F0F8F92046024953
:10135000BDE8104000F044B82F13000038B5044633
:10136000154600F091F904F68213C4F87859C4F8D0
:101370007C3904F58C504FF4006304F58C55A4F8C7
:10138000803904F67C110C35043006F071F92846DA
:1013900006F0D0F904F58D5104F580530431881D11
:1013A000C3F8A4014FF40070A3F8A8010948002273
:1013B000C3E9EC02A3F8A02183F8AC232846234616
:1013C000054A06F0BEF9201D0449224605F058FCE6
:1013D000204638BDF714000009160000191400005B
:1013E00010B5064C0A4601462046FFF7B7FF00F04D
:1013F000D5F9844200D0FEE710BD00BFE800002010
:10140000D0F87C2900F682139A4204D100F59D5051
:10141000103003F00FBB7047FFF7F2BFF8B504467A
:10142000061D00F58055304605F035FD95F8A031D4
:1014300010B1022B39D00FE0012B4BD0022B34D04E
:10144000002BF0D1204600F0AFF908B102F06EF9A0
:10145000204600F0B3F940B1D4F87C5904F682106C
:101460002D1AA9B200293FD1F8BD04F58C500430E3
:1014700006F002F90028EFD1304605F052FD0123B5
:1014800085F8A031304605F061FDF0B194F8987010
:10149000304605F031FE2FB194F8983013B901238E
:1014A00085F8AC33022385F8A03104F58C50043064
:1014B00006F01AF90028CFD195F8AC3385F8A001D1
:1014C000002BB0D085F8AC03ADE7304605F047FD02
:1014D00085F8A10104F58C5095F8A111043006F0AF
:1014E000D5F80028CED0B7E7D4F878399847ADB210
:1014F0008542B9D0FEE708B500F050F9BDE80840D4
:10150000FFF78CBF00F68213C0F87C394FF40063FC
:10151000A0F8803900F59D50103003F08BBA08B563
:1015200000F03CF918B1BDE80840FFF7EBBF08BD7B
:1015300038B504460D4600F031F940B100F58C5045
:101540002A4621460C30BDE8384006F0FFB838BDC9
:101550002DE9F0410C46A0B016461F4600F038F9C0
:101560002346194ADFF86880802168460EF0E8FEBD
:1015700068460EF025F969460246002001F098F809
:101580006D460024BC4201D0292C12D104EB440446
:101590000E490DEB04000DF07FFE68460EF010F9C9
:1015A0000DF10101421E002001F082F820B0BDE8DB
:1015B000F081A4EB8401335D2846424680310EF071
:1015C000BFFE01340335DDE7681701008217010013
:1015D0007C17010038B500F5805400F58D55D4F81E
:1015E000A4310A355B1B9BB251B91A46294600F05B
:1015F000BBFE4FF40073C4F8A451A4F8A83138BD61
:101600002A46FFF7A5FFF4E7FFF7E4BF05F038BD72
:101610000020704701B1FEE7006870471C282ED8F3
:10162000DFE800F00F3011132D1517192D2D2D2D7A
:101630001B1D1F212D2D2D272D2D2D25232D2D2932
:101640002B00002070470E2070470B2070470C20A5
:10165000704709207047032070470220704704201C
:1016600070471120704712207047132070471420D4
:10167000704716207047172070471820704700F5F4
:101680008040704701207047F8B50646044646F88A
:10169000041B4FF4006200F1D101304605F0E3FA7B
:1016A0000025266504F1540304F17402C3E90055D2
:1016B00008339342FAD1C4E91E55A4F8745004F1DA
:1016C000800005F054FD304A84F898500421C82366
:1016D00084F8C8102D49C4F89C50C4E928232C4B29
:1016E0000968C4F8CC100022C4E92B354FF6FF7707
:1016F000002304F51761C4E92E23C4E93023A4F8BC
:10170000A870C4F8B45084F8D050A4F8D258A4F803
:101710004C5984F84F59A4F8505984F85259C4F8D8
:101720005859C4F85C59C4F86059C4F8645984F82D
:101730006859C4F86C59C1E90023236803B9FEE76E
:10174000144B15491C602246304605F09CFA78225D
:10175000002104F6D4000EF09FF87722002104F156
:10176000B80084F8535984F8555984F8547984F8AA
:101770004E5984F8D15801F095FB04F1AC0003F008
:1017800059F92046F8BD00BF00F8FF07581D0100B9
:10179000511B0000A0140020B71B0000014B18686B
:1017A000704700BFA014002090F8C830042B1ABF67
:1017B00090F8980080F001000020704790F8C83041
:1017C000012B06BF90F8980080F0010000207047C0
:1017D000D0F858390133C0F8583970472DE9F8432B
:1017E000994690F850390D1E0446164608BF7025DC
:1017F00013B10D20BDE8F88300F1B807294638463B
:1018000001F0C8FB0028F4D194F8D22894F8D3381A
:101810009A420AD00B220021384601F043FB04F122
:10182000AC0003F007F90320E4E704F150082B466D
:1018300006228021404605F098FE58B9206D1FFA17
:1018400089F2314605F02DFC20B9404605F070FEC6
:101850000028CFD00328CDD1DCE7000001380428D0
:101860009ABF024B185C0020704700BFA41701000C
:101870002DE9F8430C4616461A4601F00F0311F005
:101880000F0106D1022E02D1B83001F00BFB00206F
:101890000DE090F8D35890F8D2E8A5EB0E070E2F84
:1018A00007DDB8300E22002101F0FCFA0320BDE86C
:1018B000F883C4F30117C419B84694F8D1488C4290
:1018C0003BD129460E293CD801F58D7100EBC101B1
:1018D00047F0400444EA83048B8806F0030623F4AF
:1018E0005F7323F0030344EA06241C438B688C8057
:1018F00062F3170301358B6080F8D358C7E70F3CBC
:10190000E4B20E2CFBD804F58D7400EBC40494F8FB
:1019100004C01CF0400F0CD00CF00309C84508D1DE
:10192000CCF38309894504D12CF0400C84F804C021
:10193000C7E70EF1010E5FFA8EFE7545C1D97446F8
:10194000DFE70F39C9B2BDE713460222FFF790BFA8
:1019500038B511F0300F00F1500408BFC0F89C20DA
:10196000154600230622204605F0FFFD48B929460A
:10197000204605F046FD20B92046BDE8384005F078
:10198000D7BD38BD2DE9F74304460D4668461146DC
:1019900091461E4600F0BEFEDDE900782FB918F032
:1019A000010F02D1E6B932461BE004F150064B4666
:1019B00006222946304605F0D8FDC8B94FEA68032B
:1019C00018F0010F18BFE35804EB680018BFDF5987
:1019D000B84768B9304603B0BDE8F04305F0A8BD8C
:1019E0000D222946204603B0BDE8F043FFF7B0BF03
:1019F00003B0BDE8F08370B50446002694F8D258D1
:101A000094F8D338AB4201D1002033E005F58D7551
:101A100004EBC5021379590616D404EBC5052B79DE
:101A200023F040032B7194F8D2380133DBB20F2B33
:101A300084F8D238E2D194F8D33884F8D2680E2BE7
:101A400020D884F8D338D9E7C3F30100C3F3830166
:101A50005379926841EA001103F0030361F07F01BA
:101A6000022BC9B2C2F3170205D12046FFF770FF5F
:101A70000028D2D070BDB3FA83F35B092046FFF78C
:101A800081FFF5E70F3BDBB2D9E700002DE9F84F06
:101A9000D0E92E321343044604D1012384F8683977
:101AA000BDE8F88FB83001F0FAF9284F80460025DC
:101AB0004FF00109EBB24345EFD2D4E92E30C5F126
:101AC0002001A5F12002EB4000FA01F10B4320FABE
:101AD00002F2134313F0010FC5F1200AA5F120060D
:101AE00002D10C370135E5E73A682ABBD7F804B0D4
:101AF000BBF1770F06D1206801F0FEFD082898BFE2
:101B000000F1700B5A4680212046FFF721FF002884
:101B1000C3D1D4E92E3209FA06F629FA0AFA46EABE
:101B20000A0609FA05F123EA010322EA0602C4E9DA
:101B30002E321343D5D1B0E794F86839002BE8D0A2
:101B4000012380212046FFF71DFFE0E7001B010075
:101B5000014B1868FFF79ABFA014002090F8983046
:101B600010B5044633B1D0F8CC308B4204BF00230B
:101B700080F898302046FFF73EFFD8B994F8D0108F
:101B800099B101230C222046FFF7FCFE90B994F88E
:101B9000C83084F8D000042B07D0201D05F079F957
:101BA0000123C4F8CC0084F898302046BDE81040EA
:101BB000FFF76CBF10BDFFF7D1BFF8B500F15005BE
:101BC00004462846069EBDF81C7005F0CEFC50B9B0
:101BD000206D3A46314605F064FA20B92846BDE842
:101BE000F84005F0A5BCF8BD2DE9F04F042B87B0F7
:101BF00004460D46174602D0052B18D0FEE71146C5
:101C000004A800F09FFDDDE904864FF0070906F007
:101C1000010BB8F1000F13D1BBF1000F10D10D2251
:101C200029462046FFF790FE07B0BDE8F08F114629
:101C300004A800F093FD4FF00809DDE90486E6E70B
:101C400004F1800A504605F06CFB0DF10A0203A96D
:101C5000504605F047FB504605F06AFB002384F828
:101C6000503904EB66007310BBF1000F02D0E3584B
:101C700053F80880C047012384F85039064618B14C
:101C8000FFF7CCFC0246CBE7BDF80A300193039B7B
:101C900000934A463B4629462046FFF78EFF002820
:101CA000C2D03246BCE708B50022FFF74DFE08BDA2
:101CB00037B50223B0F888208DF80730B0F88630A9
:101CC0009A42044622D1206802F080FD94F85229FD
:101CD00022440023FF2182F8541982F84E3982F8F9
:101CE000533982F8553904F15000C4F85839C4F812
:101CF0005C39C4F86039C4F8643905F066FC7022B8
:101D000080212046FFF724FE88B1FEE70DF1070190
:101D1000803005F044FA054600B1FEE79DF8073033
:101D20002068022BCFD002F04FFD024B1D60002037
:101D300003B030BDA014002010B50446006802F0C6
:101D40004EFD0146206DBDE8104005F099B910B573
:101D50000446006802F0DFFD0146206DBDE810403A
:101D6000FFF754BC37B50023054601A98030019325
:101D700005F093FA0446A0B99DF80410286802F013
:101D8000CCFD044668B9286802F029FD48B195F8F1
:101D900052392B4493F84E391BB1286802F044FDA8
:101DA0000446204603B030BD10B50446006802F07A
:101DB0001FFD410001F0FE01206DBDE81040FFF75E
:101DC00025BC13B5002304460DF1070180308DF8C2
:101DD000073005F0E4F958B99DF8073023B1013B0D
:101DE000012B07D9072003E00146206802F006FD19
:101DF00002B010BD0121F8E737B505460DF1070126
:101E0000803005F0DCF9044620B99DF807102868F9
:101E100003F08BFE204603B030BD10B5044654F8E5
:101E2000500B02F07DFD01462046BDE8104005F054
:101E30008CBA13B504460DF10601803005F0DDF9CA
:101E400020B9BDF80610206802F06CFD02B010BD8C
:101E500010B50446006802F068FD08220146206DB6
:101E6000BDE8104005F01DB913B50822044601A9CC
:101E7000803005F029FA18B90199206802F057FD61
:101E800002B010BD10B5044654F8500B02F052FDDC
:101E900001462046BDE8104005F057BA90F8523987
:101EA0000344006D93F84E1905F0EAB837B50023E6
:101EB00005460DF1070180308DF8073005F07FF9F8
:101EC000044688B9286802F08AFC30B19DF80730D2
:101ED000286863B102F0A8FC044695F852391D4405
:101EE0009DF8073085F84E39204603B030BD02F02A
:101EF00091FCF1E710B50446006803F012FE0146BC
:101F0000206DBDE81040FFF781BB10B504460068A6
:101F100003F009FE0146206DBDE81040FFF776BBD7
:101F2000F8B505460E460024012707FA04F33342AC
:101F300004D10134202CF8D10020F8BD286DE1B285
:101F4000FFF764FB0028F4D0F7E7F7B50023044659
:101F50000D4600F180060127B4F886202B60B4F806
:101F600088309A4202D1002003B0F0BD0DF1070184
:101F7000304605F014F90028F6D19DF807301F2BE4
:101F800004D82A6807FA03F31343E5E70720EBE7D1
:101F9000D0F8A010FFF7C4BF13B5002301A9044671
:101FA0000193FFF7D2FF10B9019BC4F8A03002B033
:101FB00010BDB0F8A410503005F0C7B900F1A4016D
:101FC000803005F01AB910B50446006802F007FC2D
:101FD000014640B194F85239234493F95419013120
:101FE00018BF01214900206DBDE81040FFF70EBB6E
:101FF00037B5002305460DF1070180308DF8073015
:1020000005F0CDF8044618BB9DF8073003B3022B4A
:1020100021D1286802F0E3FBD0B195F852392B4466
:1020200093F95429013218D1D5F8A010B9B14A1E3C
:102030000A4214D1B1FA81F1C1F11F0183F8541998
:10204000B5F8A420074B2868C9B202F0F8FB044693
:10205000204603B030BD0C24FAE70D24F8E707242E
:10206000F6E700BF6D2A000013B5044601A98030D1
:1020700005F013F928B90199012204F1B80000F024
:1020800045FF02B010BD13B5044601A9803005F02C
:1020900004F928B90246019904F1B80000F036FFAE
:1020A00002B010BDD0F89C10503005F0AAB910B5A0
:1020B00000F150040421204605F0A3F928B9204678
:1020C0000321BDE8104005F09CB910BD032150303C
:1020D00005F097B90021503005F093B910B500F123
:1020E00050040521204605F08CF9F8B90C21204652
:1020F00005F087F9D0B91821204605F082F9A8B972
:102100002221204605F07DF980B940F201212046C8
:1021100005F077F950B94021204605F072F928B949
:1021200020464121BDE8104005F06BB910BD10B547
:10213000044602F04DFB014604F15000BDE810409A
:1021400005F09AB9006D0121FFF760BA006D00211A
:10215000FFF75CBA006D0421FFF758BA0C207047F6
:1021600013B504466946006802F0E6FB206D0822BC
:10217000694604F096FF02B010BD0221503005F010
:1021800012BA90F8C810006DFFF740BA73B5044654
:102190000E4680300DF1070105F001F8054690BBB1
:1021A0009DF80730022B1FD003D9DA1E012A88BF01
:1021B000032384F8C830002384F8D0300C22012394
:1021C00031462046FFF7DEFB94F8C830042B17D0C9
:1021D00060B9201D04F05DFE0123C4F8CC0084F832
:1021E0009830284602B070BD0123E2E70A4B1B6815
:1021F000C4F8CC30012384F8983084F8D060F0E73C
:102200000028EED0F9E7FFF709FA314602462046EA
:10221000FFF79EFB0546E4E7581D01000C2A10B5A8
:102220001C4603D0712A06D0002010BDFFF7AEFF78
:1022300020700120F9E700F093FDF9E7F0B585B0D3
:1022400004460D4602A81146002716468DF8077071
:1022500000F06CFADDE9023000F0010273B96AB9EE
:102260000DF10703324629462046FFF7D7FFF8B99C
:102270000D2229462046FFF767FB17E0411084F83E
:10228000507904EB60000AB16258D3589847012294
:102290008DF8070084F8502918B1FFF7BFF90246FE
:1022A000E7E7334629462046FFF7E2FA8DF80700B4
:1022B0009DF8070005B0F0BD73B5002304460D4638
:1022C000803001A91646019304F0E7FF024640B1B1
:1022D000FFF7A4F9294602462046FFF735FB0246E0
:1022E00004E0032E15D004D8022E0CD0104602B004
:1022F00070BD331F012BF9D8019A33462946204679
:10230000FFF772FCEBE7019B29462046FFF7B0FA86
:10231000E5E7019A29462046FFF790FFDFE737B54A
:1023200004460D46803001A904F0B7FF80B9019A38
:10233000012A0FD008D9931E032B10D90522294654
:102340002046FFF701FB03E029462046FFF7ABFCE0
:1023500003B030BD29462046FFF7AAFCF8E729461E
:102360002046FFF7A9FFF3E773B5012300F18005CD
:10237000044680F85039002628468DF8076004F09E
:1023800003FF042384F8C83084F898600DF1070136
:10239000284604F004FF98B99DF907309DF807100E
:1023A000B3420DDAD4F85C390133C4F85C39C1F3B7
:1023B000011384F8523943B106222046FFF7C8FAC8
:1023C000002384F8503902B070BD2368002BF3D08D
:1023D0002046FFF7A4FF38B1FFF720F99DF807105A
:1023E00002462046FFF7B0FA94F8D32894F8D23882
:1023F0009A4202D02046FFF7FEFA94F852299DF83F
:102400000730224403F00F0392F8D11831B19942FA
:102410001EBFD4F860190131C4F860190F2B14BF26
:102420000133012382F8D138CAE710B504460068A9
:1024300001F0E0FAC1B2206DBDE81040FFF7E6B848
:1024400010B50446006801F081FDC1B2206DBDE801
:102450001040FFF7DBB8000010B50446006802F03A
:102460005AFAB8B10A280DD84FF4FA6303FB00F109
:1024700001F55C2101F5346104F15000BDE8104024
:1024800004F072BF192807D8044941F2883303FBCE
:102490000011F1E70249EFE70021EDE7B0DB23008F
:1024A000CC3F0D0013B504460DF10701006801F0A3
:1024B00019FB30B99DF80710206DFFF7A7F802B09F
:1024C00010BDFFF7ABF8014604F1500005F06BF8C2
:1024D000F5E713B5002304460DF1070180308DF8B0
:1024E000073004F07EFE20B99DF90710206801F046
:1024F0000DFB02B010BD13B504460DF107010068D5
:1025000001F0E6FA30B99DF80710206DFFF77EF86C
:1025100002B010BDFFF782F8014604F1500005F04B
:1025200042F8F5E713B5002304460DF107018030AA
:102530008DF8073004F055FE20B99DF9071020688A
:1025400001F0B2FD02B010BD13B504460DF1070154
:10255000006801F0F3FA30B99DF80710206DFFF71D
:1025600055F802B010BDFFF759F8014604F15000CC
:1025700005F019F8F5E713B5002304460DF107013E
:1025800080308DF8073004F02CFE20B99DF907103B
:10259000206801F0DDFA02B010BD37B500F180050A
:1025A00004460DF10601284604F0F9FD60B90DF16D
:1025B0000701284604F015FE30B99DF907209DF863
:1025C0000610206801F082FD03B030BD13B504464B
:1025D0000DF1060154F8500B01F090FD30B9BDF833
:1025E0000610204604F0B1FE02B010BDFFF716F849
:1025F0000146204604F0D7FFF6E713B504460DF177
:102600000601803004F0F9FD20B9BDF806102068FD
:1026100001F080FD02B010BDFEE7FEE710B50446F4
:1026200002F08CF9FFF71AF90146206DBDE8104061
:10263000FEF7ECBF37B5002300220446CDE90023A6
:1026400000F027FF6946054604F1800004F001FE12
:1026500060B9DDE90032AB4272F1000108D35B1BC7
:1026600062F10002C4F87039C4F8742903B030BDB7
:102670000720FBE700F51763D3E90023503004F08F
:102680008EBE10B50446006803F022FA01462046CB
:10269000BDE81040FFF744BC10B50446006803F0E5
:1026A0003CFA01462046BDE81040FFF739BC000067
:1026B0001346074A10B40446106828B10A4621465A
:1026C0005DF8044BFFF78AB80D205DF8044B7047A6
:1026D000A0140020F0B5013A04460C2600208242E6
:1026E0000DD870430A1809588B420BBFD2E901017B
:1026F0000023C4E90001C4E900332046F0BD1518E9
:102700006D0806FB05F7CF599F4234BF681C2A4667
:10271000E5E7000010B50B46044603492A22FFF7FF
:10272000D9FF204610BD00BF0819010010B50B46A7
:10273000044603491722FFF7CDFF204610BD00BF16
:10274000F417010010B50B46044603490322FFF7B6
:10275000C1FF204610BD00BFD017010010B50B46C9
:10276000044603490322FFF7B5FF204610BD00BF12
:10277000AC17010004F084BC0A21503004F041BEC3
:102780000421503004F03DBE70B516460C4600F1F1
:10279000500541B13AB98A880968284604F05CFEC0
:1027A00048B1012070BD0021284604F0CEFD00286C
:1027B000F7D1002C66D094F915102868C9B2FFF73C
:1027C000D9FF0028EDD128688021FFF7D3FF00282A
:1027D000E7D1002C58D0E17D090101F030012846F5
:1027E00004F0B3FD0028DCD1284604F05DFE01466C
:1027F0000028D6D104B1A1792868FFF7BBFF0146B4
:102800000028CED104B1A17D2868FFF7B3FF0028CE
:10281000C7D1002C3AD0D4E90223284604F0BFFDEA
:102820000028BED1284604F05EFE0028B9D1284613
:1028300004F03AFE0028B4D13146284604F0E1FD08
:102840000028AED1284604F04EFE0028A9D1284623
:1028500004F02AFE01460028A3D104B1217D286896
:10286000FFF788FF00289CD19CB12169284604F01D
:102870007BFD002895D1284604F035FE003818BFAE
:1028800001208FE7214698E72146A8E70022002390
:10289000C3E72146EAE70901F8B561F07F0100F1DD
:1028A0005007044615461E460622712301F0F0012A
:1028B000384604F05AFE50B9324629462046FFF702
:1028C00063FF20B93846BDE8F84004F031BEF8BDDA
:1028D000084B70B51E680C46014630461546FEF79B
:1028E00097FE2B46014622463046BDE87040FFF772
:1028F000D2BF00BFA01400202DE9F34704469DF885
:1029000028A015461E4601B1FEE790F8531900298C
:102910003DD041F080018BB31B68B3F80090C9F340
:10292000001995F81C80002304F1500784F85339EE
:102930000622384608F0010804F017FE38BB50465E
:10294000FEF76CFE0146384604F05BFDF8B9206DD9
:10295000494604F095FBD0B9206D414604F090FB48
:10296000A8B9BAF1000F0BD02B681B881B0711D434
:10297000384602B0BDE8F04704F0DABD9946D0E72A
:10298000524631462046FFF7FFFE0028ECD002B049
:10299000BDE8F087B8F1000FEAD00DF10301284639
:1029A00002F078FB0028F2D101A9284602F049FB89
:1029B0000028ECD19DF80310206DFFF7DBFE002806
:1029C000E5D10199384604F0CFFC0028D0D0DEE7ED
:1029D000F7B51E46084B1F680C460146384615469B
:1029E000FEF716FE009601462B4622463846FFF7B4
:1029F00083FF03B0F0BD00BFA0140020F8B504466B
:102A0000164601B1FEE7FF2390F9547980F8543956
:102A1000FEF700FE04F1500501F006FF39230622FF
:102A20008021284604F0A1FDF0B9206DF9B2FFF72E
:102A3000A1FEC8B9206DF1B2FFF79CFEA0B92846EF
:102A400004F076FD80B9802130230622284604F068
:102A50008CFD014640B9206DFFF78CFE20B9284659
:102A6000BDE8F84004F064BDF8BD000038B5074B80
:102A70001D680C4601462846FEF7CAFD224601465F
:102A80002846BDE83840FFF7B9BF00BFA0140020BA
:102A900010B5044654F8500B01F0CEFE0146204616
:102AA000BDE8104004F0ADBC90F852390344006D0D
:102AB00093F8551904F0E4BA10B5044654F8500BD5
:102AC00001F027FF02460B462046BDE8104004F007
:102AD00066BC10B590F8521901F655110446014430
:102AE000803004F06CFB48B994F8523920682344D4
:102AF000BDE8104093F8551901F0A4BE10BD73B5A0
:102B00000446006801F0E2FE0546B8B904F180060B
:102B1000B4F88830B4F886209B1A9BB2012B0DD9EB
:102B20000DF10601304604F068FB30B9BDF806101F
:102B3000206801F093FE0028EAD00546284602B03E
:102B400070BD73B50446006801F0CCFE0546B0B90F
:102B500004F18006B4F88830B4F886209B1A9BB242
:102B6000072B0CD9082201A9304604F0ADFB28B987
:102B70000199206801F07CFE0028EBD0054628462C
:102B800002B070BD13B504460DF10601803004F0AB
:102B900034FB20B9BDF80610206801F07BFE02B0BE
:102BA00010BD13B50822044601A9803004F08CFB47
:102BB00018B90199206801F077FE02B010BD13B575
:102BC00004460DF10601803004F017FB20B9BDF872
:102BD0000610206801F042FE02B010BD13B50023BC
:102BE0000446082201A98030019304F06DFB18B956
:102BF0000199206801F03CFE02B010BD13B500231E
:102C00000DF10701044680308DF8073004F0D7FA43
:102C1000014630B99DF8073020682BB901F0DCFD82
:102C20000146084602B010BD0049F7E7D128000070
:102C300013B504460DF10601803004F0DEFA20B928
:102C4000BDF80610206801F0CFFD02B010BD7FB5C1
:102C500000F180050C460DF10A0203A9284604F094
:102C60004CFB0646002875D1BDF80A207F2A74D88F
:102C70002646039956F8060BA2800DF031F831462E
:102C8000284604F08CFA0646002863D1A379A3767F
:102C900040F6047323837F23E376237F23F0170317
:102CA00043F00403C4E90400237704F11801284623
:102CB00004F075FA00284DD104F11901284604F0FA
:102CC0006EFA002846D10DF10601284604F077FA85
:102CD00000283FD1237F9DF8062062F382032377EB
:102CE00002A9284604F06BFAA0BB237F9DF80820B8
:102CF00062F3000323770DF10701284604F05FFA21
:102D000040BB237F9DF8072062F3410323770DF139
:102D10000901284604F053FAE0B9237F9DF8092001
:102D200062F30413237704F11401284604F079FABE
:102D300080B904F11001284604F073FA50B904F187
:102D40001A01284604F02BFA20B904F11B01284689
:102D500004F047FA304604B070BD0626FAE70000DA
:102D600011F0300F38B504460D4600D0FEE700687C
:102D700001F035FDA0B1206801F059FD0146D0B148
:102D80002046FFF764FF034658B90C49206801F05C
:102D900050FD034628B905F00F0584F8535938BD96
:102DA0000D231846FEF73AFC294602462046BDE8A8
:102DB0003840FEF7CDBD0323F3E700BFD129000063
:102DC00030B500F1800487B0054602A9204604F022
:102DD000E6F920B99DF80830082B02D0072007B08B
:102DE00030BD0DF10901204604F0D9F90028F6D1D3
:102DF0000DF10A0203A9204604F07FFA0028EED163
:102E0000BDF80A30102BE9D10DF10A0204A92046C1
:102E100004F073FA0028E2D1BDF80A30102BDDD19E
:102E20000DF10A0205A9204604F067FA0028D6D160
:102E3000BDF80A30102BD1D1059B0193049B009360
:102E40009DF80920039B9DF80810286801F056FDA5
:102E5000C5E737B500F180050446002301A92846DF
:102E60008DF8033004F0DDF9A0B9B4F88620B4F889
:102E700088309A4207D19DF80330206801995BB9E8
:102E800001F03FFD06E00DF10301284604F097F93B
:102E90000028F0D003B030BD01F037FDFAE71D2067
:102EA0007047000030B5184C002325688D4224D1AE
:102EB0006568954221D1D0E90225C3F1200405FAC5
:102EC00004F4A3F12001DA40224325FA01F10A4378
:102ED00012F0010FC3F12004A3F120020CD1012153
:102EE00021FA04F401FA02F222439940D0E90043A6
:102EF0000C431343C0E9004330BD0133DBB21D2B4B
:102F000004F10C04D1D1F7E7001B01002DE9F047D3
:102F100000241F4D26464FF0010C95F808E0BEF145
:102F2000000F22D02B688B421FD1A4F12003C4F1E3
:102F300020062CFA06F60CFA03F333430CFA04F7D6
:102F4000D0E902A96FEA0708DE43BAB14AEA0707E7
:102F500049EA0303C0E90273D0E9007307EA0807EE
:102F60003340C0E9007331B9764601341D2C05F1B8
:102F70000C05D2D14EB10020BDE8F08708EA0A0363
:102F800006EA0906C0E90236EDE70720F4E700BFCC
:102F9000001B010030B5104B00221C7A9CB11C684C
:102FA0008C4210D1D0E90235C2F12004A2F12001F7
:102FB00023FA02F005FA04F4204325FA01F108434C
:102FC00000F0010030BD0132D2B21D2A03F10C0322
:102FD000E3D10020F6E700BF001B010000F1402014
:102FE00000F50030002382B0036003680193019B69
:102FF00002B0704708B5094B020103EB0010084B03
:103000004168C3F84813C168C3F808130089FFF783
:10301000E5FF044B0021995408BD00BF5C1C010072
:1030200000400240A814002037B521490122D1E810
:103030004F3FDBB28DF807309DF8073063B1BFF327
:103040002F8F1C4BD3F804211B4B12B91A68D207DF
:103050002BD51868023025E0C1E8432F002BE6D1BC
:10306000144B0222C3F80823BFF35F8FD3F8043157
:10307000114A4BB1136801331360BFF35F8F4FF4F4
:103080008270FFF7ABFF01230A4C10680225C4F8D9
:103090000453BFF35F8F00240C7013B11368013326
:1030A00013600130400803B030BD1868FAE700BF74
:1030B000F814002000400240FC1400202DE9F041EB
:1030C00006460C46FFF7B0FF0546BFF35F8FDFF8FB
:1030D0002080D8F80475BFF35F8FFFF7A5FF30603D
:1030E000854218BFD8F804752760BDE8F08100BF9D
:1030F0000040024013B5044601A96846FFF7DEFF11
:10310000019A43F6095340F2FF100021E2FB03014C
:10311000400A009A064B40EAC150490AE2FB03010B
:1031200024B94FF47A7200230BF09AFE02B010BD5E
:103130000080841EF8B5194D05EB00130446060106
:103140001889FFF74BFF0F462046FFF7D3FF37B92B
:10315000134B3344D3E90223904299411CD33544A5
:10316000104B6A68C3F84823022CEA68C3F80823A6
:103170000AD0032C0CD00A4A012393550A4A137033
:10318000BDE8F84001F029B8BDE8F84005F0E2BA22
:10319000BDE8F84004F002BEF8BD00BF5C1C0100B1
:1031A000A814002000400240E81400202DE9F0415E
:1031B0003D4D3E4E05EB021C1401DCF80C70C6F8C8
:1031C0000873DCF80470C6F84473D3E90063B042B6
:1031D0005ED9861B002E00DA013B0026401846EB24
:1031E000060703EB070C311832B94FF47A7303FB6F
:1031F0000CF0A1FB031C84442D4B480B40EACC404F
:103200004FEA5C36A0FB030E03FB06EE000F40EA1C
:103210000E104FEA1E7E43F609534FEA4E2646EA49
:10322000D0564702A0FB0308091A03FB0E8E6CEB75
:103230000E0C40F23140DFF880E048430EFB0C00FA
:10324000A1FB0E1E0139704447F6FF7140EB0100EF
:10325000C00BC01946F1000720F07F46A0FB030118
:1032600003FB071140F2FF13C01841F10001AAB19E
:10327000400A40EAC150490A0E4B0C4A2344C3E9B4
:1032800002012B5903F5A87342F82360BDE8F081D1
:10329000A3D2361A002EB8BF01339EE74FF4FA22AC
:1032A00000230BF0DDFDE7E75C1C0100004002405D
:1032B000D07B6308A81400207B2DE8BDF0B585B055
:1032C00006460F46684601A91446FFF7F7FE019D22
:1032D0002A4A43F6095340F2FF100021E5FB03019F
:1032E000400A009B40EAC150490AE3FB020124B9AD
:1032F0004FF47A7200230BF0B3FDCDE9020102AB6B
:10330000224639463046FFF751FF1D4BD3F80435AE
:103310009D4203D001A96846FFF7D0FE019B43F60A
:103320000952023340F2FF100021E3FB0201400A80
:10333000009A124B40EAC150490AE2FB030124B94A
:103340004FF47A7200230BF08BFD0E4B03EB04134A
:10335000D3E90253A84299414FEA041206D301214E
:103360002046FFF7E7FE40BF05B0F0BD064B134413
:10337000DA68034BC3F80423F6E700BF0080841E1D
:1033800000400240A81400205C1C010038B52A4807
:10339000402200210CF080FA284B00201860284BB6
:1033A0001870284B00240025C3E9004508F0ACF84C
:1033B00008F0E8F80028FBD0234BC02283F8242330
:1033C0001022C3F884215A60204A0023C2F808352D
:1033D0004FF48270FFF702FE0223C2F844334FF429
:1033E000A070C2F80433FFF7F9FD4FF48033C2F840
:1033F00048334FF4A270C2F80833FFF7EFFD4FF4E3
:103400000033C2F848334FF4A470C2F80833FFF712
:10341000E5FD4FF48023C2F848334FF4A670C2F89C
:103420000833FFF7DBFD4FF40023C2F84833C2F83E
:1034300008330123136038BDA8140020FC140020B9
:10344000F8140020F014002000E100E000400240E9
:103450002DE9F04100260B4F0446B0460A4D87F88F
:1034600000802B7C1BB120462E7401F0C9FB2B7809
:103470001BB120462E7001F08DFB3B78002BEDD167
:10348000BDE8F081E8140020A81400200120FFF717
:1034900031BE08B5FFF7FAFF4FF47A7200230BF044
:1034A000DFFC08BD084611460022FFF707BF0020D9
:1034B000FFF7A0BD08B5FFF7E9FF08BD08461146B4
:1034C0000122FFF7FBBE0120FFF794BD7047704754
:1034D000044B4FF48022C3F80823BFF34F8FBFF390
:1034E0006F8F704700400240024B4FF48022C3F8B8
:1034F0000423704700400240FFF7DCBF1F207047E5
:103500000222FFF7DBBE0220FFF774BD7FB5134E2A
:10351000134D694601A8FFF7D1FD009C43F60952FF
:1035200040F2FF100023E4FB0203400A019A40EA44
:10353000C3505B0AE2FB0603CDE90203032202ABA0
:103540003E21FFF733FE4FF40023C5F80433D5F8CE
:1035500004359C42DDD104B070BD00BF0080841EE4
:103560000040024037B5044603200D46FFF7C2FD78
:103570006B46CDE90001032229462046FFF716FEDF
:10358000034B4FF40022C3F8042303B030BD00BF47
:10359000004002400320FFF72DBD0000214A08B57E
:1035A000012353604FF4A070FFF718FD4FF48033F0
:1035B000C2F848334FF4A270C2F80833FFF70EFD8B
:1035C0004FF40033C2F848334FF4A470C2F8083304
:1035D000FFF704FD4FF48023C2F848334FF4A67080
:1035E000C2F80833FFF7FAFC4FF40023C2F848335F
:1035F000C2F808330223C2F808334FF48270C2F8CD
:103600004833FFF7EBFCFFF7C5FF074B1022C3F869
:103610008420C3F88421002283F82423BDE80840D5
:1036200007F09CBF0040024000E100E00048704706
:103630004C410240014B986B704700BFA81400201A
:10364000114BD3F8042170B522B10222C3F808232C
:10365000FFF7EAFC0D4D0C4E0024D6F80423EB686E
:103660001A420AD02B8903F1402303F500331B686B
:103670001BB10021E0B2FFF75DFD0134042C05F120
:103680001005EAD170BD00BF004002405C1C010083
:10369000FFF7FCBE704770474FF08043044AD3F8F1
:1036A000001411604FF0FF32C3F80024704700BFD0
:1036B000041500207047000008B500F036FF0A4BE3
:1036C000187018B1094B04221A6008BDBFF34F8F60
:1036D0000749084BCA6802F4E0621343CB60BFF3AA
:1036E0004F8F00BFFDE700BF00150020041500202C
:1036F00000ED00E00400FA050B4B1B68D9070BD462
:103700009A070BD459070BD41A070BD413F4F81FDC
:1037100014BF062000207047012070470820704722
:1037200002207047032070470415002070470000F6
:1037300001238340074982B0DB4351E8002F019207
:10374000019A1A400192019A41E800200028F4D120
:1037500002B0704750150020074A82B052E8003F7F
:103760000193019B23F001030193019B42E8003187
:103770000029F3D102B07047501500200123094AF7
:1037800082B003FA00F052E8003F0193019B03432B
:103790000193019B42E800310029F4D102B000F00E
:1037A0001CBD00BF50150020F4230B70CE234B70BE
:1037B00036238B704FF0805382B01A6E5B6EC1F867
:1037C0000330CA7102B0704707B501A8ADF8041004
:1037D00004F06CFB03B05DF804FB0000054B01F145
:1037E000080010F8012D03F8012B8842F9D104F0EC
:1037F0005FBB00BFB015002007B501A8ADF80410ED
:1038000004F058FB03B05DF804FB0000124B0122EA
:1038100010B51A70114B7F221A70114B114A1A60A1
:10382000114ADA60114A00231370114A1C4642F80B
:1038300023400A33A02BFAD110227F210D480CF02F
:103840002BF80D48282200210CF026F80B4B1C60A9
:10385000BDE8104004F03BBBE11800205F150020DC
:1038600038160020B9150020A0150020E01800200F
:1038700060160020601500207815002048150020F3
:1038800008B504F069FB04F047FB024B00221A6004
:1038900008BD00BF5015002008B50C4B1B7883B93C
:1038A00004F04EFB04280ED004D8022814BF0220D6
:1038B000012008BD0638C0B2022834BF0320022010
:1038C000F7E70020F5E70320F3E700BFE118002049
:1038D000024B187880F00100704700BFE11800200B
:1038E000034B1A7812B10020187070470D207047F2
:1038F000E118002010B5084C23784BB9FFF7CCFF36
:10390000012803D0054B1B68DB0703D50123237077
:10391000002010BD0D20FCE7E1180020501500200C
:1039200008B504F01CFB28B900F0DBFDFFF714FF1D
:10393000002008BD0020FFF70FFFFFF71FFFF7E78C
:103940000B68F7B58A8803F8012C07460C4604F08B
:10395000F7FA022801D100F0C3FD204600F0A7FCD1
:1039600090B1204600F0AAFC70B1237F9B070BD4D6
:103970001C4B2046197800F0BFFC1B4B19682046F1
:103980004A1C1A6000F0BAFC6369A07953B125683B
:10399000009022690121681E04F0FBFAF8B10025AD
:1039A00001260FE004F068FA257F206815F0040571
:1039B00003D0013804F02CFBF1E72946013804F06C
:1039C000DCFA0646FFF7C8FE3846214602F071F8D9
:1039D00016B90220FFF7D2FE284603B0F0BD0D2530
:1039E000DEE700BF441500204C150020004870475A
:1039F0003816002008B5064B4FF4206043F0010351
:103A0000984704F0D4FABDE8084004F0D2BA00BFE9
:103A1000A01C0100FB20704704F0DCBA084604F04B
:103A2000DBBA084604F0DABA07B5ADF8041001A80D
:103A3000002104F0D5FA00280CBF0320002003B0B9
:103A40005DF804FB08B50846012104F0C9FA002816
:103A50000CBF0320002008BD07B5ADF8041001A875
:103A6000002104F0C6FA00280CBF0A20002003B091
:103A70005DF804FB08B50846012104F0BAFA0028F5
:103A80000CBF0A20002008BD002004F0B5BA0120B8
:103A900004F0B2BA4FF47A7310B55A430A4C0B4B88
:103AA000226008461970FFF757FE04F0E5F9206818
:103AB00004F077FA20B10520FFF73AFE002010BD90
:103AC0000520FFF75BFEF9E758150020551500208B
:103AD00010B50C4621B104F0E2F92070002010BDB1
:103AE0000720FCE713B50C4661B101A804F08EFA7B
:103AF000054A9DF8053012785E3B9B1A2370002022
:103B000002B010BD0720FBE75E15002013B50A4B7D
:103B10001878084440B210F15E0F0BDB00240194CA
:103B200004F0CEF98DF8050001A804F068FA2046EB
:103B300002B010BD0720FBE75E15002021B1034B4A
:103B40001B780B7000207047072070475E1500201F
:103B5000F7B50B4C054601A80E4694F9007004F029
:103B600055FA9DF80530227826705E3B9B1A59B2B3
:103B70002846FFF7CBFF00B1277003B0F0BD00BFB0
:103B80005E150020F8B50026404D044637462B68E8
:103B90004BB120460022294601F084FF28682F609F
:103BA000013804F002FA0136102E05F12805EED195
:103BB000374D2B689B0714D5364E0120FFF7B8FD13
:103BC00032683549002A20464FF0000318BF3246BC
:103BD00001F082FF306820B1013804F0E6F90023DB
:103BE00033602B685F0708D50220FFF7A1FD2A4943
:103BF0000F230022204601F06FFF2B681E0708D517
:103C00000320FFF795FD24490E230022204601F0F2
:103C100063FF2B68D80608D50420FFF789FD1F4BEA
:103C200000211A78204601F03DFF2B68590608D57F
:103C30000620FFF77DFD1A4B204693F9001001F096
:103C40003FFF2B68DA0708D504F089F90446A8B9C4
:103C500000F047FC2046FFF76BFD00242B689B0615
:103C600011D5104B187804F007F90F4B186804F0C1
:103C700098F928B9BDE8F84000F0AFBA0124EDE7A3
:103C80000520FFF755FD002CF4D1F8BD601600208B
:103C9000501500207815002038160020E01800206C
:103CA0005415002055150020581500202DE9F84F17
:103CB000324C98460546894692460027282303FB46
:103CC00007FB0BEB040654F80B1000294CD12822FB
:103CD00030460BF0E1FD6B1C44F80B302B78B380C1
:103CE00086F8159086F816A004F0D5F8B0716A78B9
:103CF000DFF8989012F020023DD1282303FB0744FF
:103D000004F11007E37D62F30003FB71FFF7D2FBC0
:103D100029788246404604F0D6F88046FFF7B6FB85
:103D2000AAEB0803C01A61F10001C4E902010023F3
:103D300089F800306B78124D13F0200F0ED030460A
:103D400000F0AAFA50B1FB792A7862F34103FB71C3
:103D50000C4B1B6823610C4B1B78237500232B70C5
:103D6000BDE8F84F00F039BA0137102FA7D1002372
:103D700001351D60FFDE99F80020BEE760160020C7
:103D8000101500200C1500200815002070150020CB
:103D9000431E092B09D8DFE803F00516191C1C1C6B
:103DA0001C051C1C0D4B12221A700D4A00231370A7
:103DB0000C4A0828137001D005280DD1074A0020AD
:103DC0001370FFF7DBBC054B1122EDE7034B162206
:103DD000EAE7024B0122E7E70420F2E7E0180020BF
:103DE000701500201015002070B54378254A264E26
:103DF000C3F3001100241B078AB00546117034700C
:103E00002FD5222221460DF106000BF045FD6B1C3B
:103E1000009368462B78ADF8043000F060FA054650
:103E2000684600F04BFAE0B1DDB1184B1B789D42BB
:103E300019D1174A1368591C1160164A164C029280
:103E40002360164B29461D7068460123337000F02D
:103E500053FA2168684600F051FA1149684600F0AB
:103E600019FA0AB070BD5A1E954205D10D4A136861
:103E7000591C11600C4AE1E701339D42F1D10B4A14
:103E80002346DBE7701500201015002044150020A4
:103E90004C150020241500200C15002008150020CA
:103EA000B0150020481500203415002014150020FE
:103EB0002DE9F047DDF820A0144C90461F460D4632
:103EC00029B92160BDE8F0470120FFF757BCFFF793
:103ED000F1FAA946064619F8011B504603F0F3FF14
:103EE0008246FFF7D3FAA6EB0A06801B61F10001B8
:103EF000C4E90201C4F800902B78A38084F81580EF
:103F0000A77503F0C8FFA071DCE700BF781500209B
:103F100007290ED8012303FA01F111F0D20F03D1C2
:103F200011F02C0F03D170470220FFF727BC0320AC
:103F3000FBE7704708B503F0BFFF034B1870BDE8FF
:103F400008400620FFF71ABC541500206FF06300EC
:103F50007047000010B50A4C204600F0A8F970B177
:103F6000204600F0ABF950B1237FDB0607D4054BA8
:103F7000A36020460449BDE8104000F08BB910BD95
:103F80003816002024150020B01500207047704717
:103F900000F0D6BCFFF77CBBF8B50020DDE9066574
:103FA00017461C4607F074FA0C4B1F7094E80F007C
:103FB0000B4F0C4C87E80F0096E80F0084E80F00C9
:103FC00095E80F00084C84E80F00084B1A68084B6E
:103FD00000201A60BDE8F84007F05CBA44150020E4
:103FE0003415002024150020141500204C15002045
:103FF0004815002010B500200C4607F049FA034B85
:1040000000201C60BDE8104007F044BA4C150020A9
:1040100010B500200C4607F03BFA054B1A68A24287
:1040200038BF1C600020BDE8104007F033BA00BF65
:104030004C150020A0F10B030F2B9DBF024B1B184A
:1040400013F90B0C7F2070476015002008B5FFF7AF
:10405000F1FF074B93F900307F2B04D09842A8BFA3
:10406000184640B208BD7F2808BF0020FAE700BF0D
:104070005F15002010B508460C4603F0FDFE03F066
:104080005FFF022801D100F02BFA2046FFF7DEFF88
:1040900003F003FF03F06BFFFFF75EFB00280CBF8C
:1040A0000D20002010BD000010B50C4603F0F3FEFB
:1040B0007F2C07D0044B1C70FFF7C8FF03F0EDFE08
:1040C000002010BD0720FCE75F150020A1F10B03C5
:1040D0000F2B10B50C460DD8074B0B4403F80B2CD7
:1040E00003F0D9FEA04203D1FFF7B0FF03F0D5FEE5
:1040F000002010BD0720FCE76015002021B1034B14
:104100001B880B8000207047072070475C1500203B
:104110007047000008B5034B08461980FFF7F8FF09
:10412000002008BD5C15002010B50C4C00F0D7F93C
:1041300000F05EF8FFF7A4FBFFF7BCFA23780BB999
:10414000FFF7A9FA207800F0EAF900F07BF9FFF711
:1041500025FABDE8104000F0C7B900BF00150020E7
:1041600010B5124C23780BB1FFF7DEFF104B012284
:10417000C3F8402507F0B0F900F0B4F9FFF706F9ED
:1041800000F01AF923780BB9FFF784FA207800F0D1
:10419000C1F9FFF781FAFFF739FB00F01FF800F0D3
:1041A0009DF9FFF777FA0023237010BD001500205A
:1041B00000E00140014B1878704700BF0015002057
:1041C00010B50446FFF7DEFC00F0ADF900F016F87C
:1041D0002046BDE81040FFF73BB97047034B002273
:1041E000C3F8042501221A60704700BF00C00040D8
:1041F000014B01225A60704700C000401A4BF7B5CE
:104200001A4CD3F8002125688AB10022C3F8002196
:10421000D3F800210192019AD3F80825D3F8083584
:10422000920544BF6FEA83536FEA93532360FFF70D
:104230002DF90F4B0F4FD3E90026821A61EB0606CA
:1042400097424FF00002B2413FBF074A0126166075
:10425000C3E900012368AB4204D003B0BDE8F040DD
:1042600003F022BE03B0F0BD00C00040E4180020FF
:10427000E818002080C3C90170477047034B1868D5
:104280000028B8BF033040F387007047E4180020CF
:104290000088704700F0B7BF08B50068FFF7F8FF67
:1042A00000F44050A0F500535842584108BD08B5ED
:1042B0000068FFF7EDFFC0F3C00008BD07B50DF1C2
:1042C000070100F0AEFE40B99DF80700A0F1080319
:1042D0005842584103B05DF804FB0020FAE707B5E7
:1042E00000230DF107018DF8073000F0D3FE9DF893
:1042F000070003B05DF804FB00F0E2BE00F0B1BEC1
:10430000074A084B1968136899421FBF1368591C64
:10431000116003F07F031ABF034AD05C002070478E
:10432000F4180020F0180020F8180020074B002295
:10433000C3F8002182B0D3F800210192019A012232
:10434000C3F804231A6002B0704700BF00D00040D9
:10435000154BD3F8002113B522B3D3F80823D207A5
:1043600020D50022C3F80021D3F800210192019A40
:104370000E49D3F808450E4B1A680868121A7F2AAE
:1043800006D81A68501C186002F07F02094884544D
:104390001B680A689B1A7F2B81BF034B0122C3F85D
:1043A00008235A6002B010BD00D00040F41800206D
:1043B000F0180020F818002038B5802200211C4891
:1043C0000BF06AFA1B491C4800230B6003601B4B6F
:1043D000C02283F80D234FF40052C3F880211A60E5
:1043E000174BD3F8042542F00102C3F80425D3F893
:1043F000002222F00102C3F80022FFF797FF0368B2
:104400000A689B1A032BFAD903680A689B1A032BC4
:104410000CD9042500200402FFF772FF013D40EA99
:104420000400F8D1BDE838400AF092BE0020F9E758
:10443000F8180020F4180020F018002000E100E037
:1044400000D00040074B0122C3F808235A60064BF6
:104450004FF40052C3F88020C3F88021002283F873
:104460000D23704700D0004000E100E02DE9F84F37
:10447000174E012389463370054630B329B3154FD3
:104480004FF0000A144B3C681B68E41AE4B2A9EB35
:104490000A039C42C8BFDCB284B105EB0A084FF0A6
:1044A000000BFFF72DFF0BF1010B5C4508F8010B2A
:1044B000F7D8FFF73BFF54441FFA84FACA45E1D30B
:1044C000002000233370BDE8F88F0720F9E700BF14
:1044D00078190020F0180020F41800207047704769
:1044E0007047704700F002B800F00EB808B501211F
:1044F000002006F09FFF0028A2BF024B01221A7085
:1045000008BD00BF79190020014B00221A707047C6
:104510007919002008B900F0B3B800F0E3B808B981
:1045200000F0C8B8704700F0E5B801207047FFF709
:1045300054BE000010B5134C237B0BB1237DDBB2BE
:10454000617B03F00102914206D062737BB107F0F8
:104550002FFE08B908F06CFC637D8BB100236375F6
:1045600007F026FE60B1BDE8104008F065BC07F01A
:1045700029FE10B108F070FCEEE708F05BFCEBE7F9
:1045800010BD00BF7C19002007B50B4801AA01210E
:104590000AF076F868B9019840B1FEF77AFF074B48
:1045A0001B69C01A0A2894BF0020012003B05DF8DF
:1045B00004FB0020FAE700BFB41C01007C190020B6
:1045C000012910B50ED0022901D071B110BD0A49E0
:1045D0000A484FF400720AF021F8FEF75AFF084B20
:1045E0001861F3E7064BD975F0E7054C01232376F4
:1045F0000AF00FF8A060E9E798190020B41C010048
:104600007C1900200838062814D8DFE800F0060DD1
:1046100010131313040008F00DBC074B00221A847A
:10462000064B01221A757047044B0022FAE7034B30
:1046300001225A75704700BF981B00207C1900208A
:1046400010B50D4C23686BB1FFF79EFF50B1A288E7
:1046500021680A4809F0BCFF18B90123A37520603E
:10466000A08010BDE37D002BFBD00023E375A37574
:10467000BDE81040FCF763BE7C190020B41C0100AB
:1046800008B51C22002108480BF006F909F028FAA9
:10469000064808F00BFB09F057FA054808F0E6FB5E
:1046A000BDE8084008F0AEBB7C190020A81C010042
:1046B000B41C010008B507F085FD58B108F0CCFB2B
:1046C00008F08CFE0028FBD108F056FCBDE808403D
:1046D00008F060BB07F06CFD0028F5D008F0AAFBDD
:1046E000F2E70000024B00229A751A609A80704728
:1046F0007C19002038B508F071FE05460028FAD173
:104700000B4CFFF717FF237E73B1A16821B1094855
:1047100089B2FCF712FEA560064907484FF4007203
:1047200009F07CFF00B92076BDE83840FFF788BF6C
:104730007C19002098190020B41C0100024B0122B2
:104740001A730020704700BF7C19002010B5094C77
:10475000A37D0BB1E37D1BB1FFF772FF002010BDFD
:1047600008F03CFE0028FBD1FFF7E4FEFFF768FFEE
:10477000EEE700BF7C19002070B50E4CA37D054606
:104780000E460BB1FFF7E2FF23687BB9FFF7FCFE93
:1047900018B92560A680002070BD0748324629461A
:1047A00009F016FF012318B9A375F4E70520F3E714
:1047B0001846F1E77C190020B41C010000F046BA4D
:1047C0000120704700F05FBA00F050BA00F050BA14
:1047D00000487047D81C0100143000F085BA806989
:1047E000003818BF01207047143000F0A9BA00004B
:1047F0000148FFF711B900BF281C002008B58369E4
:1048000023B10348FFF70AF9002008BD0D20FCE79B
:10481000281C0020836913B10248FFF781B80D20DE
:10482000704700BF281C0020143000F093BAC06B02
:104830007047143000F0A4BA243000F0D3BD143017
:1048400000F0B8BA08B5836923B10348FFF7E9F867
:10485000002008BD0D20FCE7281C0020836913B14F
:104860000248FFF7E1B80D20704700BF281C002068
:10487000836907B553B16846012200F02BFD044857
:104880006946FFF7DFF803B05DF804FB0D20FAE797
:10489000281C0020836913B10248FFF7DDB80D2002
:1048A000704700BF281C0020836907B553B16846D4
:1048B000012200F00FFD04486946FFF7DBF803B062
:1048C0005DF804FB0D20FAE7281C002008B5836979
:1048D00023B10348FFF7D8F8002008BD0D20FCE7FE
:1048E000281C002008B5836923B10348FFF7CFF8DF
:1048F000002008BD0D20FCE7281C0020143000F02B
:1049000075BA0022143000F0AABA0122143000F067
:10491000A6BAFEF7BDBE007D7047143000F0FFB9A7
:10492000C08A7047143000F0EDB92C307047143055
:1049300000F0FCB9408D7047FEF736BF012070478C
:1049400000F04EB810B50446FFF73AFF20B1201D25
:10495000BDE8104000F078B810BD0000034A13888D
:1049600003B9FEE7013B1380704700BF241C002001
:1049700031B16FF00043994208BF012101607047D7
:104980000121FBE737B50D4D2B884FF6FF7293429F
:10499000044600D1FEE753B904210DEB0100FFF7F7
:1049A00065FD00B1FEE701990548FFF7E1FF2B889F
:1049B000204601332B8003B030BD00BF241C0020F3
:1049C000201C0020026848F24E33A2FB032301465C
:1049D00013EB520044BF20F00043581C086070479E
:1049E000034B1B8803B9FEE70248FFF7EBBF00BF8C
:1049F000241C0020201C0020814238B505460C46AE
:104A000000D8FEE7FFF7ECFF641BB0FBF4F303FBF9
:104A10001400284438BD0000036823B9016004482D
:104A20004960FCF769BC5A684A6059600160704788
:104A3000281C00204368014613B90248FFF7ECBF69
:104A4000704700BF2C1C002038B5002504680560A5
:104A500004B938BD606884421CBF43686360036862
:104A6000456008BF00249847F2E743684968981AF0
:104A70008A1A92EA000F58BF581AC00F70470000F8
:104A800070B505680C4625B9BDE870404B6808480C
:104A900018478B6898476A68831A002B0146236879
:104AA000B8BF121ABDE870400148A8BF00221847DD
:104AB000281C002038B50C461146A26894420346D3
:104AC00006D00568AC420BD10260FFF7D9FFA460A5
:104AD00038BD94420DD011469268002AF9D1F6E70C
:104AE0002A460021F9E78B68002BF0D09B688B6089
:104AF000EDE70029F7D1002DE9D0AA681A60E6E7B2
:104B00002DE9F047936805460C461646984732460D
:104B1000814621462846FFF7CDFFD5F800A04FF08B
:104B2000000857462FB14A4639462046FFF79DFFF9
:104B300058B1B8F1000F0BD1C4F808A031462C6071
:104B40002846BDE8F047FFF79BBFB846BF68E9E7D6
:104B5000D8F80830A360C8F80840BDE8F08770B501
:104B6000066804460D467EB18B6898477368C01A84
:104B7000002809DB20462A463146FFF79BFF3368B1
:104B80003046BDE87040184729462046BDE87040D1
:104B9000FFF776BF10B50446FFF712FE30B104F1FF
:104BA00008000349BDE81040FFF7D9BF10BD00BFA2
:104BB000381D01004160024A01460248FFF7A0BFCC
:104BC0002C1D0100341C0020002A00DAFEE71144ED
:104BD000FFF7F0BF38B50D460446FEF76BFC2A46DA
:104BE00001462046BDE83840FFF7EEBF0146024AC5
:104BF0000248FFF75FBF00BF2C1D0100341C0020DE
:104C000010B50446FFF7DCFD30B104F10C00034998
:104C1000BDE81040FFF7A3BF10BD00BF2C1D010071
:104C200038B500250446C0E90155C5601030FFF7CE
:104C3000A9FE214604F1140000F043F884F89050D6
:104C4000FFF7CEFEC4F89400204638BD10B5064CE0
:104C500094F890302BB92046FFF7E2FF012384F847
:104C60009030014810BD00BF281C0020FEF724BD75
:104C700010B50446113000F0ABFE04F11400BDE89D
:104C8000104000F012B890F8903010B504465BB1B7
:104C9000002380F89030243000F0DEFB04F1100097
:104CA000BDE81040FFF75ABE10BD0023C0E9023333
:104CB00043600B2303704FF6FF734380103000F006
:104CC00032BB10B50B2303704FF6FF7343800023F4
:104CD000C0E901330446C360103000F04DFB2046AC
:104CE000FFF7E3FF204610BD38B504460D461030EF
:104CF00019B100F09BFB10B138BD00F0ADFB656051
:104D00000020F9E738B5436804460D462BB1103052
:104D100000F06CFB6580002038BD0D20FCE7436887
:104D200013B10170002070470D20704708B543682B
:104D300023B1103000F066FB002008BD0D20FCE719
:104D400008B5436823B1103000F056FB002008BDC1
:104D50000D20FCE743681BB110F8101B00F090BB5E
:104D60000D20704710B444682CB122B92346034883
:104D70005DF8044B18475DF8044B7047281C002071
:104D800038B5436804460D462BB1103000F00CFDD9
:104D900000B9A56038BD0D20FCE7000038B5856876
:104DA00004461DB10248A8470023A36038BD00BFD8
:104DB000281C002038B51D46436804462BB110302E
:104DC00000F0CAFB00B9E56038BD0D20FCE700002B
:104DD000436810B504462BB1C3681BB1024898471D
:104DE0000023E36010BD00BF281C00202DE9F04324
:104DF0008FB004460D4616460021102202A806AFC9
:104E000099460DF128080AF047FD10220021384686
:104E10000AF042FD1022002140460AF03DFD636881
:104E2000DBB10022494602A800F06BFA1699002275
:104E3000384600F066FA17990022404600F061FA01
:104E400004F11000CDE9007802AB3246294600F0AB
:104E50000FFC00200FB0BDE8F0830D20FAE708B585
:104E6000436823B1103000F085FD002008BD0D20FF
:104E7000FCE70088704708B5FFF7FBFFC0F3C000F0
:104E800008BD00F44052B2F5005F034620D120F483
:104E90004E5020F03F0048F2400290421ED00CD805
:104EA000B0F5446F1AD005D8C8B1B0F5046018BF8A
:104EB00001207047B0F50040F9E703F44C43B3F527
:104EC000404F0BD04CF64043C01A18BF012070472A
:104ED00010F4406F14BF012000207047002070477D
:104EE00000F44053B3F5005F04D100F44C43B3F534
:104EF0004C4F07D0B0F5804F04D380F04000C0F392
:104F00008010704700207047102805D0A0F11803CA
:104F100058425841C00070470420704700F0070015
:104F20000123834013F0220F09D113F0880F08D119
:104F300013F0440F14BF01200020C000704704206C
:104F40007047102070470000430708D000F0180396
:104F5000083BDBB2102B04D8034AD05C7047FF201B
:104F600070470520704700BF441D010010B580F454
:104F700080720446C2F30021FFF783FF50B98A1CF8
:104F8000C4F38123022B07D0032B16D033B1FF22A9
:104F9000104610BD0A1DF3E70232D2B22046FFF7D9
:104FA0009FFF08B10232D2B2A40B022C07D0032C0F
:104FB00008D0002C18BFFF22EAE70832EDE70232E2
:104FC000D2B2E5E70832FBE708B58388032B06D9A0
:104FD0000068FFF74EFFBDE80840FFF7C7BFFF209E
:104FE00008BD08B58388022B024608D90068FFF780
:104FF00042FF20B1BDE808401046FFF7E5BFFF20A3
:1050000008BD38B505460C46FFF7EBFFFF281FBF6C
:105010002B681B5C03F00703237014BF00200620DD
:1050200038BD38B505460C46FFF7DBFFFF281FBF2C
:105030002B681B5C03F01803237014BF00200620AC
:1050400038BD38B505460C46FFF7CBFFFF281FBF1C
:10505000431C2A68DBB200201ABFD3582360062005
:1050600038BD38B505460C46FFF7BBFFFF2800D119
:10507000FEE72A68431CD9B252FA83F35454220A39
:105080005A70220C240E9A70DC702B7F43F00103BF
:105090002B7738BD70B506460D46FFF7A2FFFF28F7
:1050A00004460BD03268105C00F01800FFF72CFFAC
:1050B00022440244002053792B7070BD0620FCE787
:1050C00070B506460D46FFF78CFFFF28044600D159
:1050D000FEE73268105C00F01800FFF715FF22446D
:1050E0000244557170BD10B50446FFF77AFFFF28E2
:1050F00006D02368185CFFF711FF0230C0B210BD64
:105100000220FCE710B50446FFF75EFFFF280146CA
:1051100011D022681046FFF7AEFE60B1A488A1420C
:105120000BDA505CFFF710FFFF2808D00144C9B22A
:105130008C42B8BFFF21084610BDFF21FBE70146A6
:10514000F9E7F8B50646FFF7DDFFFF2804462ED045
:1051500037683846FFF78DFE830505461CD5304677
:10516000FFF7C1FFB188A21C93B210FA82F28A4203
:1051700007EB04061DDC3A5D02F07F0213449CB28B
:1051800010FA83F3994214DB328802F4FF42B2F53D
:105190007E5F01D09942E6DC05F44053B3F5005F31
:1051A00005D005F00705032D01D10134A4B2E0B20A
:1051B000F8BDFF24FBE710B50446FFF7C2FFFF2848
:1051C00016BF23680020C01810BD10B50446FFF7B5
:1051D000F2FF2368C01AC0B210BD70B586880546BC
:1051E000FFF7F3FF04462846FFF77DFF0444301B1A
:1051F00080B270BD38B504460568FFF774FFA38818
:10520000181A284438BD2DE9F0410446E2B00023C5
:1052100008A80D46039300F03AFE2068FFF72BFE26
:10522000002851D00DF10B012046FFF7EAFE0028BF
:105230004AD103A92046FFF704FF0646002843D1C0
:105240000DF110089DF80B2003994346284600F005
:1052500010FEA16808A800F069FC2046FFF743FF94
:1052600005462046FFF7B1FF07462046FFF7B5FF8A
:10527000023D0D2302463946CDE9008308A8EBB272
:1052800000F060FC2046FFF7A0FF25680246294693
:1052900008A800F000FD2046FFF78DFF05462046D8
:1052A000FFF79BFF2A460346294608A8009600F010
:1052B00036FD2046FFF79EFF014608A800F0BBFD23
:1052C000237F43F01003237708A800F0FAFD62B0B3
:1052D000BDE8F08112B1012A05D070470B68036068
:1052E0004B684360704701F10803013813F8012D42
:1052F00000F8012F8B42F9D17047102200210AF0EB
:10530000CBBA30B50B46024601F110051868596852
:10531000144603C40833AB422246F7D130BD1023F4
:1053200008608B80704738B54FF6FE73C380038AE0
:1053300003F0FE0343F4FE43002543F0010304465B
:105340000382458005718560C560456180F85D50C8
:105350002830FFF7D2FF04F13800FFF7CEFF04F149
:105360004800FFF7CAFF84F85C50A56504F16000AF
:10537000BDE83840FFF73ABC70B5184E04463046D9
:105380000D46FEF747FB20803046FEF72FFB102628
:10539000A061294604F11C00002500F001FB324603
:1053A0002946C4E9085504F128000AF075FA324686
:1053B000294604F138000AF06FFA3246294604F112
:1053C00048000AF069FA2346054A43F8602F204650
:1053D000A366FFF7A8FF204670BD00BF281C002071
:1053E00069590000008840F0E40070470148FEF76A
:1053F000EBB900BF281C0020C180014800F046BB6B
:10540000391C002013B500F108030C4608684968F0
:10541000012203C321466846FFF75CFF0248694644
:1054200000F02EFB02B010BD391C0020837810B5AF
:10543000044663B90748FEF753FA50B90548FEF72A
:105440006FFA30B9A378012B01D00123A37000209B
:1054500010BDFEE7281C002010B504466030FFF7A1
:10546000C5FB0648FEF75CFA30B90448FEF742FA7D
:1054700010B9A37803B1A07010BD00BF281C002094
:1054800010B504460448FEF7F5FD20B9A378022BB9
:105490001CBF0223A37010BD281C002038B50123B7
:1054A000044603FA01F10020FFF7A6FA4FF4A073B7
:1054B00003FB00F5237CDB070BD5A369074899792B
:1054C000FEF7D8FD294604F16000BDE83840FFF73B
:1054D00081BB0248FEF724FAF4E700BF281C002035
:1054E000837803F0FB03032B10B5044620D1028818
:1054F0008369D20612D50423A370A1690D4800F078
:10550000CBFA0D2808D1A1694B6933B10023C1E959
:105510000433084800F0C0FA50B1FEE79979064814
:10552000FEF7A8FD00B1FEE7A378042BE5D0E2E783
:1055300010BD00BF391C0020281C0020034610B4F9
:105540001C6A08462CB15A6A012123465DF8044BB7
:1055500018475DF8044B7047837810B5044683B153
:10556000033B042B0DD903889B070CD50748FEF796
:1055700091FAA378052B01D1002010BD0523A3705B
:10558000FAE70D20F9E70C20F7E700BF281C002000
:105590008378022B1CBF022383701C3000F010BAEA
:1055A00003889B0710B5044600D5FEE71048FEF7B8
:1055B00021FA7F2806D094F911307F2B01D0984230
:1055C00000DD6074FDF765FF6369C01A002807DA23
:1055D000616E04F160008022BDE81040FFF7F4BA6C
:1055E00094F911102046BDE81040FFF7D1BF00BF6D
:1055F000281C0020008880F02000C0F34010704775
:10560000008880F00400C0F380007047008880F0BC
:105610004000C0F3801070478269516938B58378C3
:105620000446C9B1072B1CBF07238370FFF7EEFFA9
:10563000B0B10E481569FEF7ADFCA3695B692B4458
:10564000A3F5A473C21A002A0ADA191A04F1600039
:10565000BDE83840FFF7BEBA032B01D003238370A7
:105660002046BDE83840FFF73BBF00BF281C0020A4
:105670002DE9FF470829DDE90C8905460F469246CA
:105680001C4603D011F0EF0F13D0FEE780F85C202A
:1056900000F128060FCB86E80F0098E80F0005F10F
:1056A000380686E80F0099E80F0005F1480686E8FD
:1056B0000F002846FFF79EFF48B9CDE90190CDF8CD
:1056C00000800448234652463946FEF765FC04B084
:1056D000BDE8F087281C002038B590F85C30934274
:1056E00004460D4607D11C3000F070F9A36D9D42B1
:1056F00024BF0135A56538BD036A70B505460C4663
:1057000016462BB121B11AB9426A31462046984754
:105710002846FFF76FFF40B93CB1E37D9B0704D5F6
:10572000227D21692846FFF7D7FF3246214605F141
:105730001C00BDE8704000F035B937B504468069FB
:1057400003681B881D072DD5037FD9062AD40DF1C8
:105750000701FFF766FC28BBA069037FDA0703D4C3
:1057600094F85C10FFF7ACFC2046FFF743FFC8B18C
:105770009DF80730082B15D1A06904F13803836028
:10578000037FDB0709D4A56D2946FFF76AFC94F86F
:105790005C2029462046FFF79FFFA06904F108011D
:1057A000FFF731FD03B030BD38B58378052B0546D2
:1057B0000BD00024FFF7C1FF2846EC702C7185F850
:1057C0005D40FFF729FF204638BD0D20FCE737B5C7
:1057D00005460C46FFF70EFF20BB0B681B881A0717
:1057E00020D50B7FDB071DD50DF102012046FFF709
:1057F00018FC00B1FEE79DF80230082B12D101A978
:105800002046FFF71EFC00B1FEE70DF10301204624
:10581000FFF740FC00B1FEE79DF803200199284600
:10582000FFF75AFF03B030BD2DE9F7431E4604468B
:1058300060300D469046FFF7D9F90E2E4BD004D8B4
:10584000002E48D00B2E0BD0FEE70F2EFCD10021EE
:105850002B7F5B0704D5AA7904F11C0000F0A8F89F
:1058600029462046FFF7B3FF0023E3702379002E7B
:1058700033D02046FFF7C4FE074620B16F7E9F421B
:1058800094BF0027012704F11C09009732462946DE
:10589000484600F08EF847B32379013323712B7FFC
:1058A0000E2E43F002032B7719D1A37894F85D10E4
:1058B000062B1CBF0623A3702046FFF7EFFD94F8CC
:1058C0005D300133DBB2052B28BF052384F85D3042
:1058D00003B0BDE8F0830121BAE73746D3E720469D
:1058E00003B0BDE8F043FFF797BEA378A97E022B73
:1058F0001CBF0223A370AB798B4202D00548FEF790
:10590000B9FB334642462946484603B0BDE8F0435A
:1059100000F050B8281C00208378033B10B50446E3
:10592000042B1DD8DFE803F0030718140300BDE8BB
:105930001040FFF7D5BD83690A489979FEF79AFBB5
:10594000A16920460E23BDE810400022FFF76CBF7E
:10595000BDE81040FFF760BEBDE81040FFF720BE75
:1059600010BD00BF281C00200148FFF7D5BF00BFB5
:105970004C1C002008B512B1836D8B4200D28165AA
:10598000FFF738FE48B905481AB1BDE80840FEF7F0
:105990003FBBBDE80840FEF72DBB08BD281C00201A
:1059A000704700000148FFF7DDB900BF3C1C002034
:1059B000704770470148FFF7F1B900BF3C1C002059
:1059C0000148FFF705BA00BF3C1C002070470000EB
:1059D00070B5002190B02948FEF723F82748FEF75C
:1059E00053F82648FEF753F82448FDF771FF48B1F5
:1059F0002248FDF795FF00B1FEE72048FDF77AFF4A
:105A000000B1FEE70CAD1D484FF6FF710024FDF715
:105A1000DBFE29461948CDE90C44FDF7DFFE1748A7
:105A20004FF6FE71FDF7E8FE102221460DEB020055
:105A300008AE09F031FF21461022304609F02CFF54
:105A400021461022284609F027FF04AB22462146B2
:105A5000CDE9015409480096FEF79EFA2146074811
:105A6000FEF7C8FA21460548FDF7D8FF0348012193
:105A700010B0BDE8704000F058B800BF281C0020EE
:105A80000148FDF7ABBE00BF281C00200148FDF710
:105A9000B3BE00BF281C00200148FDF751BF00BF66
:105AA000281C002090F8903013B1123000F062BA38
:105AB000704790F8903013B1123000F061BA70471F
:105AC00090F8903013B1123000F066BA70470000C1
:105AD0000048704700F8FF072DE9F04191F81A805F
:105AE0001F4604460D461646FFF7F2FF20FA08F05F
:105AF000C30700D4FEE741462046FEF7BBFA94F800
:105B0000903043B13B463246294604F11200BDE8CD
:105B1000F04100F03BBABDE8F08108B5FFF7D8FFCF
:105B200008BDFF207047FF20704770471FB504462F
:105B3000084601A9FFF7F3FB01A9204600F0B5F9DB
:105B400004B010BD2DE9F84F13F00108DDF82890DE
:105B500004460D4617461E4602D1043B0C2B71D954
:105B6000FEE71B0A1046421C002BFAD19DF82CB010
:105B7000C0B2022838BF0220BBF10D0F28BF4FF082
:105B80000D0BCBF10F039842B8BFD8B2C0F10F0391
:105B90009B45C8BF5FFA83FB2B1E18BF0123B21EB3
:105BA000013852109B015FFA80FA43EAC2034AEAC5
:105BB000030384F820315A46494604F221100AF0C2
:105BC0008FF804F598713A460F239B453DD304F5B1
:105BD00090721146204600F06EF98DB1B5F57F4FF9
:105BE00094F8202194F82131C5F30720E9B232D28C
:105BF00042404B4084F8202184F821314FF00208C4
:105C00005A46494684F830A104F231100AF068F887
:105C10000BF23110CBF10F020021204409F03CFEC1
:105C20000023C4E95537C4F85C3184F864B110230B
:105C300084F86561C4F85051A4F86081A4F8623119
:105C4000BDE8F88F134640468DE7013B01F8012D72
:105C5000DBB2120AB9E783F0FE0384F8213194F82D
:105C6000223183EA156384F8223194F8233183EAE0
:105C7000154384F8233194F82431584094F82531A1
:105C800084F82401D243594084F8202184F8251156
:105C90004FF00608B4E72DE9F843D0F85431154623
:105CA0001344D0F85021934204460E461DD84F1994
:105CB00000F590794FF00008B74217D1D4F854316D
:105CC0001D44D4F85031C4F854519D420BD1B4F85E
:105CD00060312BB104F590721146204600F0EBF8CC
:105CE0000023A4F86031BDE8F883FEE7B4F8603122
:105CF000102B06D14A464946204600F0DCF8A4F8AD
:105D00006081B4F860315A1C2344A4F8602116F86D
:105D1000010B93F82021504083F82001CCE72DE9B6
:105D2000F74F1E469DF830300193D0F85C310D4698
:105D3000D0F8581133448B42044629D86FF4987B2D
:105D4000924605EB060900F5A078ABEB000BA945E0
:105D50001FD1D4F85C311E44D4F85831C4F85C61CA
:105D60009E4265D3B4F860312BB104F590721146B0
:105D7000204600F0A0F894F8642102F231100021CE
:105D8000C2F10F02204403B0BDE8F04F09F084BD1A
:105D9000FEE7B4F86221102A16D194F86401414656
:105DA0000BEB0102904206DA11F8012D0132D2B25A
:105DB0000A70002AF4D0424604F59871204600F09B
:105DC0007AF80022A4F86221B4F86221019B511CE8
:105DD00089B222441BBB2F78A4F8621192F84021AB
:105DE0007A408AF80020B4F86021102A08D104F51E
:105DF00090721146204600F05EF80022A4F860215F
:105E0000B4F86021511C2244A4F8601192F82011CA
:105E10004F4082F8207101350AF1010A97E79AF89C
:105E20000070A4F8621192F8402157402F70DAE711
:105E300003B0BDE8F08F38B5D0E956329A42044637
:105E40000D4600D0FEE700F5A07200F5987100F055
:105E500032F804F21F12002394F86511994200DC15
:105E600038BD12F8011F92F820004140E954013377
:105E7000F2E710B504681C6044685C60080E187294
:105E8000080C5872080A9872D9721A7310BD00F182
:105E9000080310B503604FF48C738380044600F050
:105EA00018F800B1FEE7204610BD08B500F020F854
:105EB00000B1FEE708BD08B500F034F800B1FEE718
:105EC00008BD10B5044600F041F800B1FEE72046D9
:105ED00010BD08B540B18388B3F58C7F06D3006848
:105EE00000F03CFE002008BD0720FCE70120FAE797
:105EF00013B50446684600F038F87CB1A388B3F5C2
:105F00008C7F0DD3BDF8042000992068D20000F0EA
:105F100049F8003818BF012002B010BD0720FBE788
:105F20000120F9E708B5134660B18288B2F58C7F8D
:105F30000AD30A460068012100F050FE003818BF5D
:105F4000012008BD0720FCE70120FAE708B540B1B1
:105F50008388B3F58C7F06D3006800F00DFE002027
:105F600008BD0720FCE70120FAE70A6802608A887A
:105F7000828070470148FFF7BFBB00BF4C1C002068
:105F80000148FFF7DBBA00BF4C1C00200148FFF7B7
:105F90004BBC00BF4C1C00200148FFF7F9BA00BF02
:105FA0004C1C0020E0B1D9B1C02A08B507D0B2F529
:105FB000807F12D0802A0DD06FF01F0008BD0C2307
:105FC000036000F108034360D208184600F07AFB32
:105FD000002008BD0A230360F3E70E230360F0E707
:105FE0006FF02000704700BF10B504461046D4E99A
:105FF0000032063B9B0000F037FA002010BD00BFC6
:1060000010B504461046D4E90032063B9B0000F070
:1060100003F8002010BD00BF2DE9F14F03F11C046F
:1060200002EB840C4FEA930B8A68CB6808684968D6
:1060300000F046F93CE9F0006040694072407B4066
:106040000BF1060E4EE083EA134480EA134582EA20
:10605000134746BA96EA3444604000F00F1684EACB
:10606000063420F00F1684EA161054BA94EA01069A
:10607000724002F00F1486EA043622F00F1486EA0A
:1060800014124CBA6540694001F00F1485EA0435DA
:1060900021F00F1485EA14115CBA67407B4003F0CD
:1060A0000F1487EA043723F00F1487EA141344BA55
:1060B00044404DBA4D4056BA56405FBA5F4087EAF9
:1060C000174886EA174B84EA17464FEA38488BEAA6
:1060D0001B4485EA1B4788EA1B4580EA3440694037
:1060E00072407B4000F0703400F0803500F00F30DB
:1060F00040EA440040EAD50080EA900404F03324EA
:1061000080EA8400604001F0703401F0803501F0D5
:106110000F3141EA440141EAD50181EA910404F0DA
:10612000332481EA8401614002F0703402F080354A
:1061300002F00F3242EA440242EAD50282EA9204B5
:1061400004F0332482EA8402624003F0703403F0E6
:10615000803503F00F3343EA440343EAD50383EA6F
:10616000930404F0332483EA84036340C943DB438C
:1061700081EA000483EA044686EA020183EA0143D5
:1061800082EA334583EA144383EA040484EA00077D
:106190007FEA040A8AEA024A8AEA010B87EA11487E
:1061A0008AEA374A80EA060181EA1A418AEA030A42
:1061B00004EA0A00454088EA040707EA0B00414068
:1061C0008AEA0B0608EA060084EA34428AEA3A467A
:1061D00002EA060358404540414087EA37438BEACC
:1061E0003B4003EA000985EA090582EA03094640C3
:1061F00009EA0606714085EA010005EA354646408F
:1062000006EA314181EA304181EA364606EA304603
:1062100086EA354634400F4086EA010508EA05085B
:1062200086EA3640024088EA020881EA3142134099
:106230005C4080EA020309EA030987EA090767402C
:1062400088EA040806EA0A0601EA0B018AEA0B0456
:1062500025408AEA3A44204045408BEA3B4B02EA1B
:106260000B02564084EA0B04234059406E406940BB
:1062700087EA364080EA384080EA060380EA104424
:1062800081EA134585EA344585EA17427D4082EA72
:10629000354180EA05403CE9F000604069407240C9
:1062A0007B40BEF1010E3FF6CEAE00F05FF810BCB1
:1062B00020606160A260E360BDE8F08F00F002BA88
:1062C00080EA101404F0F01480EA0410604081EABF
:1062D000111404F0F01481EA0411614082EA1214EE
:1062E00004F0F01482EA0412624083EA131404F00A
:1062F000F01483EA0413634080EA102404F47F441A
:1063000080EA0420604081EA112404F47F4481EA99
:106310000421614082EA122404F47F4482EA0422C8
:10632000624083EA132404F47F4483EA0423634035
:1063300081EA500404F0553480EA4400614083EA65
:10634000520404F0553482EA4402634082EA900425
:1063500004F0333480EA8400624083EA910404F05C
:10636000333481EA84016340704700BF82EA9004BD
:1063700004F0333480EA8400624083EA910404F03C
:10638000333481EA8401634081EA500404F05534D7
:1063900080EA4400614083EA520404F0553482EA02
:1063A0004402634080EA102404F47F4480EA04201D
:1063B000604081EA112404F47F4481EA04216140B1
:1063C00082EA122404F47F4482EA0422624083EACF
:1063D000132404F47F4483EA0423634080EA101406
:1063E00004F0F01480EA0410604081EA111404F013
:1063F000F01481EA0411614082EA121404F0F014EE
:1064000082EA0412624083EA131404F0F01483EA6F
:1064100004136340704700BF2DE9F04F4FF2F002C4
:1064200080EA1031114080EA01304840410882087A
:10643000C3084FF0000EA3E000F0113001F011315D
:1064400002F0113203F0113340EA410040EA8200C9
:1064500040EAC3004FF2F00280EA1031114080EAB6
:1064600001304840BDE8F08F2DE9F14F94464FEAE6
:10647000930B8A68CB6808684968FFF721FF0BF126
:10648000060E33E083EA134480EA134582EA134799
:1064900046BA96EA3444604000F00F1684EA0634A7
:1064A00020F00F1684EA161054BA94EA01067240DE
:1064B00002F00F1486EA043622F00F1486EA141252
:1064C0004CBA6540694001F00F1485EA043521F0AB
:1064D0000F1485EA14115CBA67407B4003F00F1477
:1064E00087EA043723F00F1487EA1413BCE8F0009E
:1064F0006040694072407B4000F0E03400F01035AD
:1065000000F00F3040EA540040EAC50080EA9004F1
:1065100004F0332480EA8400604001F0E03401F0AC
:10652000103501F00F3141EA540141EAC50181EA19
:10653000910404F0332481EA8401614002F0E034E4
:1065400002F0103502F00F3242EA540242EAC5026C
:1065500082EA920404F0332482EA8402624003F067
:10656000E03403F0103503F00F3343EA540343EAF9
:10657000C50383EA930404F0332483EA840363406D
:1065800081EA324787EA134581EA354690EA0604F4
:1065900084EA034B82EA1B4280EA044484EA05440D
:1065A00083EA144A85EA14448BEA044B84EA3744AC
:1065B00081EA0B4181EA164104EA0A00454082EA79
:1065C00004082BEA080041408AEA0B0602EA0600AA
:1065D00084EA34438AEA3A4603EA060778404540AB
:1065E000414088EA38478BEA3B4007EA000985EAE0
:1065F000090583EA0709464006EA0906714085EA6B
:10660000010005EA3546464006EA314181EA30415B
:1066100081EA364606EA304686EA3546344008EADC
:10662000010886EA01052A4086EA364003405A40BE
:1066300081EA31431F407C4080EA030709EA0709E9
:1066400088EA0908544088EA020806EA0A0601EACC
:106650000B018AEA0B0215408AEA3A421040454093
:106660008BEA3B4003405E404240174079404D403A
:106670004E40E443F64386EA18435D4085EA054010
:1066800083EA134386EA034183EA384284EA1143EA
:1066900083EA04435FEA3343BEF1010E3FF6F2AEF4
:1066A0003FF5CAAEBCE8F0006040694072407B40F4
:1066B000FFF75CFE10BC20606160A260E360BDE893
:1066C000F08F00BF2DE9F04102F11C050646074698
:1066D00000EB850851F8040B46F8040B043AF9D195
:1066E0004FF0010CFFF798FE5FEA302080EA0C00C3
:1066F0004FEA4C0C4FEA1C2140F21B1201FB02F244
:106700008CEA020C1ECF41404A4053405C401EC6FA
:106710002000464510D02C2DE4D03C2D06D1FFF7AB
:106720007BFE06CF41404A4006C6100006CF4140DE
:106730004A4006C61000D5E736E90F00FFF7C0FD56
:1067400086E80F00043DF7D1BDE8F08190B4ADF5C7
:10675000016D00AF0023C7F80C380123C7F80838D3
:1067600026E007F58063D7F80C28D7F8081843F817
:1067700022103B46D7F80828D7F80C1843F8221007
:10678000D7F808385A00D7F8083803F08003002BF0
:1067900001D01B2300E000235A40D7F808385340AB
:1067A000DBB2C7F80838D7F80C380133C7F80C3813
:1067B000D7F80C38FF2BD4DD0023C7F80C380123A1
:1067C000C7F808381BE0D7F80828D849D7F80C389C
:1067D00041F82320D7F808385A00D7F8083803F0D2
:1067E0008003002B01D01B2300E000235340DBB2C9
:1067F000C7F80838D7F80C380133C7F80C38D7F881
:106800000C38092BDFDDCA4B63221A70C94B0022FA
:1068100083F863200123C7F80C386DE03B46D7F8B6
:106820000C2853F82230C3F1FF0207F5806353F8B8
:106830002230C7F80838D7F80838C7F80438D7F82E
:1068400004385A00D7F80438DB111343DBB2C7F819
:106850000438D7F80828D7F804385340C7F8083860
:10686000D7F804385A00D7F80438DB111343DBB2E9
:10687000C7F80438D7F80828D7F804385340C7F8C1
:106880000838D7F804385A00D7F80438DB11134316
:10689000DBB2C7F80438D7F80828D7F804385340D3
:1068A000C7F80838D7F804385A00D7F80438DB118D
:1068B0001343DBB2C7F80438D7F8043883F0630316
:1068C000D7F808285340C7F80838D7F80838D9B29D
:1068D000974AD7F80C3813440A461A70D7F80C3880
:1068E000D9B2944AD7F8083813440A461A70D7F830
:1068F0000C380133C7F80C38D7F80C38FF2B8DDD76
:106900000023C7F80C3806E1894AD7F80C3813443D
:106910001B78C7F80838D7F808385A00D7F808386D
:1069200003F08003002B01D01B2300E00023534021
:10693000DBB2C7F80438D7F80428D7F80838534032
:10694000DBB2C7F80038D7F808381A02D7F804388D
:106950005A40D7F808381B045A40D7F800381B06AD
:106960005A407549D7F80C3841F82320724AD7F8B5
:106970000C3852F823304FEA33627049D7F80C389C
:1069800041F823206D4AD7F80C3852F823304FEAEB
:1069900033626B49D7F80C3841F82320684AD7F89E
:1069A0000C3852F823304FEA33626649D7F80C3876
:1069B00041F823205F4AD7F80C3813441B78C7F8F6
:1069C0000838D7F80838002B18D03B469A6B3B465E
:1069D000D7F8081853F821301A445B4B82FB033474
:1069E0001319D911D317C91A0B461B025B1AD11AF6
:1069F00007F5806353F82130184600E00020D7F8EF
:106A00000838002B18D03B465A6A3B46D7F808187E
:106A100053F821301A444C4B82FB03341319D9111B
:106A2000D317C91A0B461B025B1AD11A07F58063EC
:106A300053F821301B0200E000235840D7F80838F3
:106A4000002B18D03B465A6B3B46D7F8081853F832
:106A500021301A443C4B82FB03341319D911D3174C
:106A6000C91A0B461B025B1AD11A07F5806353F84B
:106A700021301B0400E000235840D7F80838002BD1
:106A800018D03B46DA6A3B46D7F8081853F821304D
:106A90001A442D4B82FB03341319D911D317C91A89
:106AA0000B461B025B1AD11A07F5806353F821309D
:106AB0001B0600E0002380EA03022449D7F80C38C3
:106AC00041F82320214AD7F80C3852F823304FEAF6
:106AD00033621F49D7F80C3841F823201C4AD7F8F5
